{
  "contractName": "Exchange",
  "abi": [
    {
      "constant": true,
      "inputs": [],
      "name": "tokenTransferProxy",
      "outputs": [
        {
          "name": "",
          "type": "address"
        }
      ],
      "payable": false,
      "stateMutability": "view",
      "type": "function"
    },
    {
      "constant": true,
      "inputs": [
        {
          "name": "target",
          "type": "address"
        },
        {
          "name": "calldata",
          "type": "bytes"
        },
        {
          "name": "extradata",
          "type": "bytes"
        }
      ],
      "name": "staticCall",
      "outputs": [
        {
          "name": "result",
          "type": "bool"
        }
      ],
      "payable": false,
      "stateMutability": "view",
      "type": "function"
    },
    {
      "constant": false,
      "inputs": [
        {
          "name": "newMinimumMakerProtocolFee",
          "type": "uint256"
        }
      ],
      "name": "changeMinimumMakerProtocolFee",
      "outputs": [],
      "payable": false,
      "stateMutability": "nonpayable",
      "type": "function"
    },
    {
      "constant": false,
      "inputs": [
        {
          "name": "newMinimumTakerProtocolFee",
          "type": "uint256"
        }
      ],
      "name": "changeMinimumTakerProtocolFee",
      "outputs": [],
      "payable": false,
      "stateMutability": "nonpayable",
      "type": "function"
    },
    {
      "constant": true,
      "inputs": [],
      "name": "minimumTakerProtocolFee",
      "outputs": [
        {
          "name": "",
          "type": "uint256"
        }
      ],
      "payable": false,
      "stateMutability": "view",
      "type": "function"
    },
    {
      "constant": false,
      "inputs": [
        {
          "name": "newProtocolFeeRecipient",
          "type": "address"
        }
      ],
      "name": "changeProtocolFeeRecipient",
      "outputs": [],
      "payable": false,
      "stateMutability": "nonpayable",
      "type": "function"
    },
    {
      "constant": true,
      "inputs": [],
      "name": "protocolFeeRecipient",
      "outputs": [
        {
          "name": "",
          "type": "address"
        }
      ],
      "payable": false,
      "stateMutability": "view",
      "type": "function"
    },
    {
      "constant": true,
      "inputs": [],
      "name": "registry",
      "outputs": [
        {
          "name": "",
          "type": "address"
        }
      ],
      "payable": false,
      "stateMutability": "view",
      "type": "function"
    },
    {
      "constant": true,
      "inputs": [],
      "name": "minimumMakerProtocolFee",
      "outputs": [
        {
          "name": "",
          "type": "uint256"
        }
      ],
      "payable": false,
      "stateMutability": "view",
      "type": "function"
    },
    {
      "constant": true,
      "inputs": [
        {
          "name": "",
          "type": "bytes32"
        }
      ],
      "name": "cancelledOrFinalized",
      "outputs": [
        {
          "name": "",
          "type": "bool"
        }
      ],
      "payable": false,
      "stateMutability": "view",
      "type": "function"
    },
    {
      "constant": true,
      "inputs": [],
      "name": "owner",
      "outputs": [
        {
          "name": "",
          "type": "address"
        }
      ],
      "payable": false,
      "stateMutability": "view",
      "type": "function"
    },
    {
      "constant": true,
      "inputs": [],
      "name": "exchangeToken",
      "outputs": [
        {
          "name": "",
          "type": "address"
        }
      ],
      "payable": false,
      "stateMutability": "view",
      "type": "function"
    },
    {
      "constant": true,
      "inputs": [],
      "name": "INVERSE_BASIS_POINT",
      "outputs": [
        {
          "name": "",
          "type": "uint256"
        }
      ],
      "payable": false,
      "stateMutability": "view",
      "type": "function"
    },
    {
      "constant": true,
      "inputs": [
        {
          "name": "",
          "type": "bytes32"
        }
      ],
      "name": "approvedOrders",
      "outputs": [
        {
          "name": "",
          "type": "bool"
        }
      ],
      "payable": false,
      "stateMutability": "view",
      "type": "function"
    },
    {
      "constant": false,
      "inputs": [
        {
          "name": "newOwner",
          "type": "address"
        }
      ],
      "name": "transferOwnership",
      "outputs": [],
      "payable": false,
      "stateMutability": "nonpayable",
      "type": "function"
    },
    {
      "anonymous": false,
      "inputs": [
        {
          "indexed": true,
          "name": "hash",
          "type": "bytes32"
        },
        {
          "indexed": false,
          "name": "exchange",
          "type": "address"
        },
        {
          "indexed": true,
          "name": "maker",
          "type": "address"
        },
        {
          "indexed": false,
          "name": "taker",
          "type": "address"
        },
        {
          "indexed": false,
          "name": "makerRelayerFee",
          "type": "uint256"
        },
        {
          "indexed": false,
          "name": "takerRelayerFee",
          "type": "uint256"
        },
        {
          "indexed": false,
          "name": "makerProtocolFee",
          "type": "uint256"
        },
        {
          "indexed": false,
          "name": "takerProtocolFee",
          "type": "uint256"
        },
        {
          "indexed": true,
          "name": "feeRecipient",
          "type": "address"
        },
        {
          "indexed": false,
          "name": "feeMethod",
          "type": "uint8"
        },
        {
          "indexed": false,
          "name": "side",
          "type": "uint8"
        },
        {
          "indexed": false,
          "name": "saleKind",
          "type": "uint8"
        },
        {
          "indexed": false,
          "name": "target",
          "type": "address"
        }
      ],
      "name": "OrderApprovedPartOne",
      "type": "event"
    },
    {
      "anonymous": false,
      "inputs": [
        {
          "indexed": true,
          "name": "hash",
          "type": "bytes32"
        },
        {
          "indexed": false,
          "name": "howToCall",
          "type": "uint8"
        },
        {
          "indexed": false,
          "name": "calldata",
          "type": "bytes"
        },
        {
          "indexed": false,
          "name": "replacementPattern",
          "type": "bytes"
        },
        {
          "indexed": false,
          "name": "staticTarget",
          "type": "address"
        },
        {
          "indexed": false,
          "name": "staticExtradata",
          "type": "bytes"
        },
        {
          "indexed": false,
          "name": "paymentToken",
          "type": "address"
        },
        {
          "indexed": false,
          "name": "basePrice",
          "type": "uint256"
        },
        {
          "indexed": false,
          "name": "extra",
          "type": "uint256"
        },
        {
          "indexed": false,
          "name": "listingTime",
          "type": "uint256"
        },
        {
          "indexed": false,
          "name": "expirationTime",
          "type": "uint256"
        },
        {
          "indexed": false,
          "name": "salt",
          "type": "uint256"
        },
        {
          "indexed": false,
          "name": "orderbookInclusionDesired",
          "type": "bool"
        }
      ],
      "name": "OrderApprovedPartTwo",
      "type": "event"
    },
    {
      "anonymous": false,
      "inputs": [
        {
          "indexed": true,
          "name": "hash",
          "type": "bytes32"
        }
      ],
      "name": "OrderCancelled",
      "type": "event"
    },
    {
      "anonymous": false,
      "inputs": [
        {
          "indexed": false,
          "name": "buyHash",
          "type": "bytes32"
        },
        {
          "indexed": false,
          "name": "sellHash",
          "type": "bytes32"
        },
        {
          "indexed": true,
          "name": "maker",
          "type": "address"
        },
        {
          "indexed": true,
          "name": "taker",
          "type": "address"
        },
        {
          "indexed": false,
          "name": "price",
          "type": "uint256"
        },
        {
          "indexed": true,
          "name": "metadata",
          "type": "bytes32"
        }
      ],
      "name": "OrdersMatched",
      "type": "event"
    },
    {
      "anonymous": false,
      "inputs": [
        {
          "indexed": true,
          "name": "previousOwner",
          "type": "address"
        },
        {
          "indexed": true,
          "name": "newOwner",
          "type": "address"
        }
      ],
      "name": "OwnershipTransferred",
      "type": "event"
    },
    {
      "constant": true,
      "inputs": [
        {
          "name": "array",
          "type": "bytes"
        },
        {
          "name": "desired",
          "type": "bytes"
        },
        {
          "name": "mask",
          "type": "bytes"
        }
      ],
      "name": "guardedArrayReplace",
      "outputs": [
        {
          "name": "",
          "type": "bytes"
        }
      ],
      "payable": false,
      "stateMutability": "pure",
      "type": "function"
    },
    {
      "constant": true,
      "inputs": [
        {
          "name": "arrToCopy",
          "type": "bytes"
        }
      ],
      "name": "testCopy",
      "outputs": [
        {
          "name": "",
          "type": "bytes"
        }
      ],
      "payable": false,
      "stateMutability": "pure",
      "type": "function"
    },
    {
      "constant": true,
      "inputs": [
        {
          "name": "addr",
          "type": "address"
        }
      ],
      "name": "testCopyAddress",
      "outputs": [
        {
          "name": "",
          "type": "bytes"
        }
      ],
      "payable": false,
      "stateMutability": "pure",
      "type": "function"
    },
    {
      "constant": true,
      "inputs": [
        {
          "name": "side",
          "type": "uint8"
        },
        {
          "name": "saleKind",
          "type": "uint8"
        },
        {
          "name": "basePrice",
          "type": "uint256"
        },
        {
          "name": "extra",
          "type": "uint256"
        },
        {
          "name": "listingTime",
          "type": "uint256"
        },
        {
          "name": "expirationTime",
          "type": "uint256"
        }
      ],
      "name": "calculateFinalPrice",
      "outputs": [
        {
          "name": "",
          "type": "uint256"
        }
      ],
      "payable": false,
      "stateMutability": "view",
      "type": "function"
    },
    {
      "constant": true,
      "inputs": [
        {
          "name": "addrs",
          "type": "address[7]"
        },
        {
          "name": "uints",
          "type": "uint256[9]"
        },
        {
          "name": "feeMethod",
          "type": "uint8"
        },
        {
          "name": "side",
          "type": "uint8"
        },
        {
          "name": "saleKind",
          "type": "uint8"
        },
        {
          "name": "howToCall",
          "type": "uint8"
        },
        {
          "name": "calldata",
          "type": "bytes"
        },
        {
          "name": "replacementPattern",
          "type": "bytes"
        },
        {
          "name": "staticExtradata",
          "type": "bytes"
        }
      ],
      "name": "hashOrder_",
      "outputs": [
        {
          "name": "",
          "type": "bytes32"
        }
      ],
      "payable": false,
      "stateMutability": "pure",
      "type": "function"
    },
    {
      "constant": true,
      "inputs": [
        {
          "name": "addrs",
          "type": "address[7]"
        },
        {
          "name": "uints",
          "type": "uint256[9]"
        },
        {
          "name": "feeMethod",
          "type": "uint8"
        },
        {
          "name": "side",
          "type": "uint8"
        },
        {
          "name": "saleKind",
          "type": "uint8"
        },
        {
          "name": "howToCall",
          "type": "uint8"
        },
        {
          "name": "calldata",
          "type": "bytes"
        },
        {
          "name": "replacementPattern",
          "type": "bytes"
        },
        {
          "name": "staticExtradata",
          "type": "bytes"
        }
      ],
      "name": "hashToSign_",
      "outputs": [
        {
          "name": "",
          "type": "bytes32"
        }
      ],
      "payable": false,
      "stateMutability": "pure",
      "type": "function"
    },
    {
      "constant": true,
      "inputs": [
        {
          "name": "addrs",
          "type": "address[7]"
        },
        {
          "name": "uints",
          "type": "uint256[9]"
        },
        {
          "name": "feeMethod",
          "type": "uint8"
        },
        {
          "name": "side",
          "type": "uint8"
        },
        {
          "name": "saleKind",
          "type": "uint8"
        },
        {
          "name": "howToCall",
          "type": "uint8"
        },
        {
          "name": "calldata",
          "type": "bytes"
        },
        {
          "name": "replacementPattern",
          "type": "bytes"
        },
        {
          "name": "staticExtradata",
          "type": "bytes"
        }
      ],
      "name": "validateOrderParameters_",
      "outputs": [
        {
          "name": "",
          "type": "bool"
        }
      ],
      "payable": false,
      "stateMutability": "view",
      "type": "function"
    },
    {
      "constant": true,
      "inputs": [
        {
          "name": "addrs",
          "type": "address[7]"
        },
        {
          "name": "uints",
          "type": "uint256[9]"
        },
        {
          "name": "feeMethod",
          "type": "uint8"
        },
        {
          "name": "side",
          "type": "uint8"
        },
        {
          "name": "saleKind",
          "type": "uint8"
        },
        {
          "name": "howToCall",
          "type": "uint8"
        },
        {
          "name": "calldata",
          "type": "bytes"
        },
        {
          "name": "replacementPattern",
          "type": "bytes"
        },
        {
          "name": "staticExtradata",
          "type": "bytes"
        },
        {
          "name": "v",
          "type": "uint8"
        },
        {
          "name": "r",
          "type": "bytes32"
        },
        {
          "name": "s",
          "type": "bytes32"
        }
      ],
      "name": "validateOrder_",
      "outputs": [
        {
          "name": "",
          "type": "bool"
        }
      ],
      "payable": false,
      "stateMutability": "view",
      "type": "function"
    },
    {
      "constant": false,
      "inputs": [
        {
          "name": "addrs",
          "type": "address[7]"
        },
        {
          "name": "uints",
          "type": "uint256[9]"
        },
        {
          "name": "feeMethod",
          "type": "uint8"
        },
        {
          "name": "side",
          "type": "uint8"
        },
        {
          "name": "saleKind",
          "type": "uint8"
        },
        {
          "name": "howToCall",
          "type": "uint8"
        },
        {
          "name": "calldata",
          "type": "bytes"
        },
        {
          "name": "replacementPattern",
          "type": "bytes"
        },
        {
          "name": "staticExtradata",
          "type": "bytes"
        },
        {
          "name": "orderbookInclusionDesired",
          "type": "bool"
        }
      ],
      "name": "approveOrder_",
      "outputs": [],
      "payable": false,
      "stateMutability": "nonpayable",
      "type": "function"
    },
    {
      "constant": false,
      "inputs": [
        {
          "name": "addrs",
          "type": "address[7]"
        },
        {
          "name": "uints",
          "type": "uint256[9]"
        },
        {
          "name": "feeMethod",
          "type": "uint8"
        },
        {
          "name": "side",
          "type": "uint8"
        },
        {
          "name": "saleKind",
          "type": "uint8"
        },
        {
          "name": "howToCall",
          "type": "uint8"
        },
        {
          "name": "calldata",
          "type": "bytes"
        },
        {
          "name": "replacementPattern",
          "type": "bytes"
        },
        {
          "name": "staticExtradata",
          "type": "bytes"
        },
        {
          "name": "v",
          "type": "uint8"
        },
        {
          "name": "r",
          "type": "bytes32"
        },
        {
          "name": "s",
          "type": "bytes32"
        }
      ],
      "name": "cancelOrder_",
      "outputs": [],
      "payable": false,
      "stateMutability": "nonpayable",
      "type": "function"
    },
    {
      "constant": true,
      "inputs": [
        {
          "name": "addrs",
          "type": "address[7]"
        },
        {
          "name": "uints",
          "type": "uint256[9]"
        },
        {
          "name": "feeMethod",
          "type": "uint8"
        },
        {
          "name": "side",
          "type": "uint8"
        },
        {
          "name": "saleKind",
          "type": "uint8"
        },
        {
          "name": "howToCall",
          "type": "uint8"
        },
        {
          "name": "calldata",
          "type": "bytes"
        },
        {
          "name": "replacementPattern",
          "type": "bytes"
        },
        {
          "name": "staticExtradata",
          "type": "bytes"
        }
      ],
      "name": "calculateCurrentPrice_",
      "outputs": [
        {
          "name": "",
          "type": "uint256"
        }
      ],
      "payable": false,
      "stateMutability": "view",
      "type": "function"
    },
    {
      "constant": true,
      "inputs": [
        {
          "name": "addrs",
          "type": "address[14]"
        },
        {
          "name": "uints",
          "type": "uint256[18]"
        },
        {
          "name": "feeMethodsSidesKindsHowToCalls",
          "type": "uint8[8]"
        },
        {
          "name": "calldataBuy",
          "type": "bytes"
        },
        {
          "name": "calldataSell",
          "type": "bytes"
        },
        {
          "name": "replacementPatternBuy",
          "type": "bytes"
        },
        {
          "name": "replacementPatternSell",
          "type": "bytes"
        },
        {
          "name": "staticExtradataBuy",
          "type": "bytes"
        },
        {
          "name": "staticExtradataSell",
          "type": "bytes"
        }
      ],
      "name": "ordersCanMatch_",
      "outputs": [
        {
          "name": "",
          "type": "bool"
        }
      ],
      "payable": false,
      "stateMutability": "view",
      "type": "function"
    },
    {
      "constant": true,
      "inputs": [
        {
          "name": "buyCalldata",
          "type": "bytes"
        },
        {
          "name": "buyReplacementPattern",
          "type": "bytes"
        },
        {
          "name": "sellCalldata",
          "type": "bytes"
        },
        {
          "name": "sellReplacementPattern",
          "type": "bytes"
        }
      ],
      "name": "orderCalldataCanMatch",
      "outputs": [
        {
          "name": "",
          "type": "bool"
        }
      ],
      "payable": false,
      "stateMutability": "pure",
      "type": "function"
    },
    {
      "constant": true,
      "inputs": [
        {
          "name": "addrs",
          "type": "address[14]"
        },
        {
          "name": "uints",
          "type": "uint256[18]"
        },
        {
          "name": "feeMethodsSidesKindsHowToCalls",
          "type": "uint8[8]"
        },
        {
          "name": "calldataBuy",
          "type": "bytes"
        },
        {
          "name": "calldataSell",
          "type": "bytes"
        },
        {
          "name": "replacementPatternBuy",
          "type": "bytes"
        },
        {
          "name": "replacementPatternSell",
          "type": "bytes"
        },
        {
          "name": "staticExtradataBuy",
          "type": "bytes"
        },
        {
          "name": "staticExtradataSell",
          "type": "bytes"
        }
      ],
      "name": "calculateMatchPrice_",
      "outputs": [
        {
          "name": "",
          "type": "uint256"
        }
      ],
      "payable": false,
      "stateMutability": "view",
      "type": "function"
    },
    {
      "constant": false,
      "inputs": [
        {
          "name": "addrs",
          "type": "address[14]"
        },
        {
          "name": "uints",
          "type": "uint256[18]"
        },
        {
          "name": "feeMethodsSidesKindsHowToCalls",
          "type": "uint8[8]"
        },
        {
          "name": "calldataBuy",
          "type": "bytes"
        },
        {
          "name": "calldataSell",
          "type": "bytes"
        },
        {
          "name": "replacementPatternBuy",
          "type": "bytes"
        },
        {
          "name": "replacementPatternSell",
          "type": "bytes"
        },
        {
          "name": "staticExtradataBuy",
          "type": "bytes"
        },
        {
          "name": "staticExtradataSell",
          "type": "bytes"
        },
        {
          "name": "vs",
          "type": "uint8[2]"
        },
        {
          "name": "rssMetadata",
          "type": "bytes32[5]"
        }
      ],
      "name": "atomicMatch_",
      "outputs": [],
      "payable": true,
      "stateMutability": "payable",
      "type": "function"
    }
  ],
  "bytecode": "0x608060405260008060006101000a81548160ff0219169083151502179055506000600655600060075533600060016101000a81548173ffffffffffffffffffffffffffffffffffffffff021916908373ffffffffffffffffffffffffffffffffffffffff1602179055506173af806100786000396000f300608060405260043610610180576000357c0100000000000000000000000000000000000000000000000000000000900463ffffffff1680630eefdbad1461018557806310796a47146101dc57806314350c24146102c35780631a6b13e2146102f0578063239e83df1461031d57806328a8ee681461048b5780633464af6a146104b65780633e1e292a146105725780633f67ee0d14610654578063514f0330146107f0578063562b2ebc1461083357806360bef33a1461098657806363d36c0b14610b4f57806364df049e14610bc857806371d02b3814610c1f57806372593b4c14610dc357806379666868146110325780637b103999146111c65780637ccefc521461121d5780637d766981146112485780638076f005146113ec5780638da5cb5b14611435578063a25eb5d91461148c578063a8a41c70146114e3578063ab834bab14611694578063ca595b9a1461193c578063cae6047f14611adc578063d537e13114611b07578063e57d4adb14611d72578063f2fde38b14611dbb575b600080fd5b34801561019157600080fd5b5061019a611dfe565b604051808273ffffffffffffffffffffffffffffffffffffffff1673ffffffffffffffffffffffffffffffffffffffff16815260200191505060405180910390f35b3480156101e857600080fd5b506102a9600480360381019080803573ffffffffffffffffffffffffffffffffffffffff169060200190929190803590602001908201803590602001908080601f0160208091040260200160405190810160405280939291908181526020018383808284378201915050505050509192919290803590602001908201803590602001908080601f0160208091040260200160405190810160405280939291908181526020018383808284378201915050505050509192919290505050611e24565b604051808215151515815260200191505060405180910390f35b3480156102cf57600080fd5b506102ee60048036038101908080359060200190929190505050611e9d565b005b3480156102fc57600080fd5b5061031b60048036038101908080359060200190929190505050611f03565b005b34801561032957600080fd5b50610410600480360381019080803590602001908201803590602001908080601f0160208091040260200160405190810160405280939291908181526020018383808284378201915050505050509192919290803590602001908201803590602001908080601f0160208091040260200160405190810160405280939291908181526020018383808284378201915050505050509192919290803590602001908201803590602001908080601f0160208091040260200160405190810160405280939291908181526020018383808284378201915050505050509192919290505050611f69565b6040518080602001828103825283818151815260200191508051906020019080838360005b83811015610450578082015181840152602081019050610435565b50505050905090810190601f16801561047d5780820380516001836020036101000a031916815260200191505b509250505060405180910390f35b34801561049757600080fd5b506104a0611f80565b6040518082815260200191505060405180910390f35b3480156104c257600080fd5b506104f7600480360381019080803573ffffffffffffffffffffffffffffffffffffffff169060200190929190505050611f86565b6040518080602001828103825283818151815260200191508051906020019080838360005b8381101561053757808201518184015260208101905061051c565b50505050905090810190601f1680156105645780820380516001836020036101000a031916815260200191505b509250505060405180910390f35b34801561057e57600080fd5b506105d9600480360381019080803590602001908201803590602001908080601f0160208091040260200160405190810160405280939291908181526020018383808284378201915050505050509192919290505050611fdd565b6040518080602001828103825283818151815260200191508051906020019080838360005b838110156106195780820151818401526020810190506105fe565b50505050905090810190601f1680156106465780820380516001836020036101000a031916815260200191505b509250505060405180910390f35b34801561066057600080fd5b506107da6004803603810190808060e00190600780602002604051908101604052809291908260076020028082843782019150505050509192919290806101200190600980602002604051908101604052809291908260096020028082843782019150505050509192919290803560ff169060200190929190803560ff169060200190929190803560ff169060200190929190803560ff169060200190929190803590602001908201803590602001908080601f0160208091040260200160405190810160405280939291908181526020018383808284378201915050505050509192919290803590602001908201803590602001908080601f0160208091040260200160405190810160405280939291908181526020018383808284378201915050505050509192919290803590602001908201803590602001908080601f0160208091040260200160405190810160405280939291908181526020018383808284378201915050505050509192919290505050612034565b6040518082815260200191505060405180910390f35b3480156107fc57600080fd5b50610831600480360381019080803573ffffffffffffffffffffffffffffffffffffffff1690602001909291905050506122d8565b005b34801561083f57600080fd5b5061096c600480360381019080803590602001908201803590602001908080601f0160208091040260200160405190810160405280939291908181526020018383808284378201915050505050509192919290803590602001908201803590602001908080601f0160208091040260200160405190810160405280939291908181526020018383808284378201915050505050509192919290803590602001908201803590602001908080601f0160208091040260200160405190810160405280939291908181526020018383808284378201915050505050509192919290803590602001908201803590602001908080601f0160208091040260200160405190810160405280939291908181526020018383808284378201915050505050509192919290505050612378565b604051808215151515815260200191505060405180910390f35b34801561099257600080fd5b50610b356004803603810190808060e00190600780602002604051908101604052809291908260076020028082843782019150505050509192919290806101200190600980602002604051908101604052809291908260096020028082843782019150505050509192919290803560ff169060200190929190803560ff169060200190929190803560ff169060200190929190803560ff169060200190929190803590602001908201803590602001908080601f0160208091040260200160405190810160405280939291908181526020018383808284378201915050505050509192919290803590602001908201803590602001908080601f0160208091040260200160405190810160405280939291908181526020018383808284378201915050505050509192919290803590602001908201803590602001908080601f0160208091040260200160405190810160405280939291908181526020018383808284378201915050505050509192919290803560ff169060200190929190803560001916906020019092919080356000191690602001909291905050506123b9565b604051808215151515815260200191505060405180910390f35b348015610b5b57600080fd5b50610bb2600480360381019080803560ff169060200190929190803560ff169060200190929190803590602001909291908035906020019092919080359060200190929190803590602001909291905050506126a5565b6040518082815260200191505060405180910390f35b348015610bd457600080fd5b50610bdd6126c1565b604051808273ffffffffffffffffffffffffffffffffffffffff1673ffffffffffffffffffffffffffffffffffffffff16815260200191505060405180910390f35b348015610c2b57600080fd5b50610da56004803603810190808060e00190600780602002604051908101604052809291908260076020028082843782019150505050509192919290806101200190600980602002604051908101604052809291908260096020028082843782019150505050509192919290803560ff169060200190929190803560ff169060200190929190803560ff169060200190929190803560ff169060200190929190803590602001908201803590602001908080601f0160208091040260200160405190810160405280939291908181526020018383808284378201915050505050509192919290803590602001908201803590602001908080601f0160208091040260200160405190810160405280939291908181526020018383808284378201915050505050509192919290803590602001908201803590602001908080601f01602080910402602001604051908101604052809392919081815260200183838082843782019150505050505091929192905050506126e7565b60405180826000191660001916815260200191505060405180910390f35b348015610dcf57600080fd5b50611018600480360381019080806101c00190600e806020026040519081016040528092919082600e6020028082843782019150505050509192919290806102400190601280602002604051908101604052809291908260126020028082843782019150505050509192919290806101000190600880602002604051908101604052809291908260086020028082843782019150505050509192919290803590602001908201803590602001908080601f0160208091040260200160405190810160405280939291908181526020018383808284378201915050505050509192919290803590602001908201803590602001908080601f0160208091040260200160405190810160405280939291908181526020018383808284378201915050505050509192919290803590602001908201803590602001908080601f0160208091040260200160405190810160405280939291908181526020018383808284378201915050505050509192919290803590602001908201803590602001908080601f0160208091040260200160405190810160405280939291908181526020018383808284378201915050505050509192919290803590602001908201803590602001908080601f0160208091040260200160405190810160405280939291908181526020018383808284378201915050505050509192919290803590602001908201803590602001908080601f016020809104026020016040519081016040528093929190818152602001838380828437820191505050505050919291929050505061298b565b604051808215151515815260200191505060405180910390f35b34801561103e57600080fd5b506111c46004803603810190808060e00190600780602002604051908101604052809291908260076020028082843782019150505050509192919290806101200190600980602002604051908101604052809291908260096020028082843782019150505050509192919290803560ff169060200190929190803560ff169060200190929190803560ff169060200190929190803560ff169060200190929190803590602001908201803590602001908080601f0160208091040260200160405190810160405280939291908181526020018383808284378201915050505050509192919290803590602001908201803590602001908080601f0160208091040260200160405190810160405280939291908181526020018383808284378201915050505050509192919290803590602001908201803590602001908080601f0160208091040260200160405190810160405280939291908181526020018383808284378201915050505050509192919290803515159060200190929190505050612fda565b005b3480156111d257600080fd5b506111db613286565b604051808273ffffffffffffffffffffffffffffffffffffffff1673ffffffffffffffffffffffffffffffffffffffff16815260200191505060405180910390f35b34801561122957600080fd5b506112326132ac565b6040518082815260200191505060405180910390f35b34801561125457600080fd5b506113ce6004803603810190808060e00190600780602002604051908101604052809291908260076020028082843782019150505050509192919290806101200190600980602002604051908101604052809291908260096020028082843782019150505050509192919290803560ff169060200190929190803560ff169060200190929190803560ff169060200190929190803560ff169060200190929190803590602001908201803590602001908080601f0160208091040260200160405190810160405280939291908181526020018383808284378201915050505050509192919290803590602001908201803590602001908080601f0160208091040260200160405190810160405280939291908181526020018383808284378201915050505050509192919290803590602001908201803590602001908080601f01602080910402602001604051908101604052809392919081815260200183838082843782019150505050505091929192905050506132b2565b60405180826000191660001916815260200191505060405180910390f35b3480156113f857600080fd5b5061141b6004803603810190808035600019169060200190929190505050613556565b604051808215151515815260200191505060405180910390f35b34801561144157600080fd5b5061144a613576565b604051808273ffffffffffffffffffffffffffffffffffffffff1673ffffffffffffffffffffffffffffffffffffffff16815260200191505060405180910390f35b34801561149857600080fd5b506114a161359c565b604051808273ffffffffffffffffffffffffffffffffffffffff1673ffffffffffffffffffffffffffffffffffffffff16815260200191505060405180910390f35b3480156114ef57600080fd5b506116926004803603810190808060e00190600780602002604051908101604052809291908260076020028082843782019150505050509192919290806101200190600980602002604051908101604052809291908260096020028082843782019150505050509192919290803560ff169060200190929190803560ff169060200190929190803560ff169060200190929190803560ff169060200190929190803590602001908201803590602001908080601f0160208091040260200160405190810160405280939291908181526020018383808284378201915050505050509192919290803590602001908201803590602001908080601f0160208091040260200160405190810160405280939291908181526020018383808284378201915050505050509192919290803590602001908201803590602001908080601f0160208091040260200160405190810160405280939291908181526020018383808284378201915050505050509192919290803560ff169060200190929190803560001916906020019092919080356000191690602001909291905050506135c2565b005b61193a600480360381019080806101c00190600e806020026040519081016040528092919082600e6020028082843782019150505050509192919290806102400190601280602002604051908101604052809291908260126020028082843782019150505050509192919290806101000190600880602002604051908101604052809291908260086020028082843782019150505050509192919290803590602001908201803590602001908080601f0160208091040260200160405190810160405280939291908181526020018383808284378201915050505050509192919290803590602001908201803590602001908080601f0160208091040260200160405190810160405280939291908181526020018383808284378201915050505050509192919290803590602001908201803590602001908080601f0160208091040260200160405190810160405280939291908181526020018383808284378201915050505050509192919290803590602001908201803590602001908080601f0160208091040260200160405190810160405280939291908181526020018383808284378201915050505050509192919290803590602001908201803590602001908080601f0160208091040260200160405190810160405280939291908181526020018383808284378201915050505050509192919290803590602001908201803590602001908080601f016020809104026020016040519081016040528093929190818152602001838380828437820191505050505050919291929080604001906002806020026040519081016040528092919082600260200280828437820191505050505091929192908060a0019060058060200260405190810160405280929190826005602002808284378201915050505050919291929050505061388a565b005b34801561194857600080fd5b50611ac26004803603810190808060e00190600780602002604051908101604052809291908260076020028082843782019150505050509192919290806101200190600980602002604051908101604052809291908260096020028082843782019150505050509192919290803560ff169060200190929190803560ff169060200190929190803560ff169060200190929190803560ff169060200190929190803590602001908201803590602001908080601f0160208091040260200160405190810160405280939291908181526020018383808284378201915050505050509192919290803590602001908201803590602001908080601f0160208091040260200160405190810160405280939291908181526020018383808284378201915050505050509192919290803590602001908201803590602001908080601f0160208091040260200160405190810160405280939291908181526020018383808284378201915050505050509192919290505050613f91565b604051808215151515815260200191505060405180910390f35b348015611ae857600080fd5b50611af1614241565b6040518082815260200191505060405180910390f35b348015611b1357600080fd5b50611d5c600480360381019080806101c00190600e806020026040519081016040528092919082600e6020028082843782019150505050509192919290806102400190601280602002604051908101604052809291908260126020028082843782019150505050509192919290806101000190600880602002604051908101604052809291908260086020028082843782019150505050509192919290803590602001908201803590602001908080601f0160208091040260200160405190810160405280939291908181526020018383808284378201915050505050509192919290803590602001908201803590602001908080601f0160208091040260200160405190810160405280939291908181526020018383808284378201915050505050509192919290803590602001908201803590602001908080601f0160208091040260200160405190810160405280939291908181526020018383808284378201915050505050509192919290803590602001908201803590602001908080601f0160208091040260200160405190810160405280939291908181526020018383808284378201915050505050509192919290803590602001908201803590602001908080601f0160208091040260200160405190810160405280939291908181526020018383808284378201915050505050509192919290803590602001908201803590602001908080601f0160208091040260200160405190810160405280939291908181526020018383808284378201915050505050509192919290505050614247565b6040518082815260200191505060405180910390f35b348015611d7e57600080fd5b50611da16004803603810190808035600019169060200190929190505050614896565b604051808215151515815260200191505060405180910390f35b348015611dc757600080fd5b50611dfc600480360381019080803573ffffffffffffffffffffffffffffffffffffffff1690602001909291905050506148b6565b005b600360009054906101000a900473ffffffffffffffffffffffffffffffffffffffff1681565b60006060600083518551016040519080825280601f01601f191660200182016040528015611e615781602001602082028038833980820191505090505b509150602082019050611e748185614a0e565b9050611e808186614a0e565b506000604051835160208501895afa925082925050509392505050565b600060019054906101000a900473ffffffffffffffffffffffffffffffffffffffff1673ffffffffffffffffffffffffffffffffffffffff163373ffffffffffffffffffffffffffffffffffffffff16141515611ef957600080fd5b8060068190555050565b600060019054906101000a900473ffffffffffffffffffffffffffffffffffffffff1673ffffffffffffffffffffffffffffffffffffffff163373ffffffffffffffffffffffffffffffffffffffff16141515611f5f57600080fd5b8060078190555050565b6060611f76848484614a5a565b8390509392505050565b60075481565b606080600060146040519080825280601f01601f191660200182016040528015611fbf5781602001602082028038833980820191505090505b509150602082019050611fd28185614d02565b508192505050919050565b606080600083516040519080825280601f01601f1916602001820160405280156120165781602001602082028038833980820191505090505b5091506020820190506120298185614a0e565b508192505050919050565b60006122c96102e0604051908101604052808c600060078110151561205557fe5b602002015173ffffffffffffffffffffffffffffffffffffffff1681526020018c600160078110151561208457fe5b602002015173ffffffffffffffffffffffffffffffffffffffff1681526020018c60026007811015156120b357fe5b602002015173ffffffffffffffffffffffffffffffffffffffff1681526020018b60006009811015156120e257fe5b602002015181526020018b60016009811015156120fb57fe5b602002015181526020018b600260098110151561211457fe5b602002015181526020018b600360098110151561212d57fe5b602002015181526020018c600360078110151561214657fe5b602002015173ffffffffffffffffffffffffffffffffffffffff1681526020018a600181111561217257fe5b815260200189600181111561218357fe5b815260200188600181111561219457fe5b81526020018c60046007811015156121a857fe5b602002015173ffffffffffffffffffffffffffffffffffffffff1681526020018760018111156121d457fe5b81526020018681526020018581526020018c60056007811015156121f457fe5b602002015173ffffffffffffffffffffffffffffffffffffffff1681526020018481526020018c600660078110151561222957fe5b602002015173ffffffffffffffffffffffffffffffffffffffff1681526020018b600460098110151561225857fe5b602002015181526020018b600560098110151561227157fe5b602002015181526020018b600660098110151561228a57fe5b602002015181526020018b60076009811015156122a357fe5b602002015181526020018b60086009811015156122bc57fe5b6020020151815250614d38565b90509998505050505050505050565b600060019054906101000a900473ffffffffffffffffffffffffffffffffffffffff1673ffffffffffffffffffffffffffffffffffffffff163373ffffffffffffffffffffffffffffffffffffffff1614151561233457600080fd5b80600860006101000a81548173ffffffffffffffffffffffffffffffffffffffff021916908373ffffffffffffffffffffffffffffffffffffffff16021790555050565b6000808451111561238f5761238e858486614a5a565b5b6000825111156123a5576123a4838684614a5a565b5b6123af8584614d6d565b9050949350505050565b60006123c361720e565b6102e0604051908101604052808f60006007811015156123df57fe5b602002015173ffffffffffffffffffffffffffffffffffffffff1681526020018f600160078110151561240e57fe5b602002015173ffffffffffffffffffffffffffffffffffffffff1681526020018f600260078110151561243d57fe5b602002015173ffffffffffffffffffffffffffffffffffffffff1681526020018e600060098110151561246c57fe5b602002015181526020018e600160098110151561248557fe5b602002015181526020018e600260098110151561249e57fe5b602002015181526020018e60036009811015156124b757fe5b602002015181526020018f60036007811015156124d057fe5b602002015173ffffffffffffffffffffffffffffffffffffffff1681526020018d60018111156124fc57fe5b81526020018c600181111561250d57fe5b81526020018b600181111561251e57fe5b81526020018f600460078110151561253257fe5b602002015173ffffffffffffffffffffffffffffffffffffffff1681526020018a600181111561255e57fe5b81526020018981526020018881526020018f600560078110151561257e57fe5b602002015173ffffffffffffffffffffffffffffffffffffffff1681526020018781526020018f60066007811015156125b357fe5b602002015173ffffffffffffffffffffffffffffffffffffffff1681526020018e60046009811015156125e257fe5b602002015181526020018e60056009811015156125fb57fe5b602002015181526020018e600660098110151561261457fe5b602002015181526020018e600760098110151561262d57fe5b602002015181526020018e600860098110151561264657fe5b6020020151815250905061269261265c82614ddc565b61266583614e33565b836060604051908101604052808a60ff168152602001896000191681526020018860001916815250614e8a565b9150509c9b505050505050505050505050565b60006126b58787878787876150b9565b90509695505050505050565b600860009054906101000a900473ffffffffffffffffffffffffffffffffffffffff1681565b600061297c6102e0604051908101604052808c600060078110151561270857fe5b602002015173ffffffffffffffffffffffffffffffffffffffff1681526020018c600160078110151561273757fe5b602002015173ffffffffffffffffffffffffffffffffffffffff1681526020018c600260078110151561276657fe5b602002015173ffffffffffffffffffffffffffffffffffffffff1681526020018b600060098110151561279557fe5b602002015181526020018b60016009811015156127ae57fe5b602002015181526020018b60026009811015156127c757fe5b602002015181526020018b60036009811015156127e057fe5b602002015181526020018c60036007811015156127f957fe5b602002015173ffffffffffffffffffffffffffffffffffffffff1681526020018a600181111561282557fe5b815260200189600181111561283657fe5b815260200188600181111561284757fe5b81526020018c600460078110151561285b57fe5b602002015173ffffffffffffffffffffffffffffffffffffffff16815260200187600181111561288757fe5b81526020018681526020018581526020018c60056007811015156128a757fe5b602002015173ffffffffffffffffffffffffffffffffffffffff1681526020018481526020018c60066007811015156128dc57fe5b602002015173ffffffffffffffffffffffffffffffffffffffff1681526020018b600460098110151561290b57fe5b602002015181526020018b600560098110151561292457fe5b602002015181526020018b600660098110151561293d57fe5b602002015181526020018b600760098110151561295657fe5b602002015181526020018b600860098110151561296f57fe5b6020020151815250615174565b90509998505050505050505050565b600061299561720e565b61299d61720e565b6102e0604051908101604052808d6000600e811015156129b957fe5b602002015173ffffffffffffffffffffffffffffffffffffffff1681526020018d6001600e811015156129e857fe5b602002015173ffffffffffffffffffffffffffffffffffffffff1681526020018d6002600e81101515612a1757fe5b602002015173ffffffffffffffffffffffffffffffffffffffff1681526020018c6000601281101515612a4657fe5b602002015181526020018c6001601281101515612a5f57fe5b602002015181526020018c6002601281101515612a7857fe5b602002015181526020018c6003601281101515612a9157fe5b602002015181526020018d6003600e81101515612aaa57fe5b602002015173ffffffffffffffffffffffffffffffffffffffff1681526020018b6000600881101515612ad957fe5b602002015160ff166001811115612aec57fe5b6001811115612af757fe5b81526020018b6001600881101515612b0b57fe5b602002015160ff166001811115612b1e57fe5b6001811115612b2957fe5b81526020018b6002600881101515612b3d57fe5b602002015160ff166001811115612b5057fe5b6001811115612b5b57fe5b81526020018d6004600e81101515612b6f57fe5b602002015173ffffffffffffffffffffffffffffffffffffffff1681526020018b6003600881101515612b9e57fe5b602002015160ff166001811115612bb157fe5b6001811115612bbc57fe5b81526020018a81526020018881526020018d6005600e81101515612bdc57fe5b602002015173ffffffffffffffffffffffffffffffffffffffff1681526020018681526020018d6006600e81101515612c1157fe5b602002015173ffffffffffffffffffffffffffffffffffffffff1681526020018c6004601281101515612c4057fe5b602002015181526020018c6005601281101515612c5957fe5b602002015181526020018c6006601281101515612c7257fe5b602002015181526020018c6007601281101515612c8b57fe5b602002015181526020018c6008601281101515612ca457fe5b602002015181525091506102e0604051908101604052808d6007600e81101515612cca57fe5b602002015173ffffffffffffffffffffffffffffffffffffffff1681526020018d6008600e81101515612cf957fe5b602002015173ffffffffffffffffffffffffffffffffffffffff1681526020018d6009600e81101515612d2857fe5b602002015173ffffffffffffffffffffffffffffffffffffffff1681526020018c6009601281101515612d5757fe5b602002015181526020018c600a601281101515612d7057fe5b602002015181526020018c600b601281101515612d8957fe5b602002015181526020018c600c601281101515612da257fe5b602002015181526020018d600a600e81101515612dbb57fe5b602002015173ffffffffffffffffffffffffffffffffffffffff1681526020018b6004600881101515612dea57fe5b602002015160ff166001811115612dfd57fe5b6001811115612e0857fe5b81526020018b6005600881101515612e1c57fe5b602002015160ff166001811115612e2f57fe5b6001811115612e3a57fe5b81526020018b6006600881101515612e4e57fe5b602002015160ff166001811115612e6157fe5b6001811115612e6c57fe5b81526020018d600b600e81101515612e8057fe5b602002015173ffffffffffffffffffffffffffffffffffffffff1681526020018b6007600881101515612eaf57fe5b602002015160ff166001811115612ec257fe5b6001811115612ecd57fe5b81526020018981526020018781526020018d600c600e81101515612eed57fe5b602002015173ffffffffffffffffffffffffffffffffffffffff1681526020018581526020018d600d600e81101515612f2257fe5b602002015173ffffffffffffffffffffffffffffffffffffffff1681526020018c600d601281101515612f5157fe5b602002015181526020018c600e601281101515612f6a57fe5b602002015181526020018c600f601281101515612f8357fe5b602002015181526020018c6010601281101515612f9c57fe5b602002015181526020018c6011601281101515612fb557fe5b60200201518152509050612fc98282615380565b925050509998505050505050505050565b612fe261720e565b6102e0604051908101604052808c6000600781101515612ffe57fe5b602002015173ffffffffffffffffffffffffffffffffffffffff1681526020018c600160078110151561302d57fe5b602002015173ffffffffffffffffffffffffffffffffffffffff1681526020018c600260078110151561305c57fe5b602002015173ffffffffffffffffffffffffffffffffffffffff1681526020018b600060098110151561308b57fe5b602002015181526020018b60016009811015156130a457fe5b602002015181526020018b60026009811015156130bd57fe5b602002015181526020018b60036009811015156130d657fe5b602002015181526020018c60036007811015156130ef57fe5b602002015173ffffffffffffffffffffffffffffffffffffffff1681526020018a600181111561311b57fe5b815260200189600181111561312c57fe5b815260200188600181111561313d57fe5b81526020018c600460078110151561315157fe5b602002015173ffffffffffffffffffffffffffffffffffffffff16815260200187600181111561317d57fe5b81526020018681526020018581526020018c600560078110151561319d57fe5b602002015173ffffffffffffffffffffffffffffffffffffffff1681526020018481526020018c60066007811015156131d257fe5b602002015173ffffffffffffffffffffffffffffffffffffffff1681526020018b600460098110151561320157fe5b602002015181526020018b600560098110151561321a57fe5b602002015181526020018b600660098110151561323357fe5b602002015181526020018b600760098110151561324c57fe5b602002015181526020018b600860098110151561326557fe5b6020020151815250905061327981836156c3565b5050505050505050505050565b600260009054906101000a900473ffffffffffffffffffffffffffffffffffffffff1681565b60065481565b60006135476102e0604051908101604052808c60006007811015156132d357fe5b602002015173ffffffffffffffffffffffffffffffffffffffff1681526020018c600160078110151561330257fe5b602002015173ffffffffffffffffffffffffffffffffffffffff1681526020018c600260078110151561333157fe5b602002015173ffffffffffffffffffffffffffffffffffffffff1681526020018b600060098110151561336057fe5b602002015181526020018b600160098110151561337957fe5b602002015181526020018b600260098110151561339257fe5b602002015181526020018b60036009811015156133ab57fe5b602002015181526020018c60036007811015156133c457fe5b602002015173ffffffffffffffffffffffffffffffffffffffff1681526020018a60018111156133f057fe5b815260200189600181111561340157fe5b815260200188600181111561341257fe5b81526020018c600460078110151561342657fe5b602002015173ffffffffffffffffffffffffffffffffffffffff16815260200187600181111561345257fe5b81526020018681526020018581526020018c600560078110151561347257fe5b602002015173ffffffffffffffffffffffffffffffffffffffff1681526020018481526020018c60066007811015156134a757fe5b602002015173ffffffffffffffffffffffffffffffffffffffff1681526020018b60046009811015156134d657fe5b602002015181526020018b60056009811015156134ef57fe5b602002015181526020018b600660098110151561350857fe5b602002015181526020018b600760098110151561352157fe5b602002015181526020018b600860098110151561353a57fe5b6020020151815250614ddc565b90509998505050505050505050565b60046020528060005260406000206000915054906101000a900460ff1681565b600060019054906101000a900473ffffffffffffffffffffffffffffffffffffffff1681565b600160009054906101000a900473ffffffffffffffffffffffffffffffffffffffff1681565b61387c6102e0604051908101604052808e60006007811015156135e157fe5b602002015173ffffffffffffffffffffffffffffffffffffffff1681526020018e600160078110151561361057fe5b602002015173ffffffffffffffffffffffffffffffffffffffff1681526020018e600260078110151561363f57fe5b602002015173ffffffffffffffffffffffffffffffffffffffff1681526020018d600060098110151561366e57fe5b602002015181526020018d600160098110151561368757fe5b602002015181526020018d60026009811015156136a057fe5b602002015181526020018d60036009811015156136b957fe5b602002015181526020018e60036007811015156136d257fe5b602002015173ffffffffffffffffffffffffffffffffffffffff1681526020018c60018111156136fe57fe5b81526020018b600181111561370f57fe5b81526020018a600181111561372057fe5b81526020018e600460078110151561373457fe5b602002015173ffffffffffffffffffffffffffffffffffffffff16815260200189600181111561376057fe5b81526020018881526020018781526020018e600560078110151561378057fe5b602002015173ffffffffffffffffffffffffffffffffffffffff1681526020018681526020018e60066007811015156137b557fe5b602002015173ffffffffffffffffffffffffffffffffffffffff1681526020018d60046009811015156137e457fe5b602002015181526020018d60056009811015156137fd57fe5b602002015181526020018d600660098110151561381657fe5b602002015181526020018d600760098110151561382f57fe5b602002015181526020018d600860098110151561384857fe5b60200201518152506060604051908101604052808660ff168152602001856000191681526020018460001916815250615b74565b505050505050505050505050565b613f846102e0604051908101604052808d6000600e811015156138a957fe5b602002015173ffffffffffffffffffffffffffffffffffffffff1681526020018d6001600e811015156138d857fe5b602002015173ffffffffffffffffffffffffffffffffffffffff1681526020018d6002600e8110151561390757fe5b602002015173ffffffffffffffffffffffffffffffffffffffff1681526020018c600060128110151561393657fe5b602002015181526020018c600160128110151561394f57fe5b602002015181526020018c600260128110151561396857fe5b602002015181526020018c600360128110151561398157fe5b602002015181526020018d6003600e8110151561399a57fe5b602002015173ffffffffffffffffffffffffffffffffffffffff1681526020018b60006008811015156139c957fe5b602002015160ff1660018111156139dc57fe5b60018111156139e757fe5b81526020018b60016008811015156139fb57fe5b602002015160ff166001811115613a0e57fe5b6001811115613a1957fe5b81526020018b6002600881101515613a2d57fe5b602002015160ff166001811115613a4057fe5b6001811115613a4b57fe5b81526020018d6004600e81101515613a5f57fe5b602002015173ffffffffffffffffffffffffffffffffffffffff1681526020018b6003600881101515613a8e57fe5b602002015160ff166001811115613aa157fe5b6001811115613aac57fe5b81526020018a81526020018881526020018d6005600e81101515613acc57fe5b602002015173ffffffffffffffffffffffffffffffffffffffff1681526020018681526020018d6006600e81101515613b0157fe5b602002015173ffffffffffffffffffffffffffffffffffffffff1681526020018c6004601281101515613b3057fe5b602002015181526020018c6005601281101515613b4957fe5b602002015181526020018c6006601281101515613b6257fe5b602002015181526020018c6007601281101515613b7b57fe5b602002015181526020018c6008601281101515613b9457fe5b6020020151815250606060405190810160405280856000600281101515613bb757fe5b602002015160ff168152602001846000600581101515613bd357fe5b6020020151600019168152602001846001600581101515613bf057fe5b6020020151600019168152506102e0604051908101604052808f6007600e81101515613c1857fe5b602002015173ffffffffffffffffffffffffffffffffffffffff1681526020018f6008600e81101515613c4757fe5b602002015173ffffffffffffffffffffffffffffffffffffffff1681526020018f6009600e81101515613c7657fe5b602002015173ffffffffffffffffffffffffffffffffffffffff1681526020018e6009601281101515613ca557fe5b602002015181526020018e600a601281101515613cbe57fe5b602002015181526020018e600b601281101515613cd757fe5b602002015181526020018e600c601281101515613cf057fe5b602002015181526020018f600a600e81101515613d0957fe5b602002015173ffffffffffffffffffffffffffffffffffffffff1681526020018d6004600881101515613d3857fe5b602002015160ff166001811115613d4b57fe5b6001811115613d5657fe5b81526020018d6005600881101515613d6a57fe5b602002015160ff166001811115613d7d57fe5b6001811115613d8857fe5b81526020018d6006600881101515613d9c57fe5b602002015160ff166001811115613daf57fe5b6001811115613dba57fe5b81526020018f600b600e81101515613dce57fe5b602002015173ffffffffffffffffffffffffffffffffffffffff1681526020018d6007600881101515613dfd57fe5b602002015160ff166001811115613e1057fe5b6001811115613e1b57fe5b81526020018b81526020018981526020018f600c600e81101515613e3b57fe5b602002015173ffffffffffffffffffffffffffffffffffffffff1681526020018781526020018f600d600e81101515613e7057fe5b602002015173ffffffffffffffffffffffffffffffffffffffff1681526020018e600d601281101515613e9f57fe5b602002015181526020018e600e601281101515613eb857fe5b602002015181526020018e600f601281101515613ed157fe5b602002015181526020018e6010601281101515613eea57fe5b602002015181526020018e6011601281101515613f0357fe5b6020020151815250606060405190810160405280876001600281101515613f2657fe5b602002015160ff168152602001866002600581101515613f4257fe5b6020020151600019168152602001866003600581101515613f5f57fe5b602002015160001916815250856004600581101515613f7a57fe5b6020020151615c2a565b5050505050505050505050565b6000613f9b61720e565b6102e0604051908101604052808c6000600781101515613fb757fe5b602002015173ffffffffffffffffffffffffffffffffffffffff1681526020018c6001600781101515613fe657fe5b602002015173ffffffffffffffffffffffffffffffffffffffff1681526020018c600260078110151561401557fe5b602002015173ffffffffffffffffffffffffffffffffffffffff1681526020018b600060098110151561404457fe5b602002015181526020018b600160098110151561405d57fe5b602002015181526020018b600260098110151561407657fe5b602002015181526020018b600360098110151561408f57fe5b602002015181526020018c60036007811015156140a857fe5b602002015173ffffffffffffffffffffffffffffffffffffffff1681526020018a60018111156140d457fe5b81526020018960018111156140e557fe5b81526020018860018111156140f657fe5b81526020018c600460078110151561410a57fe5b602002015173ffffffffffffffffffffffffffffffffffffffff16815260200187600181111561413657fe5b81526020018681526020018581526020018c600560078110151561415657fe5b602002015173ffffffffffffffffffffffffffffffffffffffff1681526020018481526020018c600660078110151561418b57fe5b602002015173ffffffffffffffffffffffffffffffffffffffff1681526020018b60046009811015156141ba57fe5b602002015181526020018b60056009811015156141d357fe5b602002015181526020018b60066009811015156141ec57fe5b602002015181526020018b600760098110151561420557fe5b602002015181526020018b600860098110151561421e57fe5b60200201518152509050614231816164fb565b9150509998505050505050505050565b61271081565b600061425161720e565b61425961720e565b6102e0604051908101604052808d6000600e8110151561427557fe5b602002015173ffffffffffffffffffffffffffffffffffffffff1681526020018d6001600e811015156142a457fe5b602002015173ffffffffffffffffffffffffffffffffffffffff1681526020018d6002600e811015156142d357fe5b602002015173ffffffffffffffffffffffffffffffffffffffff1681526020018c600060128110151561430257fe5b602002015181526020018c600160128110151561431b57fe5b602002015181526020018c600260128110151561433457fe5b602002015181526020018c600360128110151561434d57fe5b602002015181526020018d6003600e8110151561436657fe5b602002015173ffffffffffffffffffffffffffffffffffffffff1681526020018b600060088110151561439557fe5b602002015160ff1660018111156143a857fe5b60018111156143b357fe5b81526020018b60016008811015156143c757fe5b602002015160ff1660018111156143da57fe5b60018111156143e557fe5b81526020018b60026008811015156143f957fe5b602002015160ff16600181111561440c57fe5b600181111561441757fe5b81526020018d6004600e8110151561442b57fe5b602002015173ffffffffffffffffffffffffffffffffffffffff1681526020018b600360088110151561445a57fe5b602002015160ff16600181111561446d57fe5b600181111561447857fe5b81526020018a81526020018881526020018d6005600e8110151561449857fe5b602002015173ffffffffffffffffffffffffffffffffffffffff1681526020018681526020018d6006600e811015156144cd57fe5b602002015173ffffffffffffffffffffffffffffffffffffffff1681526020018c60046012811015156144fc57fe5b602002015181526020018c600560128110151561451557fe5b602002015181526020018c600660128110151561452e57fe5b602002015181526020018c600760128110151561454757fe5b602002015181526020018c600860128110151561456057fe5b602002015181525091506102e0604051908101604052808d6007600e8110151561458657fe5b602002015173ffffffffffffffffffffffffffffffffffffffff1681526020018d6008600e811015156145b557fe5b602002015173ffffffffffffffffffffffffffffffffffffffff1681526020018d6009600e811015156145e457fe5b602002015173ffffffffffffffffffffffffffffffffffffffff1681526020018c600960128110151561461357fe5b602002015181526020018c600a60128110151561462c57fe5b602002015181526020018c600b60128110151561464557fe5b602002015181526020018c600c60128110151561465e57fe5b602002015181526020018d600a600e8110151561467757fe5b602002015173ffffffffffffffffffffffffffffffffffffffff1681526020018b60046008811015156146a657fe5b602002015160ff1660018111156146b957fe5b60018111156146c457fe5b81526020018b60056008811015156146d857fe5b602002015160ff1660018111156146eb57fe5b60018111156146f657fe5b81526020018b600660088110151561470a57fe5b602002015160ff16600181111561471d57fe5b600181111561472857fe5b81526020018d600b600e8110151561473c57fe5b602002015173ffffffffffffffffffffffffffffffffffffffff1681526020018b600760088110151561476b57fe5b602002015160ff16600181111561477e57fe5b600181111561478957fe5b81526020018981526020018781526020018d600c600e811015156147a957fe5b602002015173ffffffffffffffffffffffffffffffffffffffff1681526020018581526020018d600d600e811015156147de57fe5b602002015173ffffffffffffffffffffffffffffffffffffffff1681526020018c600d60128110151561480d57fe5b602002015181526020018c600e60128110151561482657fe5b602002015181526020018c600f60128110151561483f57fe5b602002015181526020018c601060128110151561485857fe5b602002015181526020018c601160128110151561487157fe5b6020020151815250905061488582826165b9565b925050509998505050505050505050565b60056020528060005260406000206000915054906101000a900460ff1681565b600060019054906101000a900473ffffffffffffffffffffffffffffffffffffffff1673ffffffffffffffffffffffffffffffffffffffff163373ffffffffffffffffffffffffffffffffffffffff1614151561491257600080fd5b600073ffffffffffffffffffffffffffffffffffffffff168173ffffffffffffffffffffffffffffffffffffffff161415151561494e57600080fd5b8073ffffffffffffffffffffffffffffffffffffffff16600060019054906101000a900473ffffffffffffffffffffffffffffffffffffffff1673ffffffffffffffffffffffffffffffffffffffff167f8be0079c531659141344cd1fd0a4f28419497f9722a3daafe3b4186f6b6457e060405160405180910390a380600060016101000a81548173ffffffffffffffffffffffffffffffffffffffff021916908373ffffffffffffffffffffffffffffffffffffffff16021790555050565b60008082511115614a5157815180602001830160208401855b60018383101415614a475781518152602082019150602081019050614a27565b8387019650505050505b82905092915050565b600080600084518651141515614a6f57600080fd5b83518651141515614a7f57600080fd5b60208651811515614a8c57fe5b04925060208302915082602083811515614aa257fe5b04141515614aac57fe5b600090505b82811015614ae557806001016020028085015181870151811682890151821916178289015250508080600101915050614ab1565b6000831115614b155782905080600101602002808501518187015181168289015182191617828901525050614cfa565b8190505b8551811015614cf9578481815181101515614b3057fe5b9060200101517f010000000000000000000000000000000000000000000000000000000000000090047f0100000000000000000000000000000000000000000000000000000000000000028482815181101515614b8957fe5b9060200101517f010000000000000000000000000000000000000000000000000000000000000090047f010000000000000000000000000000000000000000000000000000000000000002168682815181101515614be357fe5b9060200101517f010000000000000000000000000000000000000000000000000000000000000090047f01000000000000000000000000000000000000000000000000000000000000000260ff7f0100000000000000000000000000000000000000000000000000000000000000028684815181101515614c6057fe5b9060200101517f010000000000000000000000000000000000000000000000000000000000000090047f0100000000000000000000000000000000000000000000000000000000000000021816178682815181101515614cbc57fe5b9060200101907effffffffffffffffffffffffffffffffffffffffffffffffffffffffffffff1916908160001a9053508080600101915050614b19565b5b505050505050565b60008060608373ffffffffffffffffffffffffffffffffffffffff169060020a0290508084526014840193508391505092915050565b6000614d66826101200151836101400151846102400151856102600151866102800151876102a001516150b9565b9050919050565b6000806001905083518351811460018114614d8b5760009250614dd0565b600160208701838101602088015b600284838510011415614dcb5780518351141515614dba5760009650600093505b602083019250602081019050614d99565b505050505b50508091505092915050565b6000614de782615174565b60405180807f19457468657265756d205369676e6564204d6573736167653a0a333200000000815250601c01826000191660001916815260200191505060405180910390209050919050565b6000614e3e82615174565b60405180807f194b6c6179746e205369676e6564204d6573736167653a0a3332000000000000815250601a01826000191660001916815260200191505060405180910390209050919050565b6000614e95836164fb565b1515614ea457600090506150b1565b60046000866000191660001916815260200190815260200160002060009054906101000a900460ff1615614edb57600090506150b1565b60056000866000191660001916815260200190815260200160002060009054906101000a900460ff1615614f1257600190506150b1565b826020015173ffffffffffffffffffffffffffffffffffffffff16600186846000015185602001518660400151604051600081526020016040526040518085600019166000191681526020018460ff1660ff1681526020018360001916600019168152602001826000191660001916815260200194505050505060206040516020810390808403906000865af1158015614fb0573d6000803e3d6000fd5b5050506020604051035173ffffffffffffffffffffffffffffffffffffffff161415614fdf57600190506150b1565b826020015173ffffffffffffffffffffffffffffffffffffffff16600185846000015185602001518660400151604051600081526020016040526040518085600019166000191681526020018460ff1660ff1681526020018360001916600019168152602001826000191660001916815260200194505050505060206040516020810390808403906000865af115801561507d573d6000803e3d6000fd5b5050506020604051035173ffffffffffffffffffffffffffffffffffffffff1614156150ac57600190506150b1565b600090505b949350505050565b600080600060018111156150c957fe5b8760018111156150d557fe5b14156150e357859150615169565b6001808111156150ef57fe5b8760018111156150fb57fe5b141561516857615126615117866151124288616674565b61668d565b6151218587616674565b6166c8565b905060018081111561513457fe5b88600181111561514057fe5b1415615157576151508682616674565b9150615169565b61516186826166e3565b9150615169565b5b509695505050505050565b6000806060600061518485616701565b9250826040519080825280601f01601f1916602001820160405280156151b95781602001602082028038833980820191505090505b5091506020820190506151d0818660000151614d02565b90506151e0818660200151614d02565b90506151f0818660400151614d02565b9050615200818660600151616725565b9050615210818660800151616725565b9050615220818660a00151616725565b9050615230818660c00151616725565b9050615240818660e00151614d02565b905061525c81866101000151600181111561525757fe5b616739565b905061527881866101200151600181111561527357fe5b616739565b905061529481866101400151600181111561528f57fe5b616739565b90506152a581866101600151614d02565b90506152c18186610180015160018111156152bc57fe5b616739565b90506152d281866101a00151614a0e565b90506152e381866101c00151614a0e565b90506152f481866101e00151614d02565b905061530581866102000151614a0e565b905061531681866102200151614d02565b905061532781866102400151616725565b905061533881866102600151616725565b905061534981866102800151616725565b905061535a81866102a00151616725565b905061536b81866102c00151616725565b90508260208301209350839350505050919050565b600080600181111561538e57fe5b836101200151600181111561539f57fe5b1480156153c657506001808111156153b357fe5b82610120015160018111156153c457fe5b145b80156153f1575081610100015160018111156153de57fe5b83610100015160018111156153ef57fe5b145b8015615432575081610220015173ffffffffffffffffffffffffffffffffffffffff1683610220015173ffffffffffffffffffffffffffffffffffffffff16145b80156154ac5750600073ffffffffffffffffffffffffffffffffffffffff16826040015173ffffffffffffffffffffffffffffffffffffffff1614806154ab5750826020015173ffffffffffffffffffffffffffffffffffffffff16826040015173ffffffffffffffffffffffffffffffffffffffff16145b5b80156155265750600073ffffffffffffffffffffffffffffffffffffffff16836040015173ffffffffffffffffffffffffffffffffffffffff1614806155255750816020015173ffffffffffffffffffffffffffffffffffffffff16836040015173ffffffffffffffffffffffffffffffffffffffff16145b5b80156156175750600073ffffffffffffffffffffffffffffffffffffffff168260e0015173ffffffffffffffffffffffffffffffffffffffff1614801561559e5750600073ffffffffffffffffffffffffffffffffffffffff168360e0015173ffffffffffffffffffffffffffffffffffffffff1614155b806156165750600073ffffffffffffffffffffffffffffffffffffffff168260e0015173ffffffffffffffffffffffffffffffffffffffff16141580156156155750600073ffffffffffffffffffffffffffffffffffffffff168360e0015173ffffffffffffffffffffffffffffffffffffffff16145b5b5b8015615658575081610160015173ffffffffffffffffffffffffffffffffffffffff1683610160015173ffffffffffffffffffffffffffffffffffffffff16145b80156156835750816101800151600181111561567057fe5b836101800151600181111561568157fe5b145b801561569f575061569e836102800151846102a0015161674d565b5b80156156bb57506156ba826102800151836102a0015161674d565b5b905092915050565b6000826020015173ffffffffffffffffffffffffffffffffffffffff163373ffffffffffffffffffffffffffffffffffffffff1614151561570357600080fd5b61570c83614ddc565b905060056000826000191660001916815260200190815260200160002060009054906101000a900460ff1615151561574357600080fd5b600160056000836000191660001916815260200190815260200160002060006101000a81548160ff0219169083151502179055508260e0015173ffffffffffffffffffffffffffffffffffffffff16836020015173ffffffffffffffffffffffffffffffffffffffff1682600019167f90c7f9f5b58c15f0f635bfb99f55d3d78fdbef3559e7d8abf5c81052a527662286600001518760400151886060015189608001518a60a001518b60c001518c61010001518d61012001518e61014001518f6101600151604051808b73ffffffffffffffffffffffffffffffffffffffff1673ffffffffffffffffffffffffffffffffffffffff1681526020018a73ffffffffffffffffffffffffffffffffffffffff1673ffffffffffffffffffffffffffffffffffffffff16815260200189815260200188815260200187815260200186815260200185600181111561589557fe5b60ff1681526020018460018111156158a957fe5b60ff1681526020018360018111156158bd57fe5b60ff1681526020018273ffffffffffffffffffffffffffffffffffffffff1673ffffffffffffffffffffffffffffffffffffffff1681526020019a505050505050505050505060405180910390a480600019167fe55393c778364e440d958b39ac1debd99dcfae3775a8a04d1e79124adf6a2d08846101800151856101a00151866101c00151876101e001518861020001518961022001518a61024001518b61026001518c61028001518d6102a001518e6102c001518e604051808d600181111561598457fe5b60ff16815260200180602001806020018c73ffffffffffffffffffffffffffffffffffffffff1673ffffffffffffffffffffffffffffffffffffffff168152602001806020018b73ffffffffffffffffffffffffffffffffffffffff1673ffffffffffffffffffffffffffffffffffffffff1681526020018a81526020018981526020018881526020018781526020018681526020018515151515815260200184810384528f818151815260200191508051906020019080838360005b83811015615a5c578082015181840152602081019050615a41565b50505050905090810190601f168015615a895780820380516001836020036101000a031916815260200191505b5084810383528e818151815260200191508051906020019080838360005b83811015615ac2578082015181840152602081019050615aa7565b50505050905090810190601f168015615aef5780820380516001836020036101000a031916815260200191505b5084810382528c818151815260200191508051906020019080838360005b83811015615b28578082015181840152602081019050615b0d565b50505050905090810190601f168015615b555780820380516001836020036101000a031916815260200191505b509f5050505050505050505050505050505060405180910390a2505050565b6000615b808383616770565b9050826020015173ffffffffffffffffffffffffffffffffffffffff163373ffffffffffffffffffffffffffffffffffffffff16141515615bc057600080fd5b600160046000836000191660001916815260200190815260200160002060006101000a81548160ff02191690831515021790555080600019167f5152abf959f6564662358c2e52b702259b78bac5ee7842a0f01937e670efcc7d60405160405180910390a2505050565b60008060008060008060008060009054906101000a900460ff1615615c4e57600080fd5b60016000806101000a81548160ff0219169083151502179055503373ffffffffffffffffffffffffffffffffffffffff168c6020015173ffffffffffffffffffffffffffffffffffffffff161415615cb957615ca98c6164fb565b1515615cb457600080fd5b615cc6565b615cc38c8c616770565b96505b3373ffffffffffffffffffffffffffffffffffffffff168a6020015173ffffffffffffffffffffffffffffffffffffffff161415615d1757615d078a6164fb565b1515615d1257600080fd5b615d24565b615d218a8a616770565b95505b615d2e8c8b615380565b1515615d3957600080fd5b8961016001519350833b9450600085111515615d5457600080fd5b60008c6101c00151511115615d7e57615d7d8c6101a001518b6101a001518e6101c00151614a5a565b5b60008a6101c00151511115615da857615da78a6101a001518d6101a001518c6101c00151614a5a565b5b615dbc8c6101a001518b6101a00151614d6d565b1515615dc757600080fd5b600260009054906101000a900473ffffffffffffffffffffffffffffffffffffffff1673ffffffffffffffffffffffffffffffffffffffff1663c45527918b602001516040518263ffffffff167c0100000000000000000000000000000000000000000000000000000000028152600401808273ffffffffffffffffffffffffffffffffffffffff1673ffffffffffffffffffffffffffffffffffffffff168152602001915050602060405180830381600087803b158015615e8857600080fd5b505af1158015615e9c573d6000803e3d6000fd5b505050506040513d6020811015615eb257600080fd5b81019080805190602001909291905050509250600073ffffffffffffffffffffffffffffffffffffffff168373ffffffffffffffffffffffffffffffffffffffff1614151515615f0157600080fd5b600260009054906101000a900473ffffffffffffffffffffffffffffffffffffffff1673ffffffffffffffffffffffffffffffffffffffff166397204d8e6040518163ffffffff167c0100000000000000000000000000000000000000000000000000000000028152600401602060405180830381600087803b158015615f8757600080fd5b505af1158015615f9b573d6000803e3d6000fd5b505050506040513d6020811015615fb157600080fd5b810190808051906020019092919050505073ffffffffffffffffffffffffffffffffffffffff168373ffffffffffffffffffffffffffffffffffffffff16635c60da1b6040518163ffffffff167c0100000000000000000000000000000000000000000000000000000000028152600401602060405180830381600087803b15801561603c57600080fd5b505af1158015616050573d6000803e3d6000fd5b505050506040513d602081101561606657600080fd5b810190808051906020019092919050505073ffffffffffffffffffffffffffffffffffffffff1614151561609957600080fd5b8291508b6020015173ffffffffffffffffffffffffffffffffffffffff163373ffffffffffffffffffffffffffffffffffffffff1614151561610a57600160046000896000191660001916815260200190815260200160002060006101000a81548160ff0219169083151502179055505b896020015173ffffffffffffffffffffffffffffffffffffffff163373ffffffffffffffffffffffffffffffffffffffff1614151561617857600160046000886000191660001916815260200190815260200160002060006101000a81548160ff0219169083151502179055505b6161828c8b6167ad565b90508173ffffffffffffffffffffffffffffffffffffffff16631b0f7ba98b61016001518c61018001518d6101a001516040518463ffffffff167c0100000000000000000000000000000000000000000000000000000000028152600401808473ffffffffffffffffffffffffffffffffffffffff1673ffffffffffffffffffffffffffffffffffffffff16815260200183600181111561621f57fe5b60ff16815260200180602001828103825283818151815260200191508051906020019080838360005b83811015616263578082015181840152602081019050616248565b50505050905090810190601f1680156162905780820380516001836020036101000a031916815260200191505b50945050505050602060405180830381600087803b1580156162b157600080fd5b505af11580156162c5573d6000803e3d6000fd5b505050506040513d60208110156162db57600080fd5b810190808051906020019092919050505015156162f757600080fd5b600073ffffffffffffffffffffffffffffffffffffffff168c6101e0015173ffffffffffffffffffffffffffffffffffffffff161415156163585761634c8c6101e001518b6101a001518e6102000151611e24565b151561635757600080fd5b5b600073ffffffffffffffffffffffffffffffffffffffff168a6101e0015173ffffffffffffffffffffffffffffffffffffffff161415156163b9576163ad8a6101e001518b6101a001518c6102000151611e24565b15156163b857600080fd5b5b8760001916600073ffffffffffffffffffffffffffffffffffffffff168b60e0015173ffffffffffffffffffffffffffffffffffffffff161415616401578a60200151616407565b8c602001515b73ffffffffffffffffffffffffffffffffffffffff16600073ffffffffffffffffffffffffffffffffffffffff168c60e0015173ffffffffffffffffffffffffffffffffffffffff161415616460578d60200151616466565b8b602001515b73ffffffffffffffffffffffffffffffffffffffff167fc4109843e0b7d514e4c093114b863f8e7d8d9a458c372cd51bfe526b588006c98a8a866040518084600019166000191681526020018360001916600019168152602001828152602001935050505060405180910390a460008060006101000a81548160ff021916908315150217905550505050505050505050505050565b60003073ffffffffffffffffffffffffffffffffffffffff16826000015173ffffffffffffffffffffffffffffffffffffffff1614151561653f57600090506165b4565b616553826101400151836102a0015161702a565b151561656257600090506165b4565b60018081111561656e57fe5b826101000151600181111561657f57fe5b1480156165a157506006548260a0015110806165a057506007548260c00151105b5b156165af57600090506165b4565b600190505b919050565b60008060006165ea846101200151856101400151866102400151876102600151886102800151896102a001516150b9565b91506166188561012001518661014001518761024001518861026001518961028001518a6102a001516150b9565b905081811015151561662957600080fd5b600073ffffffffffffffffffffffffffffffffffffffff168460e0015173ffffffffffffffffffffffffffffffffffffffff161415616668578061666a565b815b9250505092915050565b600082821115151561668257fe5b818303905092915050565b60008060008414156166a257600091506166c1565b82840290508284828115156166b357fe5b041415156166bd57fe5b8091505b5092915050565b60008082848115156166d657fe5b0490508091505092915050565b60008082840190508381101515156166f757fe5b8091505092915050565b600081610200015151826101c0015151836101a00151516101b00101019050919050565b600081835260208301925082905092915050565b600081835360018301925082905092915050565b600042831080156167685750600082148061676757508142105b5b905092915050565b600080600061677e85614ddc565b915061678985614e33565b905061679782828787614e8a565b15156167a257600080fd5b819250505092915050565b60008060008060008060008060008073ffffffffffffffffffffffffffffffffffffffff168a610220015173ffffffffffffffffffffffffffffffffffffffff161415156168055760003414151561680457600080fd5b5b61680f8b8b6165b9565b97506000881180156168535750600073ffffffffffffffffffffffffffffffffffffffff168a610220015173ffffffffffffffffffffffffffffffffffffffff1614155b15616872576168718a61022001518c602001518c602001518b617058565b5b879650879550600073ffffffffffffffffffffffffffffffffffffffff168a60e0015173ffffffffffffffffffffffffffffffffffffffff16141515616d18578a608001518a60800151111515156168c957600080fd5b6001808111156168d557fe5b8a610100015160018111156168e657fe5b1415616ce4578a60c001518a60c001511115151561690357600080fd5b60008a6060015111156169dc576169296169218b606001518a61668d565b6127106166c8565b9450600073ffffffffffffffffffffffffffffffffffffffff168a610220015173ffffffffffffffffffffffffffffffffffffffff1614156169c15761696f8786616674565b96508960e0015173ffffffffffffffffffffffffffffffffffffffff166108fc869081150290604051600060405180830381858888f193505050501580156169bb573d6000803e3d6000fd5b506169db565b6169da8a61022001518b602001518c60e0015188617058565b5b5b60008a608001511115616ab557616a026169fa8b608001518a61668d565b6127106166c8565b9350600073ffffffffffffffffffffffffffffffffffffffff168a610220015173ffffffffffffffffffffffffffffffffffffffff161415616a9a57616a4886856166e3565b95508960e0015173ffffffffffffffffffffffffffffffffffffffff166108fc859081150290604051600060405180830381858888f19350505050158015616a94573d6000803e3d6000fd5b50616ab4565b616ab38a61022001518c602001518c60e0015187617058565b5b5b60008a60a001511115616bca57616adb616ad38b60a001518a61668d565b6127106166c8565b9250600073ffffffffffffffffffffffffffffffffffffffff168a610220015173ffffffffffffffffffffffffffffffffffffffff161415616b9157616b218784616674565b9650600860009054906101000a900473ffffffffffffffffffffffffffffffffffffffff1673ffffffffffffffffffffffffffffffffffffffff166108fc849081150290604051600060405180830381858888f19350505050158015616b8b573d6000803e3d6000fd5b50616bc9565b616bc88a61022001518b60200151600860009054906101000a900473ffffffffffffffffffffffffffffffffffffffff1686617058565b5b5b60008a60c001511115616cdf57616bf0616be88b60c001518a61668d565b6127106166c8565b9150600073ffffffffffffffffffffffffffffffffffffffff168a610220015173ffffffffffffffffffffffffffffffffffffffff161415616ca657616c3686836166e3565b9550600860009054906101000a900473ffffffffffffffffffffffffffffffffffffffff1673ffffffffffffffffffffffffffffffffffffffff166108fc839081150290604051600060405180830381858888f19350505050158015616ca0573d6000803e3d6000fd5b50616cde565b616cdd8a61022001518c60200151600860009054906101000a900473ffffffffffffffffffffffffffffffffffffffff1685617058565b5b5b616d13565b616cfb8a602001518b60e001518c606001516171db565b616d128b602001518b60e001518c608001516171db565b5b616f23565b89608001518b6080015111151515616d2f57600080fd5b600180811115616d3b57fe5b8a61010001516001811115616d4c57fe5b1415616ef357600073ffffffffffffffffffffffffffffffffffffffff168a610220015173ffffffffffffffffffffffffffffffffffffffff1614151515616d9357600080fd5b8960c001518b60c0015111151515616daa57600080fd5b60008b606001511115616dec57616dd0616dc88c606001518a61668d565b6127106166c8565b9450616deb8a61022001518c602001518d60e0015188617058565b5b60008b608001511115616e2e57616e12616e0a8c608001518a61668d565b6127106166c8565b9350616e2d8a61022001518b602001518d60e0015187617058565b5b60008b60a001511115616e8e57616e54616e4c8c60a001518a61668d565b6127106166c8565b9250616e8d8a61022001518c60200151600860009054906101000a900473ffffffffffffffffffffffffffffffffffffffff1686617058565b5b60008b60c001511115616eee57616eb4616eac8c60c001518a61668d565b6127106166c8565b9150616eed8a61022001518b60200151600860009054906101000a900473ffffffffffffffffffffffffffffffffffffffff1685617058565b5b616f22565b616f0a8b602001518c60e001518d606001516171db565b616f218a602001518c60e001518d608001516171db565b5b5b600073ffffffffffffffffffffffffffffffffffffffff168a610220015173ffffffffffffffffffffffffffffffffffffffff16141561701957853410151515616f6c57600080fd5b896020015173ffffffffffffffffffffffffffffffffffffffff166108fc889081150290604051600060405180830381858888f19350505050158015616fb6573d6000803e3d6000fd5b50616fc13487616674565b90506000811115617018578a6020015173ffffffffffffffffffffffffffffffffffffffff166108fc829081150290604051600060405180830381858888f19350505050158015617016573d6000803e3d6000fd5b505b5b879850505050505050505092915050565b600080600181111561703857fe5b83600181111561704457fe5b14806170505750600082115b905092915050565b60008111156171d557600360009054906101000a900473ffffffffffffffffffffffffffffffffffffffff1673ffffffffffffffffffffffffffffffffffffffff166315dacbea858585856040518563ffffffff167c0100000000000000000000000000000000000000000000000000000000028152600401808573ffffffffffffffffffffffffffffffffffffffff1673ffffffffffffffffffffffffffffffffffffffff1681526020018473ffffffffffffffffffffffffffffffffffffffff1673ffffffffffffffffffffffffffffffffffffffff1681526020018373ffffffffffffffffffffffffffffffffffffffff1673ffffffffffffffffffffffffffffffffffffffff168152602001828152602001945050505050602060405180830381600087803b15801561718e57600080fd5b505af11580156171a2573d6000803e3d6000fd5b505050506040513d60208110156171b857600080fd5b810190808051906020019092919050505015156171d457600080fd5b5b50505050565b617209600160009054906101000a900473ffffffffffffffffffffffffffffffffffffffff16848484617058565b505050565b6102e060405190810160405280600073ffffffffffffffffffffffffffffffffffffffff168152602001600073ffffffffffffffffffffffffffffffffffffffff168152602001600073ffffffffffffffffffffffffffffffffffffffff16815260200160008152602001600081526020016000815260200160008152602001600073ffffffffffffffffffffffffffffffffffffffff168152602001600060018111156172b857fe5b8152602001600060018111156172ca57fe5b8152602001600060018111156172dc57fe5b8152602001600073ffffffffffffffffffffffffffffffffffffffff1681526020016000600181111561730b57fe5b81526020016060815260200160608152602001600073ffffffffffffffffffffffffffffffffffffffff16815260200160608152602001600073ffffffffffffffffffffffffffffffffffffffff168152602001600081526020016000815260200160008152602001600081526020016000815250905600a165627a7a7230582075c4bec22fb1661e31a1ef74f8a98e147af5aee5943c29ec457edfa60307ae270029",
  "source": "/*\n  \n  Exchange contract. This is an outer contract with public or convenience functions and includes no state-modifying functions.\n \n*/\n\npragma solidity 0.4.23;\n\nimport \"./ExchangeCore.sol\";\n\n/**\n * @title Exchange\n * @author Project Wyvern Developers\n */\ncontract Exchange is ExchangeCore {\n\n    /**\n     * @dev Call guardedArrayReplace - library function exposed for testing.\n     */\n    function guardedArrayReplace(bytes array, bytes desired, bytes mask)\n        public\n        pure\n        returns (bytes)\n    {\n        ArrayUtils.guardedArrayReplace(array, desired, mask);\n        return array;\n    }\n\n    /**\n     * Test copy byte array\n     *\n     * @param arrToCopy Array to copy\n     * @return byte array\n     */\n    function testCopy(bytes arrToCopy)\n        public\n        pure\n        returns (bytes)\n    {\n        bytes memory arr = new bytes(arrToCopy.length);\n        uint index;\n        assembly {\n            index := add(arr, 0x20)\n        }\n        ArrayUtils.unsafeWriteBytes(index, arrToCopy);\n        return arr;\n    }\n\n    /**\n     * Test write address to bytes\n     *\n     * @param addr Address to write\n     * @return byte array\n     */\n    function testCopyAddress(address addr)\n        public\n        pure\n        returns (bytes)\n    {\n        bytes memory arr = new bytes(0x14);\n        uint index;\n        assembly {\n            index := add(arr, 0x20)\n        }\n        ArrayUtils.unsafeWriteAddress(index, addr);\n        return arr;\n    }\n\n    /**\n     * @dev Call calculateFinalPrice - library function exposed for testing.\n     */\n    function calculateFinalPrice(SaleKindInterface.Side side, SaleKindInterface.SaleKind saleKind, uint basePrice, uint extra, uint listingTime, uint expirationTime)\n        public\n        view\n        returns (uint)\n    {\n        return SaleKindInterface.calculateFinalPrice(side, saleKind, basePrice, extra, listingTime, expirationTime);\n    }\n\n    /**\n     * @dev Call hashOrder - Solidity ABI encoding limitation workaround, hopefully temporary.\n     */\n    function hashOrder_(\n        address[7] addrs,\n        uint[9] uints,\n        FeeMethod feeMethod,\n        SaleKindInterface.Side side,\n        SaleKindInterface.SaleKind saleKind,\n        AuthenticatedProxy.HowToCall howToCall,\n        bytes calldata,\n        bytes replacementPattern,\n        bytes staticExtradata)\n        public\n        pure\n        returns (bytes32)\n    {\n        return hashOrder(\n          Order(addrs[0], addrs[1], addrs[2], uints[0], uints[1], uints[2], uints[3], addrs[3], feeMethod, side, saleKind, addrs[4], howToCall, calldata, replacementPattern, addrs[5], staticExtradata, ERC20(addrs[6]), uints[4], uints[5], uints[6], uints[7], uints[8])\n        );\n    }\n\n    /**\n     * @dev Call hashToSign - Solidity ABI encoding limitation workaround, hopefully temporary.\n     */\n    function hashToSign_(\n        address[7] addrs,\n        uint[9] uints,\n        FeeMethod feeMethod,\n        SaleKindInterface.Side side,\n        SaleKindInterface.SaleKind saleKind,\n        AuthenticatedProxy.HowToCall howToCall,\n        bytes calldata,\n        bytes replacementPattern,\n        bytes staticExtradata)\n        public\n        pure\n        returns (bytes32)\n    { \n        return hashToSign(\n          Order(addrs[0], addrs[1], addrs[2], uints[0], uints[1], uints[2], uints[3], addrs[3], feeMethod, side, saleKind, addrs[4], howToCall, calldata, replacementPattern, addrs[5], staticExtradata, ERC20(addrs[6]), uints[4], uints[5], uints[6], uints[7], uints[8])\n        );\n    }\n\n    /**\n     * @dev Call validateOrderParameters - Solidity ABI encoding limitation workaround, hopefully temporary.\n     */\n    function validateOrderParameters_ (\n        address[7] addrs,\n        uint[9] uints,\n        FeeMethod feeMethod,\n        SaleKindInterface.Side side,\n        SaleKindInterface.SaleKind saleKind,\n        AuthenticatedProxy.HowToCall howToCall,\n        bytes calldata,\n        bytes replacementPattern,\n        bytes staticExtradata)\n        view\n        public\n        returns (bool)\n    {\n        Order memory order = Order(addrs[0], addrs[1], addrs[2], uints[0], uints[1], uints[2], uints[3], addrs[3], feeMethod, side, saleKind, addrs[4], howToCall, calldata, replacementPattern, addrs[5], staticExtradata, ERC20(addrs[6]), uints[4], uints[5], uints[6], uints[7], uints[8]);\n        return validateOrderParameters(\n          order\n        );\n    }\n\n    /**\n     * @dev Call validateOrder - Solidity ABI encoding limitation workaround, hopefully temporary.\n     */\n    function validateOrder_ (\n        address[7] addrs,\n        uint[9] uints,\n        FeeMethod feeMethod,\n        SaleKindInterface.Side side,\n        SaleKindInterface.SaleKind saleKind,\n        AuthenticatedProxy.HowToCall howToCall,\n        bytes calldata,\n        bytes replacementPattern,\n        bytes staticExtradata,\n        uint8 v,\n        bytes32 r,\n        bytes32 s)\n        view\n        public\n        returns (bool)\n    {\n        Order memory order = Order(addrs[0], addrs[1], addrs[2], uints[0], uints[1], uints[2], uints[3], addrs[3], feeMethod, side, saleKind, addrs[4], howToCall, calldata, replacementPattern, addrs[5], staticExtradata, ERC20(addrs[6]), uints[4], uints[5], uints[6], uints[7], uints[8]);\n        return validateOrder(\n          hashToSign(order),\n          hashToKlaytnSign(order),\n          order,\n          Sig(v, r, s)\n        );\n    }\n\n    /**\n     * @dev Call approveOrder - Solidity ABI encoding limitation workaround, hopefully temporary.\n     */\n    function approveOrder_ (\n        address[7] addrs,\n        uint[9] uints,\n        FeeMethod feeMethod,\n        SaleKindInterface.Side side,\n        SaleKindInterface.SaleKind saleKind,\n        AuthenticatedProxy.HowToCall howToCall,\n        bytes calldata,\n        bytes replacementPattern,\n        bytes staticExtradata,\n        bool orderbookInclusionDesired) \n        public\n    {\n        Order memory order = Order(addrs[0], addrs[1], addrs[2], uints[0], uints[1], uints[2], uints[3], addrs[3], feeMethod, side, saleKind, addrs[4], howToCall, calldata, replacementPattern, addrs[5], staticExtradata, ERC20(addrs[6]), uints[4], uints[5], uints[6], uints[7], uints[8]);\n        return approveOrder(order, orderbookInclusionDesired);\n    }\n\n    /**\n     * @dev Call cancelOrder - Solidity ABI encoding limitation workaround, hopefully temporary.\n     */\n    function cancelOrder_(\n        address[7] addrs,\n        uint[9] uints,\n        FeeMethod feeMethod,\n        SaleKindInterface.Side side,\n        SaleKindInterface.SaleKind saleKind,\n        AuthenticatedProxy.HowToCall howToCall,\n        bytes calldata,\n        bytes replacementPattern,\n        bytes staticExtradata,\n        uint8 v,\n        bytes32 r,\n        bytes32 s)\n        public\n    {\n\n        return cancelOrder(\n          Order(addrs[0], addrs[1], addrs[2], uints[0], uints[1], uints[2], uints[3], addrs[3], feeMethod, side, saleKind, addrs[4], howToCall, calldata, replacementPattern, addrs[5], staticExtradata, ERC20(addrs[6]), uints[4], uints[5], uints[6], uints[7], uints[8]),\n          Sig(v, r, s)\n        );\n    }\n\n    /**\n     * @dev Call calculateCurrentPrice - Solidity ABI encoding limitation workaround, hopefully temporary.\n     */\n    function calculateCurrentPrice_(\n        address[7] addrs,\n        uint[9] uints,\n        FeeMethod feeMethod,\n        SaleKindInterface.Side side,\n        SaleKindInterface.SaleKind saleKind,\n        AuthenticatedProxy.HowToCall howToCall,\n        bytes calldata,\n        bytes replacementPattern,\n        bytes staticExtradata)\n        public\n        view\n        returns (uint)\n    {\n        return calculateCurrentPrice(\n          Order(addrs[0], addrs[1], addrs[2], uints[0], uints[1], uints[2], uints[3], addrs[3], feeMethod, side, saleKind, addrs[4], howToCall, calldata, replacementPattern, addrs[5], staticExtradata, ERC20(addrs[6]), uints[4], uints[5], uints[6], uints[7], uints[8])\n        );\n    }\n\n    /**\n     * @dev Call ordersCanMatch - Solidity ABI encoding limitation workaround, hopefully temporary.\n     */\n    function ordersCanMatch_(\n        address[14] addrs,\n        uint[18] uints,\n        uint8[8] feeMethodsSidesKindsHowToCalls,\n        bytes calldataBuy,\n        bytes calldataSell,\n        bytes replacementPatternBuy,\n        bytes replacementPatternSell,\n        bytes staticExtradataBuy,\n        bytes staticExtradataSell)\n        public\n        view\n        returns (bool)\n    {\n        Order memory buy = Order(addrs[0], addrs[1], addrs[2], uints[0], uints[1], uints[2], uints[3], addrs[3], FeeMethod(feeMethodsSidesKindsHowToCalls[0]), SaleKindInterface.Side(feeMethodsSidesKindsHowToCalls[1]), SaleKindInterface.SaleKind(feeMethodsSidesKindsHowToCalls[2]), addrs[4], AuthenticatedProxy.HowToCall(feeMethodsSidesKindsHowToCalls[3]), calldataBuy, replacementPatternBuy, addrs[5], staticExtradataBuy, ERC20(addrs[6]), uints[4], uints[5], uints[6], uints[7], uints[8]);\n        Order memory sell = Order(addrs[7], addrs[8], addrs[9], uints[9], uints[10], uints[11], uints[12], addrs[10], FeeMethod(feeMethodsSidesKindsHowToCalls[4]), SaleKindInterface.Side(feeMethodsSidesKindsHowToCalls[5]), SaleKindInterface.SaleKind(feeMethodsSidesKindsHowToCalls[6]), addrs[11], AuthenticatedProxy.HowToCall(feeMethodsSidesKindsHowToCalls[7]), calldataSell, replacementPatternSell, addrs[12], staticExtradataSell, ERC20(addrs[13]), uints[13], uints[14], uints[15], uints[16], uints[17]);\n        return ordersCanMatch(\n          buy,\n          sell\n        );\n    }\n\n    /**\n     * @dev Return whether or not two orders' calldata specifications can match\n     * @param buyCalldata Buy-side order calldata\n     * @param buyReplacementPattern Buy-side order calldata replacement mask\n     * @param sellCalldata Sell-side order calldata\n     * @param sellReplacementPattern Sell-side order calldata replacement mask\n     * @return Whether the orders' calldata can be matched\n     */\n    function orderCalldataCanMatch(bytes buyCalldata, bytes buyReplacementPattern, bytes sellCalldata, bytes sellReplacementPattern)\n        public\n        pure\n        returns (bool)\n    {\n        if (buyReplacementPattern.length > 0) {\n          ArrayUtils.guardedArrayReplace(buyCalldata, sellCalldata, buyReplacementPattern);\n        }\n        if (sellReplacementPattern.length > 0) {\n          ArrayUtils.guardedArrayReplace(sellCalldata, buyCalldata, sellReplacementPattern);\n        }\n        return ArrayUtils.arrayEq(buyCalldata, sellCalldata);\n    }\n\n    /**\n     * @dev Call calculateMatchPrice - Solidity ABI encoding limitation workaround, hopefully temporary.\n     */\n    function calculateMatchPrice_(\n        address[14] addrs,\n        uint[18] uints,\n        uint8[8] feeMethodsSidesKindsHowToCalls,\n        bytes calldataBuy,\n        bytes calldataSell,\n        bytes replacementPatternBuy,\n        bytes replacementPatternSell,\n        bytes staticExtradataBuy,\n        bytes staticExtradataSell)\n        public\n        view\n        returns (uint)\n    {\n        Order memory buy = Order(addrs[0], addrs[1], addrs[2], uints[0], uints[1], uints[2], uints[3], addrs[3], FeeMethod(feeMethodsSidesKindsHowToCalls[0]), SaleKindInterface.Side(feeMethodsSidesKindsHowToCalls[1]), SaleKindInterface.SaleKind(feeMethodsSidesKindsHowToCalls[2]), addrs[4], AuthenticatedProxy.HowToCall(feeMethodsSidesKindsHowToCalls[3]), calldataBuy, replacementPatternBuy, addrs[5], staticExtradataBuy, ERC20(addrs[6]), uints[4], uints[5], uints[6], uints[7], uints[8]);\n        Order memory sell = Order(addrs[7], addrs[8], addrs[9], uints[9], uints[10], uints[11], uints[12], addrs[10], FeeMethod(feeMethodsSidesKindsHowToCalls[4]), SaleKindInterface.Side(feeMethodsSidesKindsHowToCalls[5]), SaleKindInterface.SaleKind(feeMethodsSidesKindsHowToCalls[6]), addrs[11], AuthenticatedProxy.HowToCall(feeMethodsSidesKindsHowToCalls[7]), calldataSell, replacementPatternSell, addrs[12], staticExtradataSell, ERC20(addrs[13]), uints[13], uints[14], uints[15], uints[16], uints[17]);\n        return calculateMatchPrice(\n          buy,\n          sell\n        );\n    }\n\n    /**\n     * @dev Call atomicMatch - Solidity ABI encoding limitation workaround, hopefully temporary.\n     */\n    function atomicMatch_(\n        address[14] addrs,\n        uint[18] uints,\n        uint8[8] feeMethodsSidesKindsHowToCalls,\n        bytes calldataBuy,\n        bytes calldataSell,\n        bytes replacementPatternBuy,\n        bytes replacementPatternSell,\n        bytes staticExtradataBuy,\n        bytes staticExtradataSell,\n        uint8[2] vs,\n        bytes32[5] rssMetadata)\n        public\n        payable\n    {\n\n        return atomicMatch(\n          Order(addrs[0], addrs[1], addrs[2], uints[0], uints[1], uints[2], uints[3], addrs[3], FeeMethod(feeMethodsSidesKindsHowToCalls[0]), SaleKindInterface.Side(feeMethodsSidesKindsHowToCalls[1]), SaleKindInterface.SaleKind(feeMethodsSidesKindsHowToCalls[2]), addrs[4], AuthenticatedProxy.HowToCall(feeMethodsSidesKindsHowToCalls[3]), calldataBuy, replacementPatternBuy, addrs[5], staticExtradataBuy, ERC20(addrs[6]), uints[4], uints[5], uints[6], uints[7], uints[8]),\n          Sig(vs[0], rssMetadata[0], rssMetadata[1]),\n          Order(addrs[7], addrs[8], addrs[9], uints[9], uints[10], uints[11], uints[12], addrs[10], FeeMethod(feeMethodsSidesKindsHowToCalls[4]), SaleKindInterface.Side(feeMethodsSidesKindsHowToCalls[5]), SaleKindInterface.SaleKind(feeMethodsSidesKindsHowToCalls[6]), addrs[11], AuthenticatedProxy.HowToCall(feeMethodsSidesKindsHowToCalls[7]), calldataSell, replacementPatternSell, addrs[12], staticExtradataSell, ERC20(addrs[13]), uints[13], uints[14], uints[15], uints[16], uints[17]),\n          Sig(vs[1], rssMetadata[2], rssMetadata[3]),\n          rssMetadata[4]\n        );\n    }\n\n}\n",
  "sourcePath": "/Users/joongyu.sun/workspace/blockchain/blocks/workspace.0315/wyvern-ethereum/contracts/exchange/Exchange.sol",
  "compiler": {
    "name": "solc",
    "version": "0.4.23+commit.124ca40d.Emscripten.clang"
  },
  "schemaVersion": "2.0.0",
  "updatedAt": "2023-03-24T11:35:13.981Z"
}