{
  "contractName": "MerkleProof",
  "abi": [
    {
      "constant": true,
      "inputs": [
        {
          "name": "_proof",
          "type": "bytes"
        },
        {
          "name": "_root",
          "type": "bytes32"
        },
        {
          "name": "_leaf",
          "type": "bytes32"
        }
      ],
      "name": "verifyProof",
      "outputs": [
        {
          "name": "",
          "type": "bool"
        }
      ],
      "payable": false,
      "stateMutability": "pure",
      "type": "function"
    }
  ],
  "bytecode": "0x610181610030600b82828239805160001a6073146000811461002057610022565bfe5b5030600052607381538281f30073000000000000000000000000000000000000000030146080604052600436106100575763ffffffff7c0100000000000000000000000000000000000000000000000000000000600035041663101f13e2811461005c575b600080fd5b6040805160206004803580820135601f81018490048402850184019095528484526100b19436949293602493928401919081908401838280828437509497505084359550505060209092013591506100c59050565b604080519115158252519081900360200190f35b600080600080602087518115156100d857fe5b06156100e7576000935061014b565b5083905060205b865181116101455786810151925082821015610122576040805192835260208301849052805192839003019091209061013d565b60408051848152602081019390935280519283900301909120905b6020016100ee565b81861493505b50505093925050505600a165627a7a72305820b703f20c73016637810cbfd270a23fb3b3d18c7e130a09e6f3a3733837689baa0029",
  "source": "pragma solidity ^0.4.18;\n\n\n/*\n * @title MerkleProof\n * @dev Merkle proof verification\n * @note Based on https://github.com/ameensol/merkle-tree-solidity/blob/master/src/MerkleProof.sol\n */\nlibrary MerkleProof {\n  /*\n   * @dev Verifies a Merkle proof proving the existence of a leaf in a Merkle tree. Assumes that each pair of leaves\n   * and each pair of pre-images is sorted.\n   * @param _proof Merkle proof containing sibling hashes on the branch from the leaf to the root of the Merkle tree\n   * @param _root Merkle root\n   * @param _leaf Leaf of Merkle tree\n   */\n  function verifyProof(bytes _proof, bytes32 _root, bytes32 _leaf) public pure returns (bool) {\n    // Check if proof length is a multiple of 32\n    if (_proof.length % 32 != 0) {\n      return false;\n    }\n\n    bytes32 proofElement;\n    bytes32 computedHash = _leaf;\n\n    for (uint256 i = 32; i <= _proof.length; i += 32) {\n      assembly {\n        // Load the current element of the proof\n        proofElement := mload(add(_proof, i))\n      }\n\n      if (computedHash < proofElement) {\n        // Hash(current computed hash + current element of the proof)\n        computedHash = keccak256(computedHash, proofElement);\n      } else {\n        // Hash(current element of the proof + current computed hash)\n        computedHash = keccak256(proofElement, computedHash);\n      }\n    }\n\n    // Check if the computed hash (root) is equal to the provided root\n    return computedHash == _root;\n  }\n}\n",
  "sourcePath": "openzeppelin-solidity/contracts/MerkleProof.sol",
  "compiler": {
    "name": "solc",
    "version": "0.4.23+commit.124ca40d.Emscripten.clang"
  },
  "schemaVersion": "2.0.0",
  "updatedAt": "2023-08-09T17:05:17.419Z"
}