{
  "contractName": "WyvernExchange",
  "abi": [
    {
      "constant": true,
      "inputs": [],
      "name": "name",
      "outputs": [
        {
          "name": "",
          "type": "string"
        }
      ],
      "payable": false,
      "stateMutability": "view",
      "type": "function"
    },
    {
      "constant": true,
      "inputs": [],
      "name": "tokenTransferProxy",
      "outputs": [
        {
          "name": "",
          "type": "address"
        }
      ],
      "payable": false,
      "stateMutability": "view",
      "type": "function"
    },
    {
      "constant": true,
      "inputs": [
        {
          "name": "target",
          "type": "address"
        },
        {
          "name": "calldata",
          "type": "bytes"
        },
        {
          "name": "extradata",
          "type": "bytes"
        }
      ],
      "name": "staticCall",
      "outputs": [
        {
          "name": "result",
          "type": "bool"
        }
      ],
      "payable": false,
      "stateMutability": "view",
      "type": "function"
    },
    {
      "constant": false,
      "inputs": [
        {
          "name": "newMinimumMakerProtocolFee",
          "type": "uint256"
        }
      ],
      "name": "changeMinimumMakerProtocolFee",
      "outputs": [],
      "payable": false,
      "stateMutability": "nonpayable",
      "type": "function"
    },
    {
      "constant": false,
      "inputs": [
        {
          "name": "newMinimumTakerProtocolFee",
          "type": "uint256"
        }
      ],
      "name": "changeMinimumTakerProtocolFee",
      "outputs": [],
      "payable": false,
      "stateMutability": "nonpayable",
      "type": "function"
    },
    {
      "constant": true,
      "inputs": [
        {
          "name": "array",
          "type": "bytes"
        },
        {
          "name": "desired",
          "type": "bytes"
        },
        {
          "name": "mask",
          "type": "bytes"
        }
      ],
      "name": "guardedArrayReplace",
      "outputs": [
        {
          "name": "",
          "type": "bytes"
        }
      ],
      "payable": false,
      "stateMutability": "pure",
      "type": "function"
    },
    {
      "constant": true,
      "inputs": [],
      "name": "minimumTakerProtocolFee",
      "outputs": [
        {
          "name": "",
          "type": "uint256"
        }
      ],
      "payable": false,
      "stateMutability": "view",
      "type": "function"
    },
    {
      "constant": true,
      "inputs": [],
      "name": "codename",
      "outputs": [
        {
          "name": "",
          "type": "string"
        }
      ],
      "payable": false,
      "stateMutability": "view",
      "type": "function"
    },
    {
      "constant": true,
      "inputs": [
        {
          "name": "addr",
          "type": "address"
        }
      ],
      "name": "testCopyAddress",
      "outputs": [
        {
          "name": "",
          "type": "bytes"
        }
      ],
      "payable": false,
      "stateMutability": "pure",
      "type": "function"
    },
    {
      "constant": true,
      "inputs": [
        {
          "name": "arrToCopy",
          "type": "bytes"
        }
      ],
      "name": "testCopy",
      "outputs": [
        {
          "name": "",
          "type": "bytes"
        }
      ],
      "payable": false,
      "stateMutability": "pure",
      "type": "function"
    },
    {
      "constant": true,
      "inputs": [
        {
          "name": "addrs",
          "type": "address[7]"
        },
        {
          "name": "uints",
          "type": "uint256[9]"
        },
        {
          "name": "feeMethod",
          "type": "uint8"
        },
        {
          "name": "side",
          "type": "uint8"
        },
        {
          "name": "saleKind",
          "type": "uint8"
        },
        {
          "name": "howToCall",
          "type": "uint8"
        },
        {
          "name": "calldata",
          "type": "bytes"
        },
        {
          "name": "replacementPattern",
          "type": "bytes"
        },
        {
          "name": "staticExtradata",
          "type": "bytes"
        }
      ],
      "name": "calculateCurrentPrice_",
      "outputs": [
        {
          "name": "",
          "type": "uint256"
        }
      ],
      "payable": false,
      "stateMutability": "view",
      "type": "function"
    },
    {
      "constant": false,
      "inputs": [
        {
          "name": "newProtocolFeeRecipient",
          "type": "address"
        }
      ],
      "name": "changeProtocolFeeRecipient",
      "outputs": [],
      "payable": false,
      "stateMutability": "nonpayable",
      "type": "function"
    },
    {
      "constant": true,
      "inputs": [],
      "name": "version",
      "outputs": [
        {
          "name": "",
          "type": "string"
        }
      ],
      "payable": false,
      "stateMutability": "view",
      "type": "function"
    },
    {
      "constant": true,
      "inputs": [
        {
          "name": "buyCalldata",
          "type": "bytes"
        },
        {
          "name": "buyReplacementPattern",
          "type": "bytes"
        },
        {
          "name": "sellCalldata",
          "type": "bytes"
        },
        {
          "name": "sellReplacementPattern",
          "type": "bytes"
        }
      ],
      "name": "orderCalldataCanMatch",
      "outputs": [
        {
          "name": "",
          "type": "bool"
        }
      ],
      "payable": false,
      "stateMutability": "pure",
      "type": "function"
    },
    {
      "constant": true,
      "inputs": [
        {
          "name": "addrs",
          "type": "address[7]"
        },
        {
          "name": "uints",
          "type": "uint256[9]"
        },
        {
          "name": "feeMethod",
          "type": "uint8"
        },
        {
          "name": "side",
          "type": "uint8"
        },
        {
          "name": "saleKind",
          "type": "uint8"
        },
        {
          "name": "howToCall",
          "type": "uint8"
        },
        {
          "name": "calldata",
          "type": "bytes"
        },
        {
          "name": "replacementPattern",
          "type": "bytes"
        },
        {
          "name": "staticExtradata",
          "type": "bytes"
        },
        {
          "name": "v",
          "type": "uint8"
        },
        {
          "name": "r",
          "type": "bytes32"
        },
        {
          "name": "s",
          "type": "bytes32"
        }
      ],
      "name": "validateOrder_",
      "outputs": [
        {
          "name": "",
          "type": "bool"
        }
      ],
      "payable": false,
      "stateMutability": "view",
      "type": "function"
    },
    {
      "constant": true,
      "inputs": [
        {
          "name": "side",
          "type": "uint8"
        },
        {
          "name": "saleKind",
          "type": "uint8"
        },
        {
          "name": "basePrice",
          "type": "uint256"
        },
        {
          "name": "extra",
          "type": "uint256"
        },
        {
          "name": "listingTime",
          "type": "uint256"
        },
        {
          "name": "expirationTime",
          "type": "uint256"
        }
      ],
      "name": "calculateFinalPrice",
      "outputs": [
        {
          "name": "",
          "type": "uint256"
        }
      ],
      "payable": false,
      "stateMutability": "view",
      "type": "function"
    },
    {
      "constant": true,
      "inputs": [],
      "name": "protocolFeeRecipient",
      "outputs": [
        {
          "name": "",
          "type": "address"
        }
      ],
      "payable": false,
      "stateMutability": "view",
      "type": "function"
    },
    {
      "constant": true,
      "inputs": [
        {
          "name": "addrs",
          "type": "address[7]"
        },
        {
          "name": "uints",
          "type": "uint256[9]"
        },
        {
          "name": "feeMethod",
          "type": "uint8"
        },
        {
          "name": "side",
          "type": "uint8"
        },
        {
          "name": "saleKind",
          "type": "uint8"
        },
        {
          "name": "howToCall",
          "type": "uint8"
        },
        {
          "name": "calldata",
          "type": "bytes"
        },
        {
          "name": "replacementPattern",
          "type": "bytes"
        },
        {
          "name": "staticExtradata",
          "type": "bytes"
        }
      ],
      "name": "hashOrder_",
      "outputs": [
        {
          "name": "",
          "type": "bytes32"
        }
      ],
      "payable": false,
      "stateMutability": "pure",
      "type": "function"
    },
    {
      "constant": true,
      "inputs": [
        {
          "name": "addrs",
          "type": "address[14]"
        },
        {
          "name": "uints",
          "type": "uint256[18]"
        },
        {
          "name": "feeMethodsSidesKindsHowToCalls",
          "type": "uint8[8]"
        },
        {
          "name": "calldataBuy",
          "type": "bytes"
        },
        {
          "name": "calldataSell",
          "type": "bytes"
        },
        {
          "name": "replacementPatternBuy",
          "type": "bytes"
        },
        {
          "name": "replacementPatternSell",
          "type": "bytes"
        },
        {
          "name": "staticExtradataBuy",
          "type": "bytes"
        },
        {
          "name": "staticExtradataSell",
          "type": "bytes"
        }
      ],
      "name": "ordersCanMatch_",
      "outputs": [
        {
          "name": "",
          "type": "bool"
        }
      ],
      "payable": false,
      "stateMutability": "view",
      "type": "function"
    },
    {
      "constant": false,
      "inputs": [
        {
          "name": "addrs",
          "type": "address[7]"
        },
        {
          "name": "uints",
          "type": "uint256[9]"
        },
        {
          "name": "feeMethod",
          "type": "uint8"
        },
        {
          "name": "side",
          "type": "uint8"
        },
        {
          "name": "saleKind",
          "type": "uint8"
        },
        {
          "name": "howToCall",
          "type": "uint8"
        },
        {
          "name": "calldata",
          "type": "bytes"
        },
        {
          "name": "replacementPattern",
          "type": "bytes"
        },
        {
          "name": "staticExtradata",
          "type": "bytes"
        },
        {
          "name": "orderbookInclusionDesired",
          "type": "bool"
        }
      ],
      "name": "approveOrder_",
      "outputs": [],
      "payable": false,
      "stateMutability": "nonpayable",
      "type": "function"
    },
    {
      "constant": true,
      "inputs": [],
      "name": "registry",
      "outputs": [
        {
          "name": "",
          "type": "address"
        }
      ],
      "payable": false,
      "stateMutability": "view",
      "type": "function"
    },
    {
      "constant": true,
      "inputs": [],
      "name": "minimumMakerProtocolFee",
      "outputs": [
        {
          "name": "",
          "type": "uint256"
        }
      ],
      "payable": false,
      "stateMutability": "view",
      "type": "function"
    },
    {
      "constant": true,
      "inputs": [
        {
          "name": "addrs",
          "type": "address[7]"
        },
        {
          "name": "uints",
          "type": "uint256[9]"
        },
        {
          "name": "feeMethod",
          "type": "uint8"
        },
        {
          "name": "side",
          "type": "uint8"
        },
        {
          "name": "saleKind",
          "type": "uint8"
        },
        {
          "name": "howToCall",
          "type": "uint8"
        },
        {
          "name": "calldata",
          "type": "bytes"
        },
        {
          "name": "replacementPattern",
          "type": "bytes"
        },
        {
          "name": "staticExtradata",
          "type": "bytes"
        }
      ],
      "name": "hashToSign_",
      "outputs": [
        {
          "name": "",
          "type": "bytes32"
        }
      ],
      "payable": false,
      "stateMutability": "pure",
      "type": "function"
    },
    {
      "constant": true,
      "inputs": [
        {
          "name": "",
          "type": "bytes32"
        }
      ],
      "name": "cancelledOrFinalized",
      "outputs": [
        {
          "name": "",
          "type": "bool"
        }
      ],
      "payable": false,
      "stateMutability": "view",
      "type": "function"
    },
    {
      "constant": true,
      "inputs": [],
      "name": "owner",
      "outputs": [
        {
          "name": "",
          "type": "address"
        }
      ],
      "payable": false,
      "stateMutability": "view",
      "type": "function"
    },
    {
      "constant": true,
      "inputs": [],
      "name": "exchangeToken",
      "outputs": [
        {
          "name": "",
          "type": "address"
        }
      ],
      "payable": false,
      "stateMutability": "view",
      "type": "function"
    },
    {
      "constant": false,
      "inputs": [
        {
          "name": "addrs",
          "type": "address[7]"
        },
        {
          "name": "uints",
          "type": "uint256[9]"
        },
        {
          "name": "feeMethod",
          "type": "uint8"
        },
        {
          "name": "side",
          "type": "uint8"
        },
        {
          "name": "saleKind",
          "type": "uint8"
        },
        {
          "name": "howToCall",
          "type": "uint8"
        },
        {
          "name": "calldata",
          "type": "bytes"
        },
        {
          "name": "replacementPattern",
          "type": "bytes"
        },
        {
          "name": "staticExtradata",
          "type": "bytes"
        },
        {
          "name": "v",
          "type": "uint8"
        },
        {
          "name": "r",
          "type": "bytes32"
        },
        {
          "name": "s",
          "type": "bytes32"
        }
      ],
      "name": "cancelOrder_",
      "outputs": [],
      "payable": false,
      "stateMutability": "nonpayable",
      "type": "function"
    },
    {
      "constant": false,
      "inputs": [
        {
          "name": "addrs",
          "type": "address[14]"
        },
        {
          "name": "uints",
          "type": "uint256[18]"
        },
        {
          "name": "feeMethodsSidesKindsHowToCalls",
          "type": "uint8[8]"
        },
        {
          "name": "calldataBuy",
          "type": "bytes"
        },
        {
          "name": "calldataSell",
          "type": "bytes"
        },
        {
          "name": "replacementPatternBuy",
          "type": "bytes"
        },
        {
          "name": "replacementPatternSell",
          "type": "bytes"
        },
        {
          "name": "staticExtradataBuy",
          "type": "bytes"
        },
        {
          "name": "staticExtradataSell",
          "type": "bytes"
        },
        {
          "name": "vs",
          "type": "uint8[2]"
        },
        {
          "name": "rssMetadata",
          "type": "bytes32[5]"
        }
      ],
      "name": "atomicMatch_",
      "outputs": [],
      "payable": true,
      "stateMutability": "payable",
      "type": "function"
    },
    {
      "constant": true,
      "inputs": [
        {
          "name": "addrs",
          "type": "address[7]"
        },
        {
          "name": "uints",
          "type": "uint256[9]"
        },
        {
          "name": "feeMethod",
          "type": "uint8"
        },
        {
          "name": "side",
          "type": "uint8"
        },
        {
          "name": "saleKind",
          "type": "uint8"
        },
        {
          "name": "howToCall",
          "type": "uint8"
        },
        {
          "name": "calldata",
          "type": "bytes"
        },
        {
          "name": "replacementPattern",
          "type": "bytes"
        },
        {
          "name": "staticExtradata",
          "type": "bytes"
        }
      ],
      "name": "validateOrderParameters_",
      "outputs": [
        {
          "name": "",
          "type": "bool"
        }
      ],
      "payable": false,
      "stateMutability": "view",
      "type": "function"
    },
    {
      "constant": true,
      "inputs": [],
      "name": "INVERSE_BASIS_POINT",
      "outputs": [
        {
          "name": "",
          "type": "uint256"
        }
      ],
      "payable": false,
      "stateMutability": "view",
      "type": "function"
    },
    {
      "constant": true,
      "inputs": [
        {
          "name": "addrs",
          "type": "address[14]"
        },
        {
          "name": "uints",
          "type": "uint256[18]"
        },
        {
          "name": "feeMethodsSidesKindsHowToCalls",
          "type": "uint8[8]"
        },
        {
          "name": "calldataBuy",
          "type": "bytes"
        },
        {
          "name": "calldataSell",
          "type": "bytes"
        },
        {
          "name": "replacementPatternBuy",
          "type": "bytes"
        },
        {
          "name": "replacementPatternSell",
          "type": "bytes"
        },
        {
          "name": "staticExtradataBuy",
          "type": "bytes"
        },
        {
          "name": "staticExtradataSell",
          "type": "bytes"
        }
      ],
      "name": "calculateMatchPrice_",
      "outputs": [
        {
          "name": "",
          "type": "uint256"
        }
      ],
      "payable": false,
      "stateMutability": "view",
      "type": "function"
    },
    {
      "constant": true,
      "inputs": [
        {
          "name": "",
          "type": "bytes32"
        }
      ],
      "name": "approvedOrders",
      "outputs": [
        {
          "name": "",
          "type": "bool"
        }
      ],
      "payable": false,
      "stateMutability": "view",
      "type": "function"
    },
    {
      "constant": false,
      "inputs": [
        {
          "name": "newOwner",
          "type": "address"
        }
      ],
      "name": "transferOwnership",
      "outputs": [],
      "payable": false,
      "stateMutability": "nonpayable",
      "type": "function"
    },
    {
      "inputs": [
        {
          "name": "registryAddress",
          "type": "address"
        },
        {
          "name": "tokenTransferProxyAddress",
          "type": "address"
        },
        {
          "name": "tokenAddress",
          "type": "address"
        },
        {
          "name": "protocolFeeAddress",
          "type": "address"
        }
      ],
      "payable": false,
      "stateMutability": "nonpayable",
      "type": "constructor"
    },
    {
      "anonymous": false,
      "inputs": [
        {
          "indexed": true,
          "name": "hash",
          "type": "bytes32"
        },
        {
          "indexed": false,
          "name": "exchange",
          "type": "address"
        },
        {
          "indexed": true,
          "name": "maker",
          "type": "address"
        },
        {
          "indexed": false,
          "name": "taker",
          "type": "address"
        },
        {
          "indexed": false,
          "name": "makerRelayerFee",
          "type": "uint256"
        },
        {
          "indexed": false,
          "name": "takerRelayerFee",
          "type": "uint256"
        },
        {
          "indexed": false,
          "name": "makerProtocolFee",
          "type": "uint256"
        },
        {
          "indexed": false,
          "name": "takerProtocolFee",
          "type": "uint256"
        },
        {
          "indexed": true,
          "name": "feeRecipient",
          "type": "address"
        },
        {
          "indexed": false,
          "name": "feeMethod",
          "type": "uint8"
        },
        {
          "indexed": false,
          "name": "side",
          "type": "uint8"
        },
        {
          "indexed": false,
          "name": "saleKind",
          "type": "uint8"
        },
        {
          "indexed": false,
          "name": "target",
          "type": "address"
        }
      ],
      "name": "OrderApprovedPartOne",
      "type": "event"
    },
    {
      "anonymous": false,
      "inputs": [
        {
          "indexed": true,
          "name": "hash",
          "type": "bytes32"
        },
        {
          "indexed": false,
          "name": "howToCall",
          "type": "uint8"
        },
        {
          "indexed": false,
          "name": "calldata",
          "type": "bytes"
        },
        {
          "indexed": false,
          "name": "replacementPattern",
          "type": "bytes"
        },
        {
          "indexed": false,
          "name": "staticTarget",
          "type": "address"
        },
        {
          "indexed": false,
          "name": "staticExtradata",
          "type": "bytes"
        },
        {
          "indexed": false,
          "name": "paymentToken",
          "type": "address"
        },
        {
          "indexed": false,
          "name": "basePrice",
          "type": "uint256"
        },
        {
          "indexed": false,
          "name": "extra",
          "type": "uint256"
        },
        {
          "indexed": false,
          "name": "listingTime",
          "type": "uint256"
        },
        {
          "indexed": false,
          "name": "expirationTime",
          "type": "uint256"
        },
        {
          "indexed": false,
          "name": "salt",
          "type": "uint256"
        },
        {
          "indexed": false,
          "name": "orderbookInclusionDesired",
          "type": "bool"
        }
      ],
      "name": "OrderApprovedPartTwo",
      "type": "event"
    },
    {
      "anonymous": false,
      "inputs": [
        {
          "indexed": true,
          "name": "hash",
          "type": "bytes32"
        }
      ],
      "name": "OrderCancelled",
      "type": "event"
    },
    {
      "anonymous": false,
      "inputs": [
        {
          "indexed": false,
          "name": "buyHash",
          "type": "bytes32"
        },
        {
          "indexed": false,
          "name": "sellHash",
          "type": "bytes32"
        },
        {
          "indexed": true,
          "name": "maker",
          "type": "address"
        },
        {
          "indexed": true,
          "name": "taker",
          "type": "address"
        },
        {
          "indexed": false,
          "name": "price",
          "type": "uint256"
        },
        {
          "indexed": true,
          "name": "metadata",
          "type": "bytes32"
        }
      ],
      "name": "OrdersMatched",
      "type": "event"
    },
    {
      "anonymous": false,
      "inputs": [
        {
          "indexed": true,
          "name": "previousOwner",
          "type": "address"
        },
        {
          "indexed": true,
          "name": "newOwner",
          "type": "address"
        }
      ],
      "name": "OwnershipTransferred",
      "type": "event"
    }
  ],
  "bytecode": "0x608060405260008060006101000a81548160ff0219169083151502179055506000600655600060075534801561003457600080fd5b506040516080806200783b8339810180604052810190808051906020019092919080519060200190929190805190602001909291908051906020019092919050505033600060016101000a81548173ffffffffffffffffffffffffffffffffffffffff021916908373ffffffffffffffffffffffffffffffffffffffff16021790555083600260006101000a81548173ffffffffffffffffffffffffffffffffffffffff021916908373ffffffffffffffffffffffffffffffffffffffff16021790555082600360006101000a81548173ffffffffffffffffffffffffffffffffffffffff021916908373ffffffffffffffffffffffffffffffffffffffff16021790555081600160006101000a81548173ffffffffffffffffffffffffffffffffffffffff021916908373ffffffffffffffffffffffffffffffffffffffff16021790555080600860006101000a81548173ffffffffffffffffffffffffffffffffffffffff021916908373ffffffffffffffffffffffffffffffffffffffff16021790555033600060016101000a81548173ffffffffffffffffffffffffffffffffffffffff021916908373ffffffffffffffffffffffffffffffffffffffff1602179055505050505061762b80620002106000396000f3006080604052600436106101a1576000357c0100000000000000000000000000000000000000000000000000000000900463ffffffff16806306fdde03146101a65780630eefdbad1461023657806310796a471461028d57806314350c24146103745780631a6b13e2146103a1578063239e83df146103ce57806328a8ee681461053c57806331e63199146105675780633464af6a146105f75780633e1e292a146106b35780633f67ee0d14610795578063514f03301461093157806354fd4d5014610974578063562b2ebc14610a0457806360bef33a14610b5757806363d36c0b14610d2057806364df049e14610d9957806371d02b3814610df057806372593b4c14610f9457806379666868146112035780637b103999146113975780637ccefc52146113ee5780637d766981146114195780638076f005146115bd5780638da5cb5b14611606578063a25eb5d91461165d578063a8a41c70146116b4578063ab834bab14611865578063ca595b9a14611b0d578063cae6047f14611cad578063d537e13114611cd8578063e57d4adb14611f43578063f2fde38b14611f8c575b600080fd5b3480156101b257600080fd5b506101bb611fcf565b6040518080602001828103825283818151815260200191508051906020019080838360005b838110156101fb5780820151818401526020810190506101e0565b50505050905090810190601f1680156102285780820380516001836020036101000a031916815260200191505b509250505060405180910390f35b34801561024257600080fd5b5061024b612008565b604051808273ffffffffffffffffffffffffffffffffffffffff1673ffffffffffffffffffffffffffffffffffffffff16815260200191505060405180910390f35b34801561029957600080fd5b5061035a600480360381019080803573ffffffffffffffffffffffffffffffffffffffff169060200190929190803590602001908201803590602001908080601f0160208091040260200160405190810160405280939291908181526020018383808284378201915050505050509192919290803590602001908201803590602001908080601f016020809104026020016040519081016040528093929190818152602001838380828437820191505050505050919291929050505061202e565b604051808215151515815260200191505060405180910390f35b34801561038057600080fd5b5061039f600480360381019080803590602001909291905050506120a7565b005b3480156103ad57600080fd5b506103cc6004803603810190808035906020019092919050505061210d565b005b3480156103da57600080fd5b506104c1600480360381019080803590602001908201803590602001908080601f0160208091040260200160405190810160405280939291908181526020018383808284378201915050505050509192919290803590602001908201803590602001908080601f0160208091040260200160405190810160405280939291908181526020018383808284378201915050505050509192919290803590602001908201803590602001908080601f0160208091040260200160405190810160405280939291908181526020018383808284378201915050505050509192919290505050612173565b6040518080602001828103825283818151815260200191508051906020019080838360005b838110156105015780820151818401526020810190506104e6565b50505050905090810190601f16801561052e5780820380516001836020036101000a031916815260200191505b509250505060405180910390f35b34801561054857600080fd5b5061055161218a565b6040518082815260200191505060405180910390f35b34801561057357600080fd5b5061057c612190565b6040518080602001828103825283818151815260200191508051906020019080838360005b838110156105bc5780820151818401526020810190506105a1565b50505050905090810190601f1680156105e95780820380516001836020036101000a031916815260200191505b509250505060405180910390f35b34801561060357600080fd5b50610638600480360381019080803573ffffffffffffffffffffffffffffffffffffffff1690602001909291905050506121c9565b6040518080602001828103825283818151815260200191508051906020019080838360005b8381101561067857808201518184015260208101905061065d565b50505050905090810190601f1680156106a55780820380516001836020036101000a031916815260200191505b509250505060405180910390f35b3480156106bf57600080fd5b5061071a600480360381019080803590602001908201803590602001908080601f0160208091040260200160405190810160405280939291908181526020018383808284378201915050505050509192919290505050612220565b6040518080602001828103825283818151815260200191508051906020019080838360005b8381101561075a57808201518184015260208101905061073f565b50505050905090810190601f1680156107875780820380516001836020036101000a031916815260200191505b509250505060405180910390f35b3480156107a157600080fd5b5061091b6004803603810190808060e00190600780602002604051908101604052809291908260076020028082843782019150505050509192919290806101200190600980602002604051908101604052809291908260096020028082843782019150505050509192919290803560ff169060200190929190803560ff169060200190929190803560ff169060200190929190803560ff169060200190929190803590602001908201803590602001908080601f0160208091040260200160405190810160405280939291908181526020018383808284378201915050505050509192919290803590602001908201803590602001908080601f0160208091040260200160405190810160405280939291908181526020018383808284378201915050505050509192919290803590602001908201803590602001908080601f0160208091040260200160405190810160405280939291908181526020018383808284378201915050505050509192919290505050612277565b6040518082815260200191505060405180910390f35b34801561093d57600080fd5b50610972600480360381019080803573ffffffffffffffffffffffffffffffffffffffff16906020019092919050505061251b565b005b34801561098057600080fd5b506109896125bb565b6040518080602001828103825283818151815260200191508051906020019080838360005b838110156109c95780820151818401526020810190506109ae565b50505050905090810190601f1680156109f65780820380516001836020036101000a031916815260200191505b509250505060405180910390f35b348015610a1057600080fd5b50610b3d600480360381019080803590602001908201803590602001908080601f0160208091040260200160405190810160405280939291908181526020018383808284378201915050505050509192919290803590602001908201803590602001908080601f0160208091040260200160405190810160405280939291908181526020018383808284378201915050505050509192919290803590602001908201803590602001908080601f0160208091040260200160405190810160405280939291908181526020018383808284378201915050505050509192919290803590602001908201803590602001908080601f01602080910402602001604051908101604052809392919081815260200183838082843782019150505050505091929192905050506125f4565b604051808215151515815260200191505060405180910390f35b348015610b6357600080fd5b50610d066004803603810190808060e00190600780602002604051908101604052809291908260076020028082843782019150505050509192919290806101200190600980602002604051908101604052809291908260096020028082843782019150505050509192919290803560ff169060200190929190803560ff169060200190929190803560ff169060200190929190803560ff169060200190929190803590602001908201803590602001908080601f0160208091040260200160405190810160405280939291908181526020018383808284378201915050505050509192919290803590602001908201803590602001908080601f0160208091040260200160405190810160405280939291908181526020018383808284378201915050505050509192919290803590602001908201803590602001908080601f0160208091040260200160405190810160405280939291908181526020018383808284378201915050505050509192919290803560ff16906020019092919080356000191690602001909291908035600019169060200190929190505050612635565b604051808215151515815260200191505060405180910390f35b348015610d2c57600080fd5b50610d83600480360381019080803560ff169060200190929190803560ff16906020019092919080359060200190929190803590602001909291908035906020019092919080359060200190929190505050612921565b6040518082815260200191505060405180910390f35b348015610da557600080fd5b50610dae61293d565b604051808273ffffffffffffffffffffffffffffffffffffffff1673ffffffffffffffffffffffffffffffffffffffff16815260200191505060405180910390f35b348015610dfc57600080fd5b50610f766004803603810190808060e00190600780602002604051908101604052809291908260076020028082843782019150505050509192919290806101200190600980602002604051908101604052809291908260096020028082843782019150505050509192919290803560ff169060200190929190803560ff169060200190929190803560ff169060200190929190803560ff169060200190929190803590602001908201803590602001908080601f0160208091040260200160405190810160405280939291908181526020018383808284378201915050505050509192919290803590602001908201803590602001908080601f0160208091040260200160405190810160405280939291908181526020018383808284378201915050505050509192919290803590602001908201803590602001908080601f0160208091040260200160405190810160405280939291908181526020018383808284378201915050505050509192919290505050612963565b60405180826000191660001916815260200191505060405180910390f35b348015610fa057600080fd5b506111e9600480360381019080806101c00190600e806020026040519081016040528092919082600e6020028082843782019150505050509192919290806102400190601280602002604051908101604052809291908260126020028082843782019150505050509192919290806101000190600880602002604051908101604052809291908260086020028082843782019150505050509192919290803590602001908201803590602001908080601f0160208091040260200160405190810160405280939291908181526020018383808284378201915050505050509192919290803590602001908201803590602001908080601f0160208091040260200160405190810160405280939291908181526020018383808284378201915050505050509192919290803590602001908201803590602001908080601f0160208091040260200160405190810160405280939291908181526020018383808284378201915050505050509192919290803590602001908201803590602001908080601f0160208091040260200160405190810160405280939291908181526020018383808284378201915050505050509192919290803590602001908201803590602001908080601f0160208091040260200160405190810160405280939291908181526020018383808284378201915050505050509192919290803590602001908201803590602001908080601f0160208091040260200160405190810160405280939291908181526020018383808284378201915050505050509192919290505050612c07565b604051808215151515815260200191505060405180910390f35b34801561120f57600080fd5b506113956004803603810190808060e00190600780602002604051908101604052809291908260076020028082843782019150505050509192919290806101200190600980602002604051908101604052809291908260096020028082843782019150505050509192919290803560ff169060200190929190803560ff169060200190929190803560ff169060200190929190803560ff169060200190929190803590602001908201803590602001908080601f0160208091040260200160405190810160405280939291908181526020018383808284378201915050505050509192919290803590602001908201803590602001908080601f0160208091040260200160405190810160405280939291908181526020018383808284378201915050505050509192919290803590602001908201803590602001908080601f0160208091040260200160405190810160405280939291908181526020018383808284378201915050505050509192919290803515159060200190929190505050613256565b005b3480156113a357600080fd5b506113ac613502565b604051808273ffffffffffffffffffffffffffffffffffffffff1673ffffffffffffffffffffffffffffffffffffffff16815260200191505060405180910390f35b3480156113fa57600080fd5b50611403613528565b6040518082815260200191505060405180910390f35b34801561142557600080fd5b5061159f6004803603810190808060e00190600780602002604051908101604052809291908260076020028082843782019150505050509192919290806101200190600980602002604051908101604052809291908260096020028082843782019150505050509192919290803560ff169060200190929190803560ff169060200190929190803560ff169060200190929190803560ff169060200190929190803590602001908201803590602001908080601f0160208091040260200160405190810160405280939291908181526020018383808284378201915050505050509192919290803590602001908201803590602001908080601f0160208091040260200160405190810160405280939291908181526020018383808284378201915050505050509192919290803590602001908201803590602001908080601f016020809104026020016040519081016040528093929190818152602001838380828437820191505050505050919291929050505061352e565b60405180826000191660001916815260200191505060405180910390f35b3480156115c957600080fd5b506115ec60048036038101908080356000191690602001909291905050506137d2565b604051808215151515815260200191505060405180910390f35b34801561161257600080fd5b5061161b6137f2565b604051808273ffffffffffffffffffffffffffffffffffffffff1673ffffffffffffffffffffffffffffffffffffffff16815260200191505060405180910390f35b34801561166957600080fd5b50611672613818565b604051808273ffffffffffffffffffffffffffffffffffffffff1673ffffffffffffffffffffffffffffffffffffffff16815260200191505060405180910390f35b3480156116c057600080fd5b506118636004803603810190808060e00190600780602002604051908101604052809291908260076020028082843782019150505050509192919290806101200190600980602002604051908101604052809291908260096020028082843782019150505050509192919290803560ff169060200190929190803560ff169060200190929190803560ff169060200190929190803560ff169060200190929190803590602001908201803590602001908080601f0160208091040260200160405190810160405280939291908181526020018383808284378201915050505050509192919290803590602001908201803590602001908080601f0160208091040260200160405190810160405280939291908181526020018383808284378201915050505050509192919290803590602001908201803590602001908080601f0160208091040260200160405190810160405280939291908181526020018383808284378201915050505050509192919290803560ff1690602001909291908035600019169060200190929190803560001916906020019092919050505061383e565b005b611b0b600480360381019080806101c00190600e806020026040519081016040528092919082600e6020028082843782019150505050509192919290806102400190601280602002604051908101604052809291908260126020028082843782019150505050509192919290806101000190600880602002604051908101604052809291908260086020028082843782019150505050509192919290803590602001908201803590602001908080601f0160208091040260200160405190810160405280939291908181526020018383808284378201915050505050509192919290803590602001908201803590602001908080601f0160208091040260200160405190810160405280939291908181526020018383808284378201915050505050509192919290803590602001908201803590602001908080601f0160208091040260200160405190810160405280939291908181526020018383808284378201915050505050509192919290803590602001908201803590602001908080601f0160208091040260200160405190810160405280939291908181526020018383808284378201915050505050509192919290803590602001908201803590602001908080601f0160208091040260200160405190810160405280939291908181526020018383808284378201915050505050509192919290803590602001908201803590602001908080601f016020809104026020016040519081016040528093929190818152602001838380828437820191505050505050919291929080604001906002806020026040519081016040528092919082600260200280828437820191505050505091929192908060a00190600580602002604051908101604052809291908260056020028082843782019150505050509192919290505050613b06565b005b348015611b1957600080fd5b50611c936004803603810190808060e00190600780602002604051908101604052809291908260076020028082843782019150505050509192919290806101200190600980602002604051908101604052809291908260096020028082843782019150505050509192919290803560ff169060200190929190803560ff169060200190929190803560ff169060200190929190803560ff169060200190929190803590602001908201803590602001908080601f0160208091040260200160405190810160405280939291908181526020018383808284378201915050505050509192919290803590602001908201803590602001908080601f0160208091040260200160405190810160405280939291908181526020018383808284378201915050505050509192919290803590602001908201803590602001908080601f016020809104026020016040519081016040528093929190818152602001838380828437820191505050505050919291929050505061420d565b604051808215151515815260200191505060405180910390f35b348015611cb957600080fd5b50611cc26144bd565b6040518082815260200191505060405180910390f35b348015611ce457600080fd5b50611f2d600480360381019080806101c00190600e806020026040519081016040528092919082600e6020028082843782019150505050509192919290806102400190601280602002604051908101604052809291908260126020028082843782019150505050509192919290806101000190600880602002604051908101604052809291908260086020028082843782019150505050509192919290803590602001908201803590602001908080601f0160208091040260200160405190810160405280939291908181526020018383808284378201915050505050509192919290803590602001908201803590602001908080601f0160208091040260200160405190810160405280939291908181526020018383808284378201915050505050509192919290803590602001908201803590602001908080601f0160208091040260200160405190810160405280939291908181526020018383808284378201915050505050509192919290803590602001908201803590602001908080601f0160208091040260200160405190810160405280939291908181526020018383808284378201915050505050509192919290803590602001908201803590602001908080601f0160208091040260200160405190810160405280939291908181526020018383808284378201915050505050509192919290803590602001908201803590602001908080601f01602080910402602001604051908101604052809392919081815260200183838082843782019150505050505091929192905050506144c3565b6040518082815260200191505060405180910390f35b348015611f4f57600080fd5b50611f726004803603810190808035600019169060200190929190505050614b12565b604051808215151515815260200191505060405180910390f35b348015611f9857600080fd5b50611fcd600480360381019080803573ffffffffffffffffffffffffffffffffffffffff169060200190929190505050614b32565b005b6040805190810160405280601781526020017f50726f6a6563742057797665726e2045786368616e676500000000000000000081525081565b600360009054906101000a900473ffffffffffffffffffffffffffffffffffffffff1681565b60006060600083518551016040519080825280601f01601f19166020018201604052801561206b5781602001602082028038833980820191505090505b50915060208201905061207e8185614c8a565b905061208a8186614c8a565b506000604051835160208501895afa925082925050509392505050565b600060019054906101000a900473ffffffffffffffffffffffffffffffffffffffff1673ffffffffffffffffffffffffffffffffffffffff163373ffffffffffffffffffffffffffffffffffffffff1614151561210357600080fd5b8060068190555050565b600060019054906101000a900473ffffffffffffffffffffffffffffffffffffffff1673ffffffffffffffffffffffffffffffffffffffff163373ffffffffffffffffffffffffffffffffffffffff1614151561216957600080fd5b8060078190555050565b6060612180848484614cd6565b8390509392505050565b60075481565b6040805190810160405280600c81526020017f4c616d62746f6e20576f726d000000000000000000000000000000000000000081525081565b606080600060146040519080825280601f01601f1916602001820160405280156122025781602001602082028038833980820191505090505b5091506020820190506122158185614f7e565b508192505050919050565b606080600083516040519080825280601f01601f1916602001820160405280156122595781602001602082028038833980820191505090505b50915060208201905061226c8185614c8a565b508192505050919050565b600061250c6102e0604051908101604052808c600060078110151561229857fe5b602002015173ffffffffffffffffffffffffffffffffffffffff1681526020018c60016007811015156122c757fe5b602002015173ffffffffffffffffffffffffffffffffffffffff1681526020018c60026007811015156122f657fe5b602002015173ffffffffffffffffffffffffffffffffffffffff1681526020018b600060098110151561232557fe5b602002015181526020018b600160098110151561233e57fe5b602002015181526020018b600260098110151561235757fe5b602002015181526020018b600360098110151561237057fe5b602002015181526020018c600360078110151561238957fe5b602002015173ffffffffffffffffffffffffffffffffffffffff1681526020018a60018111156123b557fe5b81526020018960018111156123c657fe5b81526020018860018111156123d757fe5b81526020018c60046007811015156123eb57fe5b602002015173ffffffffffffffffffffffffffffffffffffffff16815260200187600181111561241757fe5b81526020018681526020018581526020018c600560078110151561243757fe5b602002015173ffffffffffffffffffffffffffffffffffffffff1681526020018481526020018c600660078110151561246c57fe5b602002015173ffffffffffffffffffffffffffffffffffffffff1681526020018b600460098110151561249b57fe5b602002015181526020018b60056009811015156124b457fe5b602002015181526020018b60066009811015156124cd57fe5b602002015181526020018b60076009811015156124e657fe5b602002015181526020018b60086009811015156124ff57fe5b6020020151815250614fb4565b90509998505050505050505050565b600060019054906101000a900473ffffffffffffffffffffffffffffffffffffffff1673ffffffffffffffffffffffffffffffffffffffff163373ffffffffffffffffffffffffffffffffffffffff1614151561257757600080fd5b80600860006101000a81548173ffffffffffffffffffffffffffffffffffffffff021916908373ffffffffffffffffffffffffffffffffffffffff16021790555050565b6040805190810160405280600381526020017f322e32000000000000000000000000000000000000000000000000000000000081525081565b6000808451111561260b5761260a858486614cd6565b5b60008251111561262157612620838684614cd6565b5b61262b8584614fe9565b9050949350505050565b600061263f61748a565b6102e0604051908101604052808f600060078110151561265b57fe5b602002015173ffffffffffffffffffffffffffffffffffffffff1681526020018f600160078110151561268a57fe5b602002015173ffffffffffffffffffffffffffffffffffffffff1681526020018f60026007811015156126b957fe5b602002015173ffffffffffffffffffffffffffffffffffffffff1681526020018e60006009811015156126e857fe5b602002015181526020018e600160098110151561270157fe5b602002015181526020018e600260098110151561271a57fe5b602002015181526020018e600360098110151561273357fe5b602002015181526020018f600360078110151561274c57fe5b602002015173ffffffffffffffffffffffffffffffffffffffff1681526020018d600181111561277857fe5b81526020018c600181111561278957fe5b81526020018b600181111561279a57fe5b81526020018f60046007811015156127ae57fe5b602002015173ffffffffffffffffffffffffffffffffffffffff1681526020018a60018111156127da57fe5b81526020018981526020018881526020018f60056007811015156127fa57fe5b602002015173ffffffffffffffffffffffffffffffffffffffff1681526020018781526020018f600660078110151561282f57fe5b602002015173ffffffffffffffffffffffffffffffffffffffff1681526020018e600460098110151561285e57fe5b602002015181526020018e600560098110151561287757fe5b602002015181526020018e600660098110151561289057fe5b602002015181526020018e60076009811015156128a957fe5b602002015181526020018e60086009811015156128c257fe5b6020020151815250905061290e6128d882615058565b6128e1836150af565b836060604051908101604052808a60ff168152602001896000191681526020018860001916815250615106565b9150509c9b505050505050505050505050565b6000612931878787878787615335565b90509695505050505050565b600860009054906101000a900473ffffffffffffffffffffffffffffffffffffffff1681565b6000612bf86102e0604051908101604052808c600060078110151561298457fe5b602002015173ffffffffffffffffffffffffffffffffffffffff1681526020018c60016007811015156129b357fe5b602002015173ffffffffffffffffffffffffffffffffffffffff1681526020018c60026007811015156129e257fe5b602002015173ffffffffffffffffffffffffffffffffffffffff1681526020018b6000600981101515612a1157fe5b602002015181526020018b6001600981101515612a2a57fe5b602002015181526020018b6002600981101515612a4357fe5b602002015181526020018b6003600981101515612a5c57fe5b602002015181526020018c6003600781101515612a7557fe5b602002015173ffffffffffffffffffffffffffffffffffffffff1681526020018a6001811115612aa157fe5b8152602001896001811115612ab257fe5b8152602001886001811115612ac357fe5b81526020018c6004600781101515612ad757fe5b602002015173ffffffffffffffffffffffffffffffffffffffff168152602001876001811115612b0357fe5b81526020018681526020018581526020018c6005600781101515612b2357fe5b602002015173ffffffffffffffffffffffffffffffffffffffff1681526020018481526020018c6006600781101515612b5857fe5b602002015173ffffffffffffffffffffffffffffffffffffffff1681526020018b6004600981101515612b8757fe5b602002015181526020018b6005600981101515612ba057fe5b602002015181526020018b6006600981101515612bb957fe5b602002015181526020018b6007600981101515612bd257fe5b602002015181526020018b6008600981101515612beb57fe5b60200201518152506153f0565b90509998505050505050505050565b6000612c1161748a565b612c1961748a565b6102e0604051908101604052808d6000600e81101515612c3557fe5b602002015173ffffffffffffffffffffffffffffffffffffffff1681526020018d6001600e81101515612c6457fe5b602002015173ffffffffffffffffffffffffffffffffffffffff1681526020018d6002600e81101515612c9357fe5b602002015173ffffffffffffffffffffffffffffffffffffffff1681526020018c6000601281101515612cc257fe5b602002015181526020018c6001601281101515612cdb57fe5b602002015181526020018c6002601281101515612cf457fe5b602002015181526020018c6003601281101515612d0d57fe5b602002015181526020018d6003600e81101515612d2657fe5b602002015173ffffffffffffffffffffffffffffffffffffffff1681526020018b6000600881101515612d5557fe5b602002015160ff166001811115612d6857fe5b6001811115612d7357fe5b81526020018b6001600881101515612d8757fe5b602002015160ff166001811115612d9a57fe5b6001811115612da557fe5b81526020018b6002600881101515612db957fe5b602002015160ff166001811115612dcc57fe5b6001811115612dd757fe5b81526020018d6004600e81101515612deb57fe5b602002015173ffffffffffffffffffffffffffffffffffffffff1681526020018b6003600881101515612e1a57fe5b602002015160ff166001811115612e2d57fe5b6001811115612e3857fe5b81526020018a81526020018881526020018d6005600e81101515612e5857fe5b602002015173ffffffffffffffffffffffffffffffffffffffff1681526020018681526020018d6006600e81101515612e8d57fe5b602002015173ffffffffffffffffffffffffffffffffffffffff1681526020018c6004601281101515612ebc57fe5b602002015181526020018c6005601281101515612ed557fe5b602002015181526020018c6006601281101515612eee57fe5b602002015181526020018c6007601281101515612f0757fe5b602002015181526020018c6008601281101515612f2057fe5b602002015181525091506102e0604051908101604052808d6007600e81101515612f4657fe5b602002015173ffffffffffffffffffffffffffffffffffffffff1681526020018d6008600e81101515612f7557fe5b602002015173ffffffffffffffffffffffffffffffffffffffff1681526020018d6009600e81101515612fa457fe5b602002015173ffffffffffffffffffffffffffffffffffffffff1681526020018c6009601281101515612fd357fe5b602002015181526020018c600a601281101515612fec57fe5b602002015181526020018c600b60128110151561300557fe5b602002015181526020018c600c60128110151561301e57fe5b602002015181526020018d600a600e8110151561303757fe5b602002015173ffffffffffffffffffffffffffffffffffffffff1681526020018b600460088110151561306657fe5b602002015160ff16600181111561307957fe5b600181111561308457fe5b81526020018b600560088110151561309857fe5b602002015160ff1660018111156130ab57fe5b60018111156130b657fe5b81526020018b60066008811015156130ca57fe5b602002015160ff1660018111156130dd57fe5b60018111156130e857fe5b81526020018d600b600e811015156130fc57fe5b602002015173ffffffffffffffffffffffffffffffffffffffff1681526020018b600760088110151561312b57fe5b602002015160ff16600181111561313e57fe5b600181111561314957fe5b81526020018981526020018781526020018d600c600e8110151561316957fe5b602002015173ffffffffffffffffffffffffffffffffffffffff1681526020018581526020018d600d600e8110151561319e57fe5b602002015173ffffffffffffffffffffffffffffffffffffffff1681526020018c600d6012811015156131cd57fe5b602002015181526020018c600e6012811015156131e657fe5b602002015181526020018c600f6012811015156131ff57fe5b602002015181526020018c601060128110151561321857fe5b602002015181526020018c601160128110151561323157fe5b6020020151815250905061324582826155fc565b925050509998505050505050505050565b61325e61748a565b6102e0604051908101604052808c600060078110151561327a57fe5b602002015173ffffffffffffffffffffffffffffffffffffffff1681526020018c60016007811015156132a957fe5b602002015173ffffffffffffffffffffffffffffffffffffffff1681526020018c60026007811015156132d857fe5b602002015173ffffffffffffffffffffffffffffffffffffffff1681526020018b600060098110151561330757fe5b602002015181526020018b600160098110151561332057fe5b602002015181526020018b600260098110151561333957fe5b602002015181526020018b600360098110151561335257fe5b602002015181526020018c600360078110151561336b57fe5b602002015173ffffffffffffffffffffffffffffffffffffffff1681526020018a600181111561339757fe5b81526020018960018111156133a857fe5b81526020018860018111156133b957fe5b81526020018c60046007811015156133cd57fe5b602002015173ffffffffffffffffffffffffffffffffffffffff1681526020018760018111156133f957fe5b81526020018681526020018581526020018c600560078110151561341957fe5b602002015173ffffffffffffffffffffffffffffffffffffffff1681526020018481526020018c600660078110151561344e57fe5b602002015173ffffffffffffffffffffffffffffffffffffffff1681526020018b600460098110151561347d57fe5b602002015181526020018b600560098110151561349657fe5b602002015181526020018b60066009811015156134af57fe5b602002015181526020018b60076009811015156134c857fe5b602002015181526020018b60086009811015156134e157fe5b602002015181525090506134f5818361593f565b5050505050505050505050565b600260009054906101000a900473ffffffffffffffffffffffffffffffffffffffff1681565b60065481565b60006137c36102e0604051908101604052808c600060078110151561354f57fe5b602002015173ffffffffffffffffffffffffffffffffffffffff1681526020018c600160078110151561357e57fe5b602002015173ffffffffffffffffffffffffffffffffffffffff1681526020018c60026007811015156135ad57fe5b602002015173ffffffffffffffffffffffffffffffffffffffff1681526020018b60006009811015156135dc57fe5b602002015181526020018b60016009811015156135f557fe5b602002015181526020018b600260098110151561360e57fe5b602002015181526020018b600360098110151561362757fe5b602002015181526020018c600360078110151561364057fe5b602002015173ffffffffffffffffffffffffffffffffffffffff1681526020018a600181111561366c57fe5b815260200189600181111561367d57fe5b815260200188600181111561368e57fe5b81526020018c60046007811015156136a257fe5b602002015173ffffffffffffffffffffffffffffffffffffffff1681526020018760018111156136ce57fe5b81526020018681526020018581526020018c60056007811015156136ee57fe5b602002015173ffffffffffffffffffffffffffffffffffffffff1681526020018481526020018c600660078110151561372357fe5b602002015173ffffffffffffffffffffffffffffffffffffffff1681526020018b600460098110151561375257fe5b602002015181526020018b600560098110151561376b57fe5b602002015181526020018b600660098110151561378457fe5b602002015181526020018b600760098110151561379d57fe5b602002015181526020018b60086009811015156137b657fe5b6020020151815250615058565b90509998505050505050505050565b60046020528060005260406000206000915054906101000a900460ff1681565b600060019054906101000a900473ffffffffffffffffffffffffffffffffffffffff1681565b600160009054906101000a900473ffffffffffffffffffffffffffffffffffffffff1681565b613af86102e0604051908101604052808e600060078110151561385d57fe5b602002015173ffffffffffffffffffffffffffffffffffffffff1681526020018e600160078110151561388c57fe5b602002015173ffffffffffffffffffffffffffffffffffffffff1681526020018e60026007811015156138bb57fe5b602002015173ffffffffffffffffffffffffffffffffffffffff1681526020018d60006009811015156138ea57fe5b602002015181526020018d600160098110151561390357fe5b602002015181526020018d600260098110151561391c57fe5b602002015181526020018d600360098110151561393557fe5b602002015181526020018e600360078110151561394e57fe5b602002015173ffffffffffffffffffffffffffffffffffffffff1681526020018c600181111561397a57fe5b81526020018b600181111561398b57fe5b81526020018a600181111561399c57fe5b81526020018e60046007811015156139b057fe5b602002015173ffffffffffffffffffffffffffffffffffffffff1681526020018960018111156139dc57fe5b81526020018881526020018781526020018e60056007811015156139fc57fe5b602002015173ffffffffffffffffffffffffffffffffffffffff1681526020018681526020018e6006600781101515613a3157fe5b602002015173ffffffffffffffffffffffffffffffffffffffff1681526020018d6004600981101515613a6057fe5b602002015181526020018d6005600981101515613a7957fe5b602002015181526020018d6006600981101515613a9257fe5b602002015181526020018d6007600981101515613aab57fe5b602002015181526020018d6008600981101515613ac457fe5b60200201518152506060604051908101604052808660ff168152602001856000191681526020018460001916815250615df0565b505050505050505050505050565b6142006102e0604051908101604052808d6000600e81101515613b2557fe5b602002015173ffffffffffffffffffffffffffffffffffffffff1681526020018d6001600e81101515613b5457fe5b602002015173ffffffffffffffffffffffffffffffffffffffff1681526020018d6002600e81101515613b8357fe5b602002015173ffffffffffffffffffffffffffffffffffffffff1681526020018c6000601281101515613bb257fe5b602002015181526020018c6001601281101515613bcb57fe5b602002015181526020018c6002601281101515613be457fe5b602002015181526020018c6003601281101515613bfd57fe5b602002015181526020018d6003600e81101515613c1657fe5b602002015173ffffffffffffffffffffffffffffffffffffffff1681526020018b6000600881101515613c4557fe5b602002015160ff166001811115613c5857fe5b6001811115613c6357fe5b81526020018b6001600881101515613c7757fe5b602002015160ff166001811115613c8a57fe5b6001811115613c9557fe5b81526020018b6002600881101515613ca957fe5b602002015160ff166001811115613cbc57fe5b6001811115613cc757fe5b81526020018d6004600e81101515613cdb57fe5b602002015173ffffffffffffffffffffffffffffffffffffffff1681526020018b6003600881101515613d0a57fe5b602002015160ff166001811115613d1d57fe5b6001811115613d2857fe5b81526020018a81526020018881526020018d6005600e81101515613d4857fe5b602002015173ffffffffffffffffffffffffffffffffffffffff1681526020018681526020018d6006600e81101515613d7d57fe5b602002015173ffffffffffffffffffffffffffffffffffffffff1681526020018c6004601281101515613dac57fe5b602002015181526020018c6005601281101515613dc557fe5b602002015181526020018c6006601281101515613dde57fe5b602002015181526020018c6007601281101515613df757fe5b602002015181526020018c6008601281101515613e1057fe5b6020020151815250606060405190810160405280856000600281101515613e3357fe5b602002015160ff168152602001846000600581101515613e4f57fe5b6020020151600019168152602001846001600581101515613e6c57fe5b6020020151600019168152506102e0604051908101604052808f6007600e81101515613e9457fe5b602002015173ffffffffffffffffffffffffffffffffffffffff1681526020018f6008600e81101515613ec357fe5b602002015173ffffffffffffffffffffffffffffffffffffffff1681526020018f6009600e81101515613ef257fe5b602002015173ffffffffffffffffffffffffffffffffffffffff1681526020018e6009601281101515613f2157fe5b602002015181526020018e600a601281101515613f3a57fe5b602002015181526020018e600b601281101515613f5357fe5b602002015181526020018e600c601281101515613f6c57fe5b602002015181526020018f600a600e81101515613f8557fe5b602002015173ffffffffffffffffffffffffffffffffffffffff1681526020018d6004600881101515613fb457fe5b602002015160ff166001811115613fc757fe5b6001811115613fd257fe5b81526020018d6005600881101515613fe657fe5b602002015160ff166001811115613ff957fe5b600181111561400457fe5b81526020018d600660088110151561401857fe5b602002015160ff16600181111561402b57fe5b600181111561403657fe5b81526020018f600b600e8110151561404a57fe5b602002015173ffffffffffffffffffffffffffffffffffffffff1681526020018d600760088110151561407957fe5b602002015160ff16600181111561408c57fe5b600181111561409757fe5b81526020018b81526020018981526020018f600c600e811015156140b757fe5b602002015173ffffffffffffffffffffffffffffffffffffffff1681526020018781526020018f600d600e811015156140ec57fe5b602002015173ffffffffffffffffffffffffffffffffffffffff1681526020018e600d60128110151561411b57fe5b602002015181526020018e600e60128110151561413457fe5b602002015181526020018e600f60128110151561414d57fe5b602002015181526020018e601060128110151561416657fe5b602002015181526020018e601160128110151561417f57fe5b60200201518152506060604051908101604052808760016002811015156141a257fe5b602002015160ff1681526020018660026005811015156141be57fe5b60200201516000191681526020018660036005811015156141db57fe5b6020020151600019168152508560046005811015156141f657fe5b6020020151615ea6565b5050505050505050505050565b600061421761748a565b6102e0604051908101604052808c600060078110151561423357fe5b602002015173ffffffffffffffffffffffffffffffffffffffff1681526020018c600160078110151561426257fe5b602002015173ffffffffffffffffffffffffffffffffffffffff1681526020018c600260078110151561429157fe5b602002015173ffffffffffffffffffffffffffffffffffffffff1681526020018b60006009811015156142c057fe5b602002015181526020018b60016009811015156142d957fe5b602002015181526020018b60026009811015156142f257fe5b602002015181526020018b600360098110151561430b57fe5b602002015181526020018c600360078110151561432457fe5b602002015173ffffffffffffffffffffffffffffffffffffffff1681526020018a600181111561435057fe5b815260200189600181111561436157fe5b815260200188600181111561437257fe5b81526020018c600460078110151561438657fe5b602002015173ffffffffffffffffffffffffffffffffffffffff1681526020018760018111156143b257fe5b81526020018681526020018581526020018c60056007811015156143d257fe5b602002015173ffffffffffffffffffffffffffffffffffffffff1681526020018481526020018c600660078110151561440757fe5b602002015173ffffffffffffffffffffffffffffffffffffffff1681526020018b600460098110151561443657fe5b602002015181526020018b600560098110151561444f57fe5b602002015181526020018b600660098110151561446857fe5b602002015181526020018b600760098110151561448157fe5b602002015181526020018b600860098110151561449a57fe5b602002015181525090506144ad81616777565b9150509998505050505050505050565b61271081565b60006144cd61748a565b6144d561748a565b6102e0604051908101604052808d6000600e811015156144f157fe5b602002015173ffffffffffffffffffffffffffffffffffffffff1681526020018d6001600e8110151561452057fe5b602002015173ffffffffffffffffffffffffffffffffffffffff1681526020018d6002600e8110151561454f57fe5b602002015173ffffffffffffffffffffffffffffffffffffffff1681526020018c600060128110151561457e57fe5b602002015181526020018c600160128110151561459757fe5b602002015181526020018c60026012811015156145b057fe5b602002015181526020018c60036012811015156145c957fe5b602002015181526020018d6003600e811015156145e257fe5b602002015173ffffffffffffffffffffffffffffffffffffffff1681526020018b600060088110151561461157fe5b602002015160ff16600181111561462457fe5b600181111561462f57fe5b81526020018b600160088110151561464357fe5b602002015160ff16600181111561465657fe5b600181111561466157fe5b81526020018b600260088110151561467557fe5b602002015160ff16600181111561468857fe5b600181111561469357fe5b81526020018d6004600e811015156146a757fe5b602002015173ffffffffffffffffffffffffffffffffffffffff1681526020018b60036008811015156146d657fe5b602002015160ff1660018111156146e957fe5b60018111156146f457fe5b81526020018a81526020018881526020018d6005600e8110151561471457fe5b602002015173ffffffffffffffffffffffffffffffffffffffff1681526020018681526020018d6006600e8110151561474957fe5b602002015173ffffffffffffffffffffffffffffffffffffffff1681526020018c600460128110151561477857fe5b602002015181526020018c600560128110151561479157fe5b602002015181526020018c60066012811015156147aa57fe5b602002015181526020018c60076012811015156147c357fe5b602002015181526020018c60086012811015156147dc57fe5b602002015181525091506102e0604051908101604052808d6007600e8110151561480257fe5b602002015173ffffffffffffffffffffffffffffffffffffffff1681526020018d6008600e8110151561483157fe5b602002015173ffffffffffffffffffffffffffffffffffffffff1681526020018d6009600e8110151561486057fe5b602002015173ffffffffffffffffffffffffffffffffffffffff1681526020018c600960128110151561488f57fe5b602002015181526020018c600a6012811015156148a857fe5b602002015181526020018c600b6012811015156148c157fe5b602002015181526020018c600c6012811015156148da57fe5b602002015181526020018d600a600e811015156148f357fe5b602002015173ffffffffffffffffffffffffffffffffffffffff1681526020018b600460088110151561492257fe5b602002015160ff16600181111561493557fe5b600181111561494057fe5b81526020018b600560088110151561495457fe5b602002015160ff16600181111561496757fe5b600181111561497257fe5b81526020018b600660088110151561498657fe5b602002015160ff16600181111561499957fe5b60018111156149a457fe5b81526020018d600b600e811015156149b857fe5b602002015173ffffffffffffffffffffffffffffffffffffffff1681526020018b60076008811015156149e757fe5b602002015160ff1660018111156149fa57fe5b6001811115614a0557fe5b81526020018981526020018781526020018d600c600e81101515614a2557fe5b602002015173ffffffffffffffffffffffffffffffffffffffff1681526020018581526020018d600d600e81101515614a5a57fe5b602002015173ffffffffffffffffffffffffffffffffffffffff1681526020018c600d601281101515614a8957fe5b602002015181526020018c600e601281101515614aa257fe5b602002015181526020018c600f601281101515614abb57fe5b602002015181526020018c6010601281101515614ad457fe5b602002015181526020018c6011601281101515614aed57fe5b60200201518152509050614b018282616835565b925050509998505050505050505050565b60056020528060005260406000206000915054906101000a900460ff1681565b600060019054906101000a900473ffffffffffffffffffffffffffffffffffffffff1673ffffffffffffffffffffffffffffffffffffffff163373ffffffffffffffffffffffffffffffffffffffff16141515614b8e57600080fd5b600073ffffffffffffffffffffffffffffffffffffffff168173ffffffffffffffffffffffffffffffffffffffff1614151515614bca57600080fd5b8073ffffffffffffffffffffffffffffffffffffffff16600060019054906101000a900473ffffffffffffffffffffffffffffffffffffffff1673ffffffffffffffffffffffffffffffffffffffff167f8be0079c531659141344cd1fd0a4f28419497f9722a3daafe3b4186f6b6457e060405160405180910390a380600060016101000a81548173ffffffffffffffffffffffffffffffffffffffff021916908373ffffffffffffffffffffffffffffffffffffffff16021790555050565b60008082511115614ccd57815180602001830160208401855b60018383101415614cc35781518152602082019150602081019050614ca3565b8387019650505050505b82905092915050565b600080600084518651141515614ceb57600080fd5b83518651141515614cfb57600080fd5b60208651811515614d0857fe5b04925060208302915082602083811515614d1e57fe5b04141515614d2857fe5b600090505b82811015614d6157806001016020028085015181870151811682890151821916178289015250508080600101915050614d2d565b6000831115614d915782905080600101602002808501518187015181168289015182191617828901525050614f76565b8190505b8551811015614f75578481815181101515614dac57fe5b9060200101517f010000000000000000000000000000000000000000000000000000000000000090047f0100000000000000000000000000000000000000000000000000000000000000028482815181101515614e0557fe5b9060200101517f010000000000000000000000000000000000000000000000000000000000000090047f010000000000000000000000000000000000000000000000000000000000000002168682815181101515614e5f57fe5b9060200101517f010000000000000000000000000000000000000000000000000000000000000090047f01000000000000000000000000000000000000000000000000000000000000000260ff7f0100000000000000000000000000000000000000000000000000000000000000028684815181101515614edc57fe5b9060200101517f010000000000000000000000000000000000000000000000000000000000000090047f0100000000000000000000000000000000000000000000000000000000000000021816178682815181101515614f3857fe5b9060200101907effffffffffffffffffffffffffffffffffffffffffffffffffffffffffffff1916908160001a9053508080600101915050614d95565b5b505050505050565b60008060608373ffffffffffffffffffffffffffffffffffffffff169060020a0290508084526014840193508391505092915050565b6000614fe2826101200151836101400151846102400151856102600151866102800151876102a00151615335565b9050919050565b6000806001905083518351811460018114615007576000925061504c565b600160208701838101602088015b60028483851001141561504757805183511415156150365760009650600093505b602083019250602081019050615015565b505050505b50508091505092915050565b6000615063826153f0565b60405180807f19457468657265756d205369676e6564204d6573736167653a0a333200000000815250601c01826000191660001916815260200191505060405180910390209050919050565b60006150ba826153f0565b60405180807f194b6c6179746e205369676e6564204d6573736167653a0a3332000000000000815250601a01826000191660001916815260200191505060405180910390209050919050565b600061511183616777565b1515615120576000905061532d565b60046000866000191660001916815260200190815260200160002060009054906101000a900460ff1615615157576000905061532d565b60056000866000191660001916815260200190815260200160002060009054906101000a900460ff161561518e576001905061532d565b826020015173ffffffffffffffffffffffffffffffffffffffff16600186846000015185602001518660400151604051600081526020016040526040518085600019166000191681526020018460ff1660ff1681526020018360001916600019168152602001826000191660001916815260200194505050505060206040516020810390808403906000865af115801561522c573d6000803e3d6000fd5b5050506020604051035173ffffffffffffffffffffffffffffffffffffffff16141561525b576001905061532d565b826020015173ffffffffffffffffffffffffffffffffffffffff16600185846000015185602001518660400151604051600081526020016040526040518085600019166000191681526020018460ff1660ff1681526020018360001916600019168152602001826000191660001916815260200194505050505060206040516020810390808403906000865af11580156152f9573d6000803e3d6000fd5b5050506020604051035173ffffffffffffffffffffffffffffffffffffffff161415615328576001905061532d565b600090505b949350505050565b6000806000600181111561534557fe5b87600181111561535157fe5b141561535f578591506153e5565b60018081111561536b57fe5b87600181111561537757fe5b14156153e4576153a26153938661538e42886168f0565b616909565b61539d85876168f0565b616944565b90506001808111156153b057fe5b8860018111156153bc57fe5b14156153d3576153cc86826168f0565b91506153e5565b6153dd868261695f565b91506153e5565b5b509695505050505050565b600080606060006154008561697d565b9250826040519080825280601f01601f1916602001820160405280156154355781602001602082028038833980820191505090505b50915060208201905061544c818660000151614f7e565b905061545c818660200151614f7e565b905061546c818660400151614f7e565b905061547c8186606001516169a1565b905061548c8186608001516169a1565b905061549c818660a001516169a1565b90506154ac818660c001516169a1565b90506154bc818660e00151614f7e565b90506154d88186610100015160018111156154d357fe5b6169b5565b90506154f48186610120015160018111156154ef57fe5b6169b5565b905061551081866101400151600181111561550b57fe5b6169b5565b905061552181866101600151614f7e565b905061553d81866101800151600181111561553857fe5b6169b5565b905061554e81866101a00151614c8a565b905061555f81866101c00151614c8a565b905061557081866101e00151614f7e565b905061558181866102000151614c8a565b905061559281866102200151614f7e565b90506155a3818661024001516169a1565b90506155b4818661026001516169a1565b90506155c5818661028001516169a1565b90506155d681866102a001516169a1565b90506155e781866102c001516169a1565b90508260208301209350839350505050919050565b600080600181111561560a57fe5b836101200151600181111561561b57fe5b148015615642575060018081111561562f57fe5b826101200151600181111561564057fe5b145b801561566d5750816101000151600181111561565a57fe5b836101000151600181111561566b57fe5b145b80156156ae575081610220015173ffffffffffffffffffffffffffffffffffffffff1683610220015173ffffffffffffffffffffffffffffffffffffffff16145b80156157285750600073ffffffffffffffffffffffffffffffffffffffff16826040015173ffffffffffffffffffffffffffffffffffffffff1614806157275750826020015173ffffffffffffffffffffffffffffffffffffffff16826040015173ffffffffffffffffffffffffffffffffffffffff16145b5b80156157a25750600073ffffffffffffffffffffffffffffffffffffffff16836040015173ffffffffffffffffffffffffffffffffffffffff1614806157a15750816020015173ffffffffffffffffffffffffffffffffffffffff16836040015173ffffffffffffffffffffffffffffffffffffffff16145b5b80156158935750600073ffffffffffffffffffffffffffffffffffffffff168260e0015173ffffffffffffffffffffffffffffffffffffffff1614801561581a5750600073ffffffffffffffffffffffffffffffffffffffff168360e0015173ffffffffffffffffffffffffffffffffffffffff1614155b806158925750600073ffffffffffffffffffffffffffffffffffffffff168260e0015173ffffffffffffffffffffffffffffffffffffffff16141580156158915750600073ffffffffffffffffffffffffffffffffffffffff168360e0015173ffffffffffffffffffffffffffffffffffffffff16145b5b5b80156158d4575081610160015173ffffffffffffffffffffffffffffffffffffffff1683610160015173ffffffffffffffffffffffffffffffffffffffff16145b80156158ff575081610180015160018111156158ec57fe5b83610180015160018111156158fd57fe5b145b801561591b575061591a836102800151846102a001516169c9565b5b80156159375750615936826102800151836102a001516169c9565b5b905092915050565b6000826020015173ffffffffffffffffffffffffffffffffffffffff163373ffffffffffffffffffffffffffffffffffffffff1614151561597f57600080fd5b61598883615058565b905060056000826000191660001916815260200190815260200160002060009054906101000a900460ff161515156159bf57600080fd5b600160056000836000191660001916815260200190815260200160002060006101000a81548160ff0219169083151502179055508260e0015173ffffffffffffffffffffffffffffffffffffffff16836020015173ffffffffffffffffffffffffffffffffffffffff1682600019167f90c7f9f5b58c15f0f635bfb99f55d3d78fdbef3559e7d8abf5c81052a527662286600001518760400151886060015189608001518a60a001518b60c001518c61010001518d61012001518e61014001518f6101600151604051808b73ffffffffffffffffffffffffffffffffffffffff1673ffffffffffffffffffffffffffffffffffffffff1681526020018a73ffffffffffffffffffffffffffffffffffffffff1673ffffffffffffffffffffffffffffffffffffffff168152602001898152602001888152602001878152602001868152602001856001811115615b1157fe5b60ff168152602001846001811115615b2557fe5b60ff168152602001836001811115615b3957fe5b60ff1681526020018273ffffffffffffffffffffffffffffffffffffffff1673ffffffffffffffffffffffffffffffffffffffff1681526020019a505050505050505050505060405180910390a480600019167fe55393c778364e440d958b39ac1debd99dcfae3775a8a04d1e79124adf6a2d08846101800151856101a00151866101c00151876101e001518861020001518961022001518a61024001518b61026001518c61028001518d6102a001518e6102c001518e604051808d6001811115615c0057fe5b60ff16815260200180602001806020018c73ffffffffffffffffffffffffffffffffffffffff1673ffffffffffffffffffffffffffffffffffffffff168152602001806020018b73ffffffffffffffffffffffffffffffffffffffff1673ffffffffffffffffffffffffffffffffffffffff1681526020018a81526020018981526020018881526020018781526020018681526020018515151515815260200184810384528f818151815260200191508051906020019080838360005b83811015615cd8578082015181840152602081019050615cbd565b50505050905090810190601f168015615d055780820380516001836020036101000a031916815260200191505b5084810383528e818151815260200191508051906020019080838360005b83811015615d3e578082015181840152602081019050615d23565b50505050905090810190601f168015615d6b5780820380516001836020036101000a031916815260200191505b5084810382528c818151815260200191508051906020019080838360005b83811015615da4578082015181840152602081019050615d89565b50505050905090810190601f168015615dd15780820380516001836020036101000a031916815260200191505b509f5050505050505050505050505050505060405180910390a2505050565b6000615dfc83836169ec565b9050826020015173ffffffffffffffffffffffffffffffffffffffff163373ffffffffffffffffffffffffffffffffffffffff16141515615e3c57600080fd5b600160046000836000191660001916815260200190815260200160002060006101000a81548160ff02191690831515021790555080600019167f5152abf959f6564662358c2e52b702259b78bac5ee7842a0f01937e670efcc7d60405160405180910390a2505050565b60008060008060008060008060009054906101000a900460ff1615615eca57600080fd5b60016000806101000a81548160ff0219169083151502179055503373ffffffffffffffffffffffffffffffffffffffff168c6020015173ffffffffffffffffffffffffffffffffffffffff161415615f3557615f258c616777565b1515615f3057600080fd5b615f42565b615f3f8c8c6169ec565b96505b3373ffffffffffffffffffffffffffffffffffffffff168a6020015173ffffffffffffffffffffffffffffffffffffffff161415615f9357615f838a616777565b1515615f8e57600080fd5b615fa0565b615f9d8a8a6169ec565b95505b615faa8c8b6155fc565b1515615fb557600080fd5b8961016001519350833b9450600085111515615fd057600080fd5b60008c6101c00151511115615ffa57615ff98c6101a001518b6101a001518e6101c00151614cd6565b5b60008a6101c00151511115616024576160238a6101a001518d6101a001518c6101c00151614cd6565b5b6160388c6101a001518b6101a00151614fe9565b151561604357600080fd5b600260009054906101000a900473ffffffffffffffffffffffffffffffffffffffff1673ffffffffffffffffffffffffffffffffffffffff1663c45527918b602001516040518263ffffffff167c0100000000000000000000000000000000000000000000000000000000028152600401808273ffffffffffffffffffffffffffffffffffffffff1673ffffffffffffffffffffffffffffffffffffffff168152602001915050602060405180830381600087803b15801561610457600080fd5b505af1158015616118573d6000803e3d6000fd5b505050506040513d602081101561612e57600080fd5b81019080805190602001909291905050509250600073ffffffffffffffffffffffffffffffffffffffff168373ffffffffffffffffffffffffffffffffffffffff161415151561617d57600080fd5b600260009054906101000a900473ffffffffffffffffffffffffffffffffffffffff1673ffffffffffffffffffffffffffffffffffffffff166397204d8e6040518163ffffffff167c0100000000000000000000000000000000000000000000000000000000028152600401602060405180830381600087803b15801561620357600080fd5b505af1158015616217573d6000803e3d6000fd5b505050506040513d602081101561622d57600080fd5b810190808051906020019092919050505073ffffffffffffffffffffffffffffffffffffffff168373ffffffffffffffffffffffffffffffffffffffff16635c60da1b6040518163ffffffff167c0100000000000000000000000000000000000000000000000000000000028152600401602060405180830381600087803b1580156162b857600080fd5b505af11580156162cc573d6000803e3d6000fd5b505050506040513d60208110156162e257600080fd5b810190808051906020019092919050505073ffffffffffffffffffffffffffffffffffffffff1614151561631557600080fd5b8291508b6020015173ffffffffffffffffffffffffffffffffffffffff163373ffffffffffffffffffffffffffffffffffffffff1614151561638657600160046000896000191660001916815260200190815260200160002060006101000a81548160ff0219169083151502179055505b896020015173ffffffffffffffffffffffffffffffffffffffff163373ffffffffffffffffffffffffffffffffffffffff161415156163f457600160046000886000191660001916815260200190815260200160002060006101000a81548160ff0219169083151502179055505b6163fe8c8b616a29565b90508173ffffffffffffffffffffffffffffffffffffffff16631b0f7ba98b61016001518c61018001518d6101a001516040518463ffffffff167c0100000000000000000000000000000000000000000000000000000000028152600401808473ffffffffffffffffffffffffffffffffffffffff1673ffffffffffffffffffffffffffffffffffffffff16815260200183600181111561649b57fe5b60ff16815260200180602001828103825283818151815260200191508051906020019080838360005b838110156164df5780820151818401526020810190506164c4565b50505050905090810190601f16801561650c5780820380516001836020036101000a031916815260200191505b50945050505050602060405180830381600087803b15801561652d57600080fd5b505af1158015616541573d6000803e3d6000fd5b505050506040513d602081101561655757600080fd5b8101908080519060200190929190505050151561657357600080fd5b600073ffffffffffffffffffffffffffffffffffffffff168c6101e0015173ffffffffffffffffffffffffffffffffffffffff161415156165d4576165c88c6101e001518b6101a001518e610200015161202e565b15156165d357600080fd5b5b600073ffffffffffffffffffffffffffffffffffffffff168a6101e0015173ffffffffffffffffffffffffffffffffffffffff16141515616635576166298a6101e001518b6101a001518c610200015161202e565b151561663457600080fd5b5b8760001916600073ffffffffffffffffffffffffffffffffffffffff168b60e0015173ffffffffffffffffffffffffffffffffffffffff16141561667d578a60200151616683565b8c602001515b73ffffffffffffffffffffffffffffffffffffffff16600073ffffffffffffffffffffffffffffffffffffffff168c60e0015173ffffffffffffffffffffffffffffffffffffffff1614156166dc578d602001516166e2565b8b602001515b73ffffffffffffffffffffffffffffffffffffffff167fc4109843e0b7d514e4c093114b863f8e7d8d9a458c372cd51bfe526b588006c98a8a866040518084600019166000191681526020018360001916600019168152602001828152602001935050505060405180910390a460008060006101000a81548160ff021916908315150217905550505050505050505050505050565b60003073ffffffffffffffffffffffffffffffffffffffff16826000015173ffffffffffffffffffffffffffffffffffffffff161415156167bb5760009050616830565b6167cf826101400151836102a001516172a6565b15156167de5760009050616830565b6001808111156167ea57fe5b82610100015160018111156167fb57fe5b14801561681d57506006548260a00151108061681c57506007548260c00151105b5b1561682b5760009050616830565b600190505b919050565b6000806000616866846101200151856101400151866102400151876102600151886102800151896102a00151615335565b91506168948561012001518661014001518761024001518861026001518961028001518a6102a00151615335565b90508181101515156168a557600080fd5b600073ffffffffffffffffffffffffffffffffffffffff168460e0015173ffffffffffffffffffffffffffffffffffffffff1614156168e457806168e6565b815b9250505092915050565b60008282111515156168fe57fe5b818303905092915050565b600080600084141561691e576000915061693d565b828402905082848281151561692f57fe5b0414151561693957fe5b8091505b5092915050565b600080828481151561695257fe5b0490508091505092915050565b600080828401905083811015151561697357fe5b8091505092915050565b600081610200015151826101c0015151836101a00151516101b00101019050919050565b600081835260208301925082905092915050565b600081835360018301925082905092915050565b600042831080156169e4575060008214806169e357508142105b5b905092915050565b60008060006169fa85615058565b9150616a05856150af565b9050616a1382828787615106565b1515616a1e57600080fd5b819250505092915050565b60008060008060008060008060008073ffffffffffffffffffffffffffffffffffffffff168a610220015173ffffffffffffffffffffffffffffffffffffffff16141515616a8157600034141515616a8057600080fd5b5b616a8b8b8b616835565b9750600088118015616acf5750600073ffffffffffffffffffffffffffffffffffffffff168a610220015173ffffffffffffffffffffffffffffffffffffffff1614155b15616aee57616aed8a61022001518c602001518c602001518b6172d4565b5b879650879550600073ffffffffffffffffffffffffffffffffffffffff168a60e0015173ffffffffffffffffffffffffffffffffffffffff16141515616f94578a608001518a6080015111151515616b4557600080fd5b600180811115616b5157fe5b8a61010001516001811115616b6257fe5b1415616f60578a60c001518a60c0015111151515616b7f57600080fd5b60008a606001511115616c5857616ba5616b9d8b606001518a616909565b612710616944565b9450600073ffffffffffffffffffffffffffffffffffffffff168a610220015173ffffffffffffffffffffffffffffffffffffffff161415616c3d57616beb87866168f0565b96508960e0015173ffffffffffffffffffffffffffffffffffffffff166108fc869081150290604051600060405180830381858888f19350505050158015616c37573d6000803e3d6000fd5b50616c57565b616c568a61022001518b602001518c60e00151886172d4565b5b5b60008a608001511115616d3157616c7e616c768b608001518a616909565b612710616944565b9350600073ffffffffffffffffffffffffffffffffffffffff168a610220015173ffffffffffffffffffffffffffffffffffffffff161415616d1657616cc4868561695f565b95508960e0015173ffffffffffffffffffffffffffffffffffffffff166108fc859081150290604051600060405180830381858888f19350505050158015616d10573d6000803e3d6000fd5b50616d30565b616d2f8a61022001518c602001518c60e00151876172d4565b5b5b60008a60a001511115616e4657616d57616d4f8b60a001518a616909565b612710616944565b9250600073ffffffffffffffffffffffffffffffffffffffff168a610220015173ffffffffffffffffffffffffffffffffffffffff161415616e0d57616d9d87846168f0565b9650600860009054906101000a900473ffffffffffffffffffffffffffffffffffffffff1673ffffffffffffffffffffffffffffffffffffffff166108fc849081150290604051600060405180830381858888f19350505050158015616e07573d6000803e3d6000fd5b50616e45565b616e448a61022001518b60200151600860009054906101000a900473ffffffffffffffffffffffffffffffffffffffff16866172d4565b5b5b60008a60c001511115616f5b57616e6c616e648b60c001518a616909565b612710616944565b9150600073ffffffffffffffffffffffffffffffffffffffff168a610220015173ffffffffffffffffffffffffffffffffffffffff161415616f2257616eb2868361695f565b9550600860009054906101000a900473ffffffffffffffffffffffffffffffffffffffff1673ffffffffffffffffffffffffffffffffffffffff166108fc839081150290604051600060405180830381858888f19350505050158015616f1c573d6000803e3d6000fd5b50616f5a565b616f598a61022001518c60200151600860009054906101000a900473ffffffffffffffffffffffffffffffffffffffff16856172d4565b5b5b616f8f565b616f778a602001518b60e001518c60600151617457565b616f8e8b602001518b60e001518c60800151617457565b5b61719f565b89608001518b6080015111151515616fab57600080fd5b600180811115616fb757fe5b8a61010001516001811115616fc857fe5b141561716f57600073ffffffffffffffffffffffffffffffffffffffff168a610220015173ffffffffffffffffffffffffffffffffffffffff161415151561700f57600080fd5b8960c001518b60c001511115151561702657600080fd5b60008b6060015111156170685761704c6170448c606001518a616909565b612710616944565b94506170678a61022001518c602001518d60e00151886172d4565b5b60008b6080015111156170aa5761708e6170868c608001518a616909565b612710616944565b93506170a98a61022001518b602001518d60e00151876172d4565b5b60008b60a00151111561710a576170d06170c88c60a001518a616909565b612710616944565b92506171098a61022001518c60200151600860009054906101000a900473ffffffffffffffffffffffffffffffffffffffff16866172d4565b5b60008b60c00151111561716a576171306171288c60c001518a616909565b612710616944565b91506171698a61022001518b60200151600860009054906101000a900473ffffffffffffffffffffffffffffffffffffffff16856172d4565b5b61719e565b6171868b602001518c60e001518d60600151617457565b61719d8a602001518c60e001518d60800151617457565b5b5b600073ffffffffffffffffffffffffffffffffffffffff168a610220015173ffffffffffffffffffffffffffffffffffffffff161415617295578534101515156171e857600080fd5b896020015173ffffffffffffffffffffffffffffffffffffffff166108fc889081150290604051600060405180830381858888f19350505050158015617232573d6000803e3d6000fd5b5061723d34876168f0565b90506000811115617294578a6020015173ffffffffffffffffffffffffffffffffffffffff166108fc829081150290604051600060405180830381858888f19350505050158015617292573d6000803e3d6000fd5b505b5b879850505050505050505092915050565b60008060018111156172b457fe5b8360018111156172c057fe5b14806172cc5750600082115b905092915050565b600081111561745157600360009054906101000a900473ffffffffffffffffffffffffffffffffffffffff1673ffffffffffffffffffffffffffffffffffffffff166315dacbea858585856040518563ffffffff167c0100000000000000000000000000000000000000000000000000000000028152600401808573ffffffffffffffffffffffffffffffffffffffff1673ffffffffffffffffffffffffffffffffffffffff1681526020018473ffffffffffffffffffffffffffffffffffffffff1673ffffffffffffffffffffffffffffffffffffffff1681526020018373ffffffffffffffffffffffffffffffffffffffff1673ffffffffffffffffffffffffffffffffffffffff168152602001828152602001945050505050602060405180830381600087803b15801561740a57600080fd5b505af115801561741e573d6000803e3d6000fd5b505050506040513d602081101561743457600080fd5b8101908080519060200190929190505050151561745057600080fd5b5b50505050565b617485600160009054906101000a900473ffffffffffffffffffffffffffffffffffffffff168484846172d4565b505050565b6102e060405190810160405280600073ffffffffffffffffffffffffffffffffffffffff168152602001600073ffffffffffffffffffffffffffffffffffffffff168152602001600073ffffffffffffffffffffffffffffffffffffffff16815260200160008152602001600081526020016000815260200160008152602001600073ffffffffffffffffffffffffffffffffffffffff1681526020016000600181111561753457fe5b81526020016000600181111561754657fe5b81526020016000600181111561755857fe5b8152602001600073ffffffffffffffffffffffffffffffffffffffff1681526020016000600181111561758757fe5b81526020016060815260200160608152602001600073ffffffffffffffffffffffffffffffffffffffff16815260200160608152602001600073ffffffffffffffffffffffffffffffffffffffff168152602001600081526020016000815260200160008152602001600081526020016000815250905600a165627a7a72305820a3c0dc3b4ee89798b0f122d8f6b5d3ec5b6457a90d4e80ae63fcc43442e6072a0029",
  "source": "/*\n\n  << Project Wyvern Exchange >>\n\n*/\n\npragma solidity 0.4.23;\n\nimport \"./exchange/Exchange.sol\";\n\n/**\n * @title WyvernExchange\n * @author Project Wyvern Developers\n */\ncontract WyvernExchange is Exchange {\n\n    string public constant name = \"Project Wyvern Exchange\";\n\n    string public constant version = \"2.2\";\n\n    string public constant codename = \"Lambton Worm\";\n\n    /**\n     * @dev Initialize a WyvernExchange instance\n     * @param registryAddress Address of the registry instance which this Exchange instance will use\n     * @param tokenAddress Address of the token used for protocol fees\n     */\n    constructor (ProxyRegistry registryAddress, TokenTransferProxy tokenTransferProxyAddress, ERC20 tokenAddress, address protocolFeeAddress) public {\n        registry = registryAddress;\n        tokenTransferProxy = tokenTransferProxyAddress;\n        exchangeToken = tokenAddress;\n        protocolFeeRecipient = protocolFeeAddress;\n        owner = msg.sender;\n    }\n\n}\n",
  "sourcePath": "/Users/joongyu.sun/workspace/blockchain/blocks/workspace.0315/wyvern-ethereum/contracts/WyvernExchange.sol",
  "compiler": {
    "name": "solc",
    "version": "0.4.23+commit.124ca40d.Emscripten.clang"
  },
  "schemaVersion": "2.0.0",
  "updatedAt": "2023-03-24T11:35:16.673Z"
}