{
  "contractName": "OwnableDelegateProxy",
  "abi": [
    {
      "constant": true,
      "inputs": [],
      "name": "proxyOwner",
      "outputs": [
        {
          "name": "",
          "type": "address"
        }
      ],
      "payable": false,
      "stateMutability": "view",
      "type": "function"
    },
    {
      "constant": false,
      "inputs": [
        {
          "name": "implementation",
          "type": "address"
        }
      ],
      "name": "upgradeTo",
      "outputs": [],
      "payable": false,
      "stateMutability": "nonpayable",
      "type": "function"
    },
    {
      "constant": true,
      "inputs": [],
      "name": "proxyType",
      "outputs": [
        {
          "name": "proxyTypeId",
          "type": "uint256"
        }
      ],
      "payable": false,
      "stateMutability": "pure",
      "type": "function"
    },
    {
      "constant": false,
      "inputs": [
        {
          "name": "implementation",
          "type": "address"
        },
        {
          "name": "data",
          "type": "bytes"
        }
      ],
      "name": "upgradeToAndCall",
      "outputs": [],
      "payable": true,
      "stateMutability": "payable",
      "type": "function"
    },
    {
      "constant": true,
      "inputs": [],
      "name": "implementation",
      "outputs": [
        {
          "name": "",
          "type": "address"
        }
      ],
      "payable": false,
      "stateMutability": "view",
      "type": "function"
    },
    {
      "constant": true,
      "inputs": [],
      "name": "upgradeabilityOwner",
      "outputs": [
        {
          "name": "",
          "type": "address"
        }
      ],
      "payable": false,
      "stateMutability": "view",
      "type": "function"
    },
    {
      "constant": false,
      "inputs": [
        {
          "name": "newOwner",
          "type": "address"
        }
      ],
      "name": "transferProxyOwnership",
      "outputs": [],
      "payable": false,
      "stateMutability": "nonpayable",
      "type": "function"
    },
    {
      "inputs": [
        {
          "name": "owner",
          "type": "address"
        },
        {
          "name": "initialImplementation",
          "type": "address"
        },
        {
          "name": "calldata",
          "type": "bytes"
        }
      ],
      "payable": false,
      "stateMutability": "nonpayable",
      "type": "constructor"
    },
    {
      "payable": true,
      "stateMutability": "payable",
      "type": "fallback"
    },
    {
      "anonymous": false,
      "inputs": [
        {
          "indexed": false,
          "name": "previousOwner",
          "type": "address"
        },
        {
          "indexed": false,
          "name": "newOwner",
          "type": "address"
        }
      ],
      "name": "ProxyOwnershipTransferred",
      "type": "event"
    },
    {
      "anonymous": false,
      "inputs": [
        {
          "indexed": true,
          "name": "implementation",
          "type": "address"
        }
      ],
      "name": "Upgraded",
      "type": "event"
    }
  ],
  "bytecode": "0x608060405234801561001057600080fd5b506040516106c73803806106c78339810160409081528151602083015191830151909201610046836401000000006100e0810204565b61005882640100000000610102810204565b81600160a060020a03168160405180828051906020019080838360005b8381101561008d578181015183820152602001610075565b50505050905090810190601f1680156100ba5780820380516001836020036101000a031916815260200191505b50915050600060405180830381855af491505015156100d857600080fd5b505050610165565b60018054600160a060020a031916600160a060020a0392909216919091179055565b600054600160a060020a038281169116141561011d57600080fd5b60008054600160a060020a031916600160a060020a038316908117825560405190917fbc7cd75a20ee27fd9adebab32041f755214dbc6bffa90cc0225b39da2e5c2d3b91a250565b610553806101746000396000f3006080604052600436106100825763ffffffff7c0100000000000000000000000000000000000000000000000000000000600035041663025313a281146100d55780633659cfe6146101135780634555d5c9146101435780634f1ef2861461016a5780635c60da1b146101d15780636fde8202146101e6578063f1739cae146101fb575b600061008c610229565b905073ffffffffffffffffffffffffffffffffffffffff811615156100b057600080fd5b60405136600082376000803683855af43d806000843e8180156100d1578184f35b8184fd5b3480156100e157600080fd5b506100ea610245565b6040805173ffffffffffffffffffffffffffffffffffffffff9092168252519081900360200190f35b34801561011f57600080fd5b5061014173ffffffffffffffffffffffffffffffffffffffff60043516610254565b005b34801561014f57600080fd5b506101586102a1565b60408051918252519081900360200190f35b60408051602060046024803582810135601f810185900485028601850190965285855261014195833573ffffffffffffffffffffffffffffffffffffffff169536956044949193909101919081908401838280828437509497506102a69650505050505050565b3480156101dd57600080fd5b506100ea610229565b3480156101f257600080fd5b506100ea610381565b34801561020757600080fd5b5061014173ffffffffffffffffffffffffffffffffffffffff6004351661039d565b60005473ffffffffffffffffffffffffffffffffffffffff1690565b600061024f610381565b905090565b61025c610245565b73ffffffffffffffffffffffffffffffffffffffff163373ffffffffffffffffffffffffffffffffffffffff1614151561029557600080fd5b61029e81610461565b50565b600290565b6102ae610245565b73ffffffffffffffffffffffffffffffffffffffff163373ffffffffffffffffffffffffffffffffffffffff161415156102e757600080fd5b6102f082610254565b3073ffffffffffffffffffffffffffffffffffffffff168160405180828051906020019080838360005b8381101561033257818101518382015260200161031a565b50505050905090810190601f16801561035f5780820380516001836020036101000a031916815260200191505b50915050600060405180830381855af4915050151561037d57600080fd5b5050565b60015473ffffffffffffffffffffffffffffffffffffffff1690565b6103a5610245565b73ffffffffffffffffffffffffffffffffffffffff163373ffffffffffffffffffffffffffffffffffffffff161415156103de57600080fd5b73ffffffffffffffffffffffffffffffffffffffff8116151561040057600080fd5b7f5a3e66efaa1e445ebd894728a69d6959842ea1e97bd79b892797106e270efcd9610429610245565b6040805173ffffffffffffffffffffffffffffffffffffffff928316815291841660208301528051918290030190a161029e816104eb565b60005473ffffffffffffffffffffffffffffffffffffffff8281169116141561048957600080fd5b6000805473ffffffffffffffffffffffffffffffffffffffff191673ffffffffffffffffffffffffffffffffffffffff8316908117825560405190917fbc7cd75a20ee27fd9adebab32041f755214dbc6bffa90cc0225b39da2e5c2d3b91a250565b6001805473ffffffffffffffffffffffffffffffffffffffff191673ffffffffffffffffffffffffffffffffffffffff929092169190911790555600a165627a7a723058200e44c2e9a49360c5768cf0a1c81afb8dc3ebf21d648a82d8ca15a0b86b6734640029",
  "source": "/*\n\n  WyvernOwnableDelegateProxy\n\n*/\n\npragma solidity 0.4.23;\n\nimport \"./proxy/OwnedUpgradeabilityProxy.sol\";\n\ncontract OwnableDelegateProxy is OwnedUpgradeabilityProxy {\n\n    constructor(address owner, address initialImplementation, bytes calldata)\n        public\n    {\n        setUpgradeabilityOwner(owner);\n        _upgradeTo(initialImplementation);\n        require(initialImplementation.delegatecall(calldata));\n    }\n\n}\n",
  "sourcePath": "/Users/joongyu.sun/workspace/blockchain/blocks/workspace.0315/wyvern-ethereum/contracts/registry/OwnableDelegateProxy.sol",
  "compiler": {
    "name": "solc",
    "version": "0.4.23+commit.124ca40d.Emscripten.clang"
  },
  "schemaVersion": "3.1.0",
  "updatedAt": "2023-08-19T01:23:21.315Z",
  "devdoc": {
    "methods": {
      "implementation()": {
        "details": "Tells the address of the current implementation",
        "return": "address of the current implementation"
      },
      "proxyOwner()": {
        "details": "Tells the address of the proxy owner",
        "return": "the address of the proxy owner"
      },
      "proxyType()": {
        "details": "Tells the proxy type (EIP 897)",
        "return": "Proxy type, 2 for forwarding proxy"
      },
      "transferProxyOwnership(address)": {
        "details": "Allows the current owner to transfer control of the contract to a newOwner.",
        "params": {
          "newOwner": "The address to transfer ownership to."
        }
      },
      "upgradeTo(address)": {
        "details": "Allows the upgradeability owner to upgrade the current implementation of the proxy.",
        "params": {
          "implementation": "representing the address of the new implementation to be set."
        }
      },
      "upgradeToAndCall(address,bytes)": {
        "details": "Allows the upgradeability owner to upgrade the current implementation of the proxy and delegatecall the new implementation for initialization.",
        "params": {
          "data": "represents the msg.data to bet sent in the low level call. This parameter may include the function signature of the implementation to be called with the needed payload",
          "implementation": "representing the address of the new implementation to be set."
        }
      },
      "upgradeabilityOwner()": {
        "details": "Tells the address of the owner",
        "return": "the address of the owner"
      }
    }
  },
  "userdoc": {
    "methods": {}
  }
}