{
  "contractName": "TokenRecipient",
  "abi": [
    {
      "payable": true,
      "stateMutability": "payable",
      "type": "fallback"
    },
    {
      "anonymous": false,
      "inputs": [
        {
          "indexed": true,
          "name": "sender",
          "type": "address"
        },
        {
          "indexed": false,
          "name": "amount",
          "type": "uint256"
        }
      ],
      "name": "ReceivedEther",
      "type": "event"
    },
    {
      "anonymous": false,
      "inputs": [
        {
          "indexed": true,
          "name": "from",
          "type": "address"
        },
        {
          "indexed": false,
          "name": "value",
          "type": "uint256"
        },
        {
          "indexed": true,
          "name": "token",
          "type": "address"
        },
        {
          "indexed": false,
          "name": "extraData",
          "type": "bytes"
        }
      ],
      "name": "ReceivedTokens",
      "type": "event"
    },
    {
      "constant": false,
      "inputs": [
        {
          "name": "from",
          "type": "address"
        },
        {
          "name": "value",
          "type": "uint256"
        },
        {
          "name": "token",
          "type": "address"
        },
        {
          "name": "extraData",
          "type": "bytes"
        }
      ],
      "name": "receiveApproval",
      "outputs": [],
      "payable": false,
      "stateMutability": "nonpayable",
      "type": "function"
    }
  ],
  "bytecode": "0x608060405234801561001057600080fd5b506102c7806100206000396000f3006080604052600436106100405763ffffffff7c01000000000000000000000000000000000000000000000000000000006000350416638f4ffcb1811461008e575b60408051348152905173ffffffffffffffffffffffffffffffffffffffff3316917fa419615bc8fda4c87663805ee2a3597a6d71c1d476911d9892f340d965bc7bf1919081900360200190a2005b34801561009a57600080fd5b50604080516020601f60643560048181013592830184900484028501840190955281845261010b9473ffffffffffffffffffffffffffffffffffffffff81358116956024803596604435909316953695608494920191819084018382808284375094975061010d9650505050505050565b005b604080517f23b872dd00000000000000000000000000000000000000000000000000000000815273ffffffffffffffffffffffffffffffffffffffff8681166004830152308116602483015260448201869052915184928316916323b872dd9160648083019260209291908290030181600087803b15801561018e57600080fd5b505af11580156101a2573d6000803e3d6000fd5b505050506040513d60208110156101b857600080fd5b505115156101c557600080fd5b8273ffffffffffffffffffffffffffffffffffffffff168573ffffffffffffffffffffffffffffffffffffffff167fd65b48fd35864b3528d38e44760be5553248f89bf3ff6b06cca57817cc2650bf86856040518083815260200180602001828103825283818151815260200191508051906020019080838360005b83811015610259578181015183820152602001610241565b50505050905090810190601f1680156102865780820380516001836020036101000a031916815260200191505b50935050505060405180910390a350505050505600a165627a7a72305820ca0b2bd5ed82f9a51971c563bca1176190b7b5b76b2ea67a411ea5ca00d799240029",
  "source": "/*\n\n  Token recipient. Modified very slightly from the example on http://ethereum.org/dao (just to index log parameters).\n\n*/\n\npragma solidity 0.4.23;\n\nimport \"openzeppelin-solidity/contracts/token/ERC20/ERC20.sol\";\n\n/**\n * @title TokenRecipient\n * @author Project Wyvern Developers\n */\ncontract TokenRecipient {\n    event ReceivedEther(address indexed sender, uint amount);\n    event ReceivedTokens(address indexed from, uint256 value, address indexed token, bytes extraData);\n\n    /**\n     * @dev Receive tokens and generate a log event\n     * @param from Address from which to transfer tokens\n     * @param value Amount of tokens to transfer\n     * @param token Address of token\n     * @param extraData Additional data to log\n     */\n    function receiveApproval(address from, uint256 value, address token, bytes extraData) public {\n        ERC20 t = ERC20(token);\n        require(t.transferFrom(from, this, value));\n        emit ReceivedTokens(from, value, token, extraData);\n    }\n\n    /**\n     * @dev Receive Ether and generate a log event\n     */\n    function () payable public {\n        emit ReceivedEther(msg.sender, msg.value);\n    }\n}\n",
  "sourcePath": "/Users/joongyu.sun/workspace/blockchain/blocks/workspace.0315/wyvern-ethereum/contracts/common/TokenRecipient.sol",
  "compiler": {
    "name": "solc",
    "version": "0.4.23+commit.124ca40d.Emscripten.clang"
  },
  "schemaVersion": "3.1.0",
  "updatedAt": "2023-08-19T01:23:21.287Z",
  "devdoc": {
    "author": "Project Wyvern Developers",
    "methods": {
      "receiveApproval(address,uint256,address,bytes)": {
        "details": "Receive tokens and generate a log event",
        "params": {
          "extraData": "Additional data to log",
          "from": "Address from which to transfer tokens",
          "token": "Address of token",
          "value": "Amount of tokens to transfer"
        }
      }
    },
    "title": "TokenRecipient"
  },
  "userdoc": {
    "methods": {}
  }
}