{
  "contractName": "WyvernProxyRegistry",
  "abi": [
    {
      "constant": true,
      "inputs": [],
      "name": "name",
      "outputs": [
        {
          "name": "",
          "type": "string"
        }
      ],
      "payable": false,
      "stateMutability": "view",
      "type": "function"
    },
    {
      "constant": true,
      "inputs": [],
      "name": "initialAddressSet",
      "outputs": [
        {
          "name": "",
          "type": "bool"
        }
      ],
      "payable": false,
      "stateMutability": "view",
      "type": "function"
    },
    {
      "constant": false,
      "inputs": [
        {
          "name": "addr",
          "type": "address"
        }
      ],
      "name": "endGrantAuthentication",
      "outputs": [],
      "payable": false,
      "stateMutability": "nonpayable",
      "type": "function"
    },
    {
      "constant": false,
      "inputs": [
        {
          "name": "addr",
          "type": "address"
        }
      ],
      "name": "revokeAuthentication",
      "outputs": [],
      "payable": false,
      "stateMutability": "nonpayable",
      "type": "function"
    },
    {
      "constant": true,
      "inputs": [
        {
          "name": "",
          "type": "address"
        }
      ],
      "name": "pending",
      "outputs": [
        {
          "name": "",
          "type": "uint256"
        }
      ],
      "payable": false,
      "stateMutability": "view",
      "type": "function"
    },
    {
      "constant": true,
      "inputs": [
        {
          "name": "",
          "type": "address"
        }
      ],
      "name": "contracts",
      "outputs": [
        {
          "name": "",
          "type": "bool"
        }
      ],
      "payable": false,
      "stateMutability": "view",
      "type": "function"
    },
    {
      "constant": true,
      "inputs": [],
      "name": "owner",
      "outputs": [
        {
          "name": "",
          "type": "address"
        }
      ],
      "payable": false,
      "stateMutability": "view",
      "type": "function"
    },
    {
      "constant": true,
      "inputs": [],
      "name": "delegateProxyImplementation",
      "outputs": [
        {
          "name": "",
          "type": "address"
        }
      ],
      "payable": false,
      "stateMutability": "view",
      "type": "function"
    },
    {
      "constant": true,
      "inputs": [
        {
          "name": "",
          "type": "address"
        }
      ],
      "name": "proxies",
      "outputs": [
        {
          "name": "",
          "type": "address"
        }
      ],
      "payable": false,
      "stateMutability": "view",
      "type": "function"
    },
    {
      "constant": false,
      "inputs": [
        {
          "name": "addr",
          "type": "address"
        }
      ],
      "name": "startGrantAuthentication",
      "outputs": [],
      "payable": false,
      "stateMutability": "nonpayable",
      "type": "function"
    },
    {
      "constant": false,
      "inputs": [],
      "name": "registerProxy",
      "outputs": [
        {
          "name": "proxy",
          "type": "address"
        }
      ],
      "payable": false,
      "stateMutability": "nonpayable",
      "type": "function"
    },
    {
      "constant": true,
      "inputs": [],
      "name": "DELAY_PERIOD",
      "outputs": [
        {
          "name": "",
          "type": "uint256"
        }
      ],
      "payable": false,
      "stateMutability": "view",
      "type": "function"
    },
    {
      "constant": false,
      "inputs": [
        {
          "name": "newOwner",
          "type": "address"
        }
      ],
      "name": "transferOwnership",
      "outputs": [],
      "payable": false,
      "stateMutability": "nonpayable",
      "type": "function"
    },
    {
      "inputs": [],
      "payable": false,
      "stateMutability": "nonpayable",
      "type": "constructor"
    },
    {
      "anonymous": false,
      "inputs": [
        {
          "indexed": true,
          "name": "previousOwner",
          "type": "address"
        },
        {
          "indexed": true,
          "name": "newOwner",
          "type": "address"
        }
      ],
      "name": "OwnershipTransferred",
      "type": "event"
    },
    {
      "constant": false,
      "inputs": [
        {
          "name": "authAddress",
          "type": "address"
        }
      ],
      "name": "grantInitialAuthentication",
      "outputs": [],
      "payable": false,
      "stateMutability": "nonpayable",
      "type": "function"
    }
  ],
  "bytecode": "0x6080604052621275006005556006805460ff1916905534801561002157600080fd5b5060008054600160a060020a03191633600160a060020a0316179055610045610087565b604051809103906000f080158015610061573d6000803e3d6000fd5b5060018054600160a060020a031916600160a060020a0392909216919091179055610097565b6040516109a980610f8683390190565b610ee0806100a66000396000f3006080604052600436106100cf5763ffffffff7c010000000000000000000000000000000000000000000000000000000060003504166306fdde0381146100d45780631a86ac4f1461015e57806338b6e4071461018757806353376d1f146101aa5780635eebea20146101cb57806369dc9ff3146101fe5780638da5cb5b1461021f57806397204d8e14610250578063c455279114610265578063d4e8e06314610286578063ddd81f82146102a7578063e71a02e1146102bc578063ef7f3834146102d1578063f2fde38b146102f2575b600080fd5b3480156100e057600080fd5b506100e9610313565b6040805160208082528351818301528351919283929083019185019080838360005b8381101561012357818101518382015260200161010b565b50505050905090810190601f1680156101505780820380516001836020036101000a031916815260200191505b509250505060405180910390f35b34801561016a57600080fd5b5061017361034a565b604080519115158252519081900360200190f35b34801561019357600080fd5b506101a8600160a060020a0360043516610353565b005b3480156101b657600080fd5b506101a8600160a060020a0360043516610412565b3480156101d757600080fd5b506101ec600160a060020a036004351661044e565b60408051918252519081900360200190f35b34801561020a57600080fd5b50610173600160a060020a0360043516610460565b34801561022b57600080fd5b50610234610475565b60408051600160a060020a039092168252519081900360200190f35b34801561025c57600080fd5b50610234610484565b34801561027157600080fd5b50610234600160a060020a0360043516610493565b34801561029257600080fd5b506101a8600160a060020a03600435166104ae565b3480156102b357600080fd5b5061023461052f565b3480156102c857600080fd5b506101ec6106df565b3480156102dd57600080fd5b506101a8600160a060020a03600435166106e5565b3480156102fe57600080fd5b506101a8600160a060020a0360043516610745565b60408051808201909152601d81527f50726f6a6563742057797665726e2050726f7879205265676973747279000000602082015281565b60065460ff1681565b60005433600160a060020a0390811691161461036e57600080fd5b600160a060020a03811660009081526004602052604090205460ff161580156103ae5750600160a060020a03811660009081526003602052604090205415155b80156103d65750600554600160a060020a038216600090815260036020526040902054429101105b15156103e157600080fd5b600160a060020a0316600090815260036020908152604080832083905560049091529020805460ff19166001179055565b60005433600160a060020a0390811691161461042d57600080fd5b600160a060020a03166000908152600460205260409020805460ff19169055565b60036020526000908152604090205481565b60046020526000908152604090205460ff1681565b600054600160a060020a031681565b600154600160a060020a031681565b600260205260009081526040902054600160a060020a031681565b60005433600160a060020a039081169116146104c957600080fd5b600160a060020a03811660009081526004602052604090205460ff161580156105085750600160a060020a038116600090815260036020526040902054155b151561051357600080fd5b600160a060020a03166000908152600360205260409020429055565b600160a060020a033381166000908152600260205260408120549091161561055657600080fd5b60015460408051600160a060020a033381811660248401523082166044808501919091528451808503909101815260649093019093526020820180517bffffffffffffffffffffffffffffffffffffffffffffffffffffffff167f485cc95500000000000000000000000000000000000000000000000000000000179052919291909116906105e36107dd565b8084600160a060020a0316600160a060020a0316815260200183600160a060020a0316600160a060020a0316815260200180602001828103825283818151815260200191508051906020019080838360005b8381101561064d578181015183820152602001610635565b50505050905090810190601f16801561067a5780820380516001836020036101000a031916815260200191505b50945050505050604051809103906000f08015801561069d573d6000803e3d6000fd5b5033600160a060020a039081166000908152600260205260409020805473ffffffffffffffffffffffffffffffffffffffff1916918316919091179055919050565b60055481565b60005433600160a060020a0390811691161461070057600080fd5b60065460ff161561071057600080fd5b6006805460ff199081166001908117909255600160a060020a0390921660009081526004602052604090208054909216179055565b60005433600160a060020a0390811691161461076057600080fd5b600160a060020a038116151561077557600080fd5b60008054604051600160a060020a03808516939216917f8be0079c531659141344cd1fd0a4f28419497f9722a3daafe3b4186f6b6457e091a36000805473ffffffffffffffffffffffffffffffffffffffff1916600160a060020a0392909216919091179055565b6040516106c7806107ee833901905600608060405234801561001057600080fd5b506040516106c73803806106c78339810160409081528151602083015191830151909201610046836401000000006100e0810204565b61005882640100000000610102810204565b81600160a060020a03168160405180828051906020019080838360005b8381101561008d578181015183820152602001610075565b50505050905090810190601f1680156100ba5780820380516001836020036101000a031916815260200191505b50915050600060405180830381855af491505015156100d857600080fd5b505050610165565b60018054600160a060020a031916600160a060020a0392909216919091179055565b600054600160a060020a038281169116141561011d57600080fd5b60008054600160a060020a031916600160a060020a038316908117825560405190917fbc7cd75a20ee27fd9adebab32041f755214dbc6bffa90cc0225b39da2e5c2d3b91a250565b610553806101746000396000f3006080604052600436106100825763ffffffff7c0100000000000000000000000000000000000000000000000000000000600035041663025313a281146100d55780633659cfe6146101135780634555d5c9146101435780634f1ef2861461016a5780635c60da1b146101d15780636fde8202146101e6578063f1739cae146101fb575b600061008c610229565b905073ffffffffffffffffffffffffffffffffffffffff811615156100b057600080fd5b60405136600082376000803683855af43d806000843e8180156100d1578184f35b8184fd5b3480156100e157600080fd5b506100ea610245565b6040805173ffffffffffffffffffffffffffffffffffffffff9092168252519081900360200190f35b34801561011f57600080fd5b5061014173ffffffffffffffffffffffffffffffffffffffff60043516610254565b005b34801561014f57600080fd5b506101586102a1565b60408051918252519081900360200190f35b60408051602060046024803582810135601f810185900485028601850190965285855261014195833573ffffffffffffffffffffffffffffffffffffffff169536956044949193909101919081908401838280828437509497506102a69650505050505050565b3480156101dd57600080fd5b506100ea610229565b3480156101f257600080fd5b506100ea610381565b34801561020757600080fd5b5061014173ffffffffffffffffffffffffffffffffffffffff6004351661039d565b60005473ffffffffffffffffffffffffffffffffffffffff1690565b600061024f610381565b905090565b61025c610245565b73ffffffffffffffffffffffffffffffffffffffff163373ffffffffffffffffffffffffffffffffffffffff1614151561029557600080fd5b61029e81610461565b50565b600290565b6102ae610245565b73ffffffffffffffffffffffffffffffffffffffff163373ffffffffffffffffffffffffffffffffffffffff161415156102e757600080fd5b6102f082610254565b3073ffffffffffffffffffffffffffffffffffffffff168160405180828051906020019080838360005b8381101561033257818101518382015260200161031a565b50505050905090810190601f16801561035f5780820380516001836020036101000a031916815260200191505b50915050600060405180830381855af4915050151561037d57600080fd5b5050565b60015473ffffffffffffffffffffffffffffffffffffffff1690565b6103a5610245565b73ffffffffffffffffffffffffffffffffffffffff163373ffffffffffffffffffffffffffffffffffffffff161415156103de57600080fd5b73ffffffffffffffffffffffffffffffffffffffff8116151561040057600080fd5b7f5a3e66efaa1e445ebd894728a69d6959842ea1e97bd79b892797106e270efcd9610429610245565b6040805173ffffffffffffffffffffffffffffffffffffffff928316815291841660208301528051918290030190a161029e816104eb565b60005473ffffffffffffffffffffffffffffffffffffffff8281169116141561048957600080fd5b6000805473ffffffffffffffffffffffffffffffffffffffff191673ffffffffffffffffffffffffffffffffffffffff8316908117825560405190917fbc7cd75a20ee27fd9adebab32041f755214dbc6bffa90cc0225b39da2e5c2d3b91a250565b6001805473ffffffffffffffffffffffffffffffffffffffff191673ffffffffffffffffffffffffffffffffffffffff929092169190911790555600a165627a7a723058200e44c2e9a49360c5768cf0a1c81afb8dc3ebf21d648a82d8ca15a0b86b6734640029a165627a7a7230582080128d11894e96242e0c5309aa505e6e833f56f79889d967a3903885eef52650002960806040526001805460a060020a60ff021916905534801561002057600080fd5b50610979806100306000396000f3006080604052600436106100ae5763ffffffff7c01000000000000000000000000000000000000000000000000000000006000350416631b0f7ba981146100fc5780633f801f91146101895780634555d5c914610204578063485cc9551461022b5780634c93505f1461025f5780634f8632ba146102795780635c60da1b146102b757806363d256ce146102cc5780636fde8202146102e15780637b103999146102f65780638f4ffcb11461030b575b60408051348152905173ffffffffffffffffffffffffffffffffffffffff3316917fa419615bc8fda4c87663805ee2a3597a6d71c1d476911d9892f340d965bc7bf1919081900360200190a2005b34801561010857600080fd5b50604080516020600460443581810135601f810184900484028501840190955284845261017594823573ffffffffffffffffffffffffffffffffffffffff16946024803560ff16953695946064949201919081908401838280828437509497506103889650505050505050565b604080519115158252519081900360200190f35b34801561019557600080fd5b50604080516020600460443581810135601f810184900484028501840190955284845261020294823573ffffffffffffffffffffffffffffffffffffffff16946024803560ff16953695946064949201919081908401838280828437509497506105c19650505050505050565b005b34801561021057600080fd5b506102196105dc565b60408051918252519081900360200190f35b34801561023757600080fd5b5061020273ffffffffffffffffffffffffffffffffffffffff600435811690602435166105e1565b34801561026b57600080fd5b506102026004351515610691565b34801561028557600080fd5b5061028e61072e565b6040805173ffffffffffffffffffffffffffffffffffffffff9092168252519081900360200190f35b3480156102c357600080fd5b5061028e61074a565b3480156102d857600080fd5b50610175610766565b3480156102ed57600080fd5b5061028e610787565b34801561030257600080fd5b5061028e6107a3565b34801561031757600080fd5b50604080516020601f6064356004818101359283018490048402850184019095528184526102029473ffffffffffffffffffffffffffffffffffffffff8135811695602480359660443590931695369560849492019181908401838280828437509497506107bf9650505050505050565b6002546000903373ffffffffffffffffffffffffffffffffffffffff90811691161480610478575060035474010000000000000000000000000000000000000000900460ff161580156104785750600354604080517f69dc9ff300000000000000000000000000000000000000000000000000000000815273ffffffffffffffffffffffffffffffffffffffff3381166004830152915191909216916369dc9ff39160248083019260209291908290030181600087803b15801561044b57600080fd5b505af115801561045f573d6000803e3d6000fd5b505050506040513d602081101561047557600080fd5b50515b151561048357600080fd5b600083600181111561049157fe5b1415610522578373ffffffffffffffffffffffffffffffffffffffff168260405180828051906020019080838360005b838110156104d95781810151838201526020016104c1565b50505050905090810190601f1680156105065780820380516001836020036101000a031916815260200191505b509150506000604051808303816000865af191505090506105ba565b600183600181111561053057fe5b14156105ba578373ffffffffffffffffffffffffffffffffffffffff168260405180828051906020019080838360005b83811015610578578181015183820152602001610560565b50505050905090810190601f1680156105a55780820380516001836020036101000a031916815260200191505b50915050600060405180830381855af4925050505b9392505050565b6105cc838383610388565b15156105d757600080fd5b505050565b600290565b60015474010000000000000000000000000000000000000000900460ff161561060957600080fd5b6001805474ff00000000000000000000000000000000000000001916740100000000000000000000000000000000000000001790556002805473ffffffffffffffffffffffffffffffffffffffff9384167fffffffffffffffffffffffff00000000000000000000000000000000000000009182161790915560038054929093169116179055565b6002543373ffffffffffffffffffffffffffffffffffffffff9081169116146106b957600080fd5b6003805482151574010000000000000000000000000000000000000000810274ff0000000000000000000000000000000000000000199092169190911790915560408051918252517f2165014523a6f4135deffed62d70149aad59b64de5aac51e3abbcbe2a83e2f7e9181900360200190a150565b60025473ffffffffffffffffffffffffffffffffffffffff1681565b60005473ffffffffffffffffffffffffffffffffffffffff1690565b60035474010000000000000000000000000000000000000000900460ff1681565b60015473ffffffffffffffffffffffffffffffffffffffff1690565b60035473ffffffffffffffffffffffffffffffffffffffff1681565b604080517f23b872dd00000000000000000000000000000000000000000000000000000000815273ffffffffffffffffffffffffffffffffffffffff8681166004830152308116602483015260448201869052915184928316916323b872dd9160648083019260209291908290030181600087803b15801561084057600080fd5b505af1158015610854573d6000803e3d6000fd5b505050506040513d602081101561086a57600080fd5b5051151561087757600080fd5b8273ffffffffffffffffffffffffffffffffffffffff168573ffffffffffffffffffffffffffffffffffffffff167fd65b48fd35864b3528d38e44760be5553248f89bf3ff6b06cca57817cc2650bf86856040518083815260200180602001828103825283818151815260200191508051906020019080838360005b8381101561090b5781810151838201526020016108f3565b50505050905090810190601f1680156109385780820380516001836020036101000a031916815260200191505b50935050505060405180910390a350505050505600a165627a7a723058208bf399248ee9e57456562b159378176c56fd503453611a84624da0585a07f9390029",
  "source": "/*\n\n  << Project Wyvern Proxy Registry >>\n\n*/\n\npragma solidity 0.4.23;\n\nimport \"./registry/ProxyRegistry.sol\";\nimport \"./registry/AuthenticatedProxy.sol\";\n\n/**\n * @title WyvernProxyRegistry\n * @author Project Wyvern Developers\n */\ncontract WyvernProxyRegistry is ProxyRegistry {\n\n    string public constant name = \"Project Wyvern Proxy Registry\";\n\n    /* Whether the initial auth address has been set. */\n    bool public initialAddressSet = false;\n\n    constructor ()\n        public\n    {\n        delegateProxyImplementation = new AuthenticatedProxy();\n    }\n\n    /** \n     * Grant authentication to the initial Exchange protocol contract\n     *\n     * @dev No delay, can only be called once - after that the standard registry process with a delay must be used\n     * @param authAddress Address of the contract to grant authentication\n     */\n    function grantInitialAuthentication (address authAddress)\n        onlyOwner\n        public\n    {\n        require(!initialAddressSet);\n        initialAddressSet = true;\n        contracts[authAddress] = true;\n    }\n\n}\n",
  "sourcePath": "/Users/joongyu.sun/workspace/blockchain/blocks/workspace.0315/wyvern-ethereum/contracts/WyvernProxyRegistry.sol",
  "compiler": {
    "name": "solc",
    "version": "0.4.23+commit.124ca40d.Emscripten.clang"
  },
  "schemaVersion": "3.1.0",
  "updatedAt": "2023-08-21T16:15:40.377Z",
  "networkType": "ethereum"
}