{
  "contractName": "WyvernDAOProxy",
  "abi": [
    {
      "constant": true,
      "inputs": [],
      "name": "owner",
      "outputs": [
        {
          "name": "",
          "type": "address"
        }
      ],
      "payable": false,
      "stateMutability": "view",
      "type": "function"
    },
    {
      "constant": false,
      "inputs": [
        {
          "name": "from",
          "type": "address"
        },
        {
          "name": "value",
          "type": "uint256"
        },
        {
          "name": "token",
          "type": "address"
        },
        {
          "name": "extraData",
          "type": "bytes"
        }
      ],
      "name": "receiveApproval",
      "outputs": [],
      "payable": false,
      "stateMutability": "nonpayable",
      "type": "function"
    },
    {
      "constant": false,
      "inputs": [
        {
          "name": "dest",
          "type": "address"
        },
        {
          "name": "calldata",
          "type": "bytes"
        }
      ],
      "name": "delegateProxyAssert",
      "outputs": [],
      "payable": false,
      "stateMutability": "nonpayable",
      "type": "function"
    },
    {
      "constant": false,
      "inputs": [
        {
          "name": "newOwner",
          "type": "address"
        }
      ],
      "name": "transferOwnership",
      "outputs": [],
      "payable": false,
      "stateMutability": "nonpayable",
      "type": "function"
    },
    {
      "constant": false,
      "inputs": [
        {
          "name": "dest",
          "type": "address"
        },
        {
          "name": "calldata",
          "type": "bytes"
        }
      ],
      "name": "delegateProxy",
      "outputs": [
        {
          "name": "result",
          "type": "bool"
        }
      ],
      "payable": false,
      "stateMutability": "nonpayable",
      "type": "function"
    },
    {
      "inputs": [],
      "payable": false,
      "stateMutability": "nonpayable",
      "type": "constructor"
    },
    {
      "payable": true,
      "stateMutability": "payable",
      "type": "fallback"
    },
    {
      "anonymous": false,
      "inputs": [
        {
          "indexed": true,
          "name": "previousOwner",
          "type": "address"
        },
        {
          "indexed": true,
          "name": "newOwner",
          "type": "address"
        }
      ],
      "name": "OwnershipTransferred",
      "type": "event"
    },
    {
      "anonymous": false,
      "inputs": [
        {
          "indexed": true,
          "name": "sender",
          "type": "address"
        },
        {
          "indexed": false,
          "name": "amount",
          "type": "uint256"
        }
      ],
      "name": "ReceivedEther",
      "type": "event"
    },
    {
      "anonymous": false,
      "inputs": [
        {
          "indexed": true,
          "name": "from",
          "type": "address"
        },
        {
          "indexed": false,
          "name": "value",
          "type": "uint256"
        },
        {
          "indexed": true,
          "name": "token",
          "type": "address"
        },
        {
          "indexed": false,
          "name": "extraData",
          "type": "bytes"
        }
      ],
      "name": "ReceivedTokens",
      "type": "event"
    }
  ],
  "bytecode": "0x608060405234801561001057600080fd5b5060008054600160a060020a033316600160a060020a03199182168117909116179055610618806100426000396000f30060806040526004361061006c5763ffffffff7c01000000000000000000000000000000000000000000000000000000006000350416638da5cb5b81146100ba5780638f4ffcb1146100f8578063a018f2b214610177578063f2fde38b146101eb578063fc74dadd14610219575b60408051348152905173ffffffffffffffffffffffffffffffffffffffff3316917fa419615bc8fda4c87663805ee2a3597a6d71c1d476911d9892f340d965bc7bf1919081900360200190a2005b3480156100c657600080fd5b506100cf6102a1565b6040805173ffffffffffffffffffffffffffffffffffffffff9092168252519081900360200190f35b34801561010457600080fd5b50604080516020601f6064356004818101359283018490048402850184019095528184526101759473ffffffffffffffffffffffffffffffffffffffff8135811695602480359660443590931695369560849492019181908401838280828437509497506102bd9650505050505050565b005b34801561018357600080fd5b5060408051602060046024803582810135601f810185900485028601850190965285855261017595833573ffffffffffffffffffffffffffffffffffffffff1695369560449491939091019190819084018382808284375094975061044b9650505050505050565b3480156101f757600080fd5b5061017573ffffffffffffffffffffffffffffffffffffffff60043516610464565b34801561022557600080fd5b5060408051602060046024803582810135601f810185900485028601850190965285855261028d95833573ffffffffffffffffffffffffffffffffffffffff1695369560449491939091019190819084018382808284375094975061053b9650505050505050565b604080519115158252519081900360200190f35b60005473ffffffffffffffffffffffffffffffffffffffff1681565b604080517f23b872dd00000000000000000000000000000000000000000000000000000000815273ffffffffffffffffffffffffffffffffffffffff8681166004830152308116602483015260448201869052915184928316916323b872dd9160648083019260209291908290030181600087803b15801561033e57600080fd5b505af1158015610352573d6000803e3d6000fd5b505050506040513d602081101561036857600080fd5b5051151561037557600080fd5b8273ffffffffffffffffffffffffffffffffffffffff168573ffffffffffffffffffffffffffffffffffffffff167fd65b48fd35864b3528d38e44760be5553248f89bf3ff6b06cca57817cc2650bf86856040518083815260200180602001828103825283818151815260200191508051906020019080838360005b838110156104095781810151838201526020016103f1565b50505050905090810190601f1680156104365780820380516001836020036101000a031916815260200191505b50935050505060405180910390a35050505050565b610455828261053b565b151561046057600080fd5b5050565b6000543373ffffffffffffffffffffffffffffffffffffffff90811691161461048c57600080fd5b73ffffffffffffffffffffffffffffffffffffffff811615156104ae57600080fd5b6000805460405173ffffffffffffffffffffffffffffffffffffffff808516939216917f8be0079c531659141344cd1fd0a4f28419497f9722a3daafe3b4186f6b6457e091a3600080547fffffffffffffffffffffffff00000000000000000000000000000000000000001673ffffffffffffffffffffffffffffffffffffffff92909216919091179055565b600080543373ffffffffffffffffffffffffffffffffffffffff90811691161461056457600080fd5b8273ffffffffffffffffffffffffffffffffffffffff168260405180828051906020019080838360005b838110156105a657818101518382015260200161058e565b50505050905090810190601f1680156105d35780820380516001836020036101000a031916815260200191505b50915050600060405180830381855af4959450505050505600a165627a7a723058203f96c5de48a80322cf062477dc7126237b3a905ebb4af73f38ab7942bcceb1ec0029",
  "source": "/*\n\n  << Project Wyvern DAO Proxy >>\n\n*/\n\npragma solidity 0.4.23;\n\nimport \"./dao/DelegateProxy.sol\";\n\n/**\n * @title WyvernDAOProxy\n * @author Project Wyvern Developers\n */\ncontract WyvernDAOProxy is DelegateProxy {\n\n    constructor ()\n        public\n    {\n        owner = msg.sender;\n    }\n\n}\n",
  "sourcePath": "/Users/joongyu.sun/workspace/blockchain/blocks/workspace.0315/wyvern-ethereum/contracts/WyvernDAOProxy.sol",
  "compiler": {
    "name": "solc",
    "version": "0.4.23+commit.124ca40d.Emscripten.clang"
  },
  "schemaVersion": "2.0.0",
  "updatedAt": "2023-08-21T15:44:02.868Z"
}