{
  "contractName": "WyvernAtomicizer",
  "abi": [
    {
      "constant": false,
      "inputs": [
        {
          "name": "addrs",
          "type": "address[]"
        },
        {
          "name": "values",
          "type": "uint256[]"
        },
        {
          "name": "calldataLengths",
          "type": "uint256[]"
        },
        {
          "name": "calldatas",
          "type": "bytes"
        }
      ],
      "name": "atomicize",
      "outputs": [],
      "payable": false,
      "stateMutability": "nonpayable",
      "type": "function"
    }
  ],
  "bytecode": "0x6103a7610030600b82828239805160001a6073146000811461002057610022565bfe5b5030600052607381538281f30073000000000000000000000000000000000000000030146080604052600436106100575763ffffffff7c010000000000000000000000000000000000000000000000000000000060003504166368f0bcaa811461005c575b600080fd5b81801561006857600080fd5b506040805160206004803580820135838102808601850190965280855261016195369593946024949385019291829185019084908082843750506040805187358901803560208181028481018201909552818452989b9a998901989297509082019550935083925085019084908082843750506040805187358901803560208181028481018201909552818452989b9a99890198929750908201955093508392508501908490808284375050604080516020601f89358b018035918201839004830284018301909452808352979a9998810197919650918201945092508291508401838280828437509497506101639650505050505050565b005b600080606060008651885114801561017c575085518851145b151561018757600080fd5b60009350600092505b87518310156103715785838151811015156101a757fe5b906020019060200201516040519080825280601f01601f1916602001820160405280156101de578160200160208202803883390190505b509150600090505b85838151811015156101f457fe5b906020019060200201518110156102a857848481518110151561021357fe5b9060200101517f010000000000000000000000000000000000000000000000000000000000000090047f010000000000000000000000000000000000000000000000000000000000000002828281518110151561026c57fe5b9060200101907effffffffffffffffffffffffffffffffffffffffffffffffffffffffffffff1916908160001a905350600193840193016101e6565b87838151811015156102b657fe5b9060200190602002015173ffffffffffffffffffffffffffffffffffffffff1687848151811015156102e457fe5b906020019060200201518360405180828051906020019080838360005b83811015610319578181015183820152602001610301565b50505050905090810190601f1680156103465780820380516001836020036101000a031916815260200191505b5091505060006040518083038185875af192505050151561036657600080fd5b600190920191610190565b50505050505050505600a165627a7a72305820efab893c71c049a44fdd94c38c4010abdf1dcafc33a2e04e44ce485a351878f90029",
  "source": "/*\n\n  << Project Wyvern Atomicizer >>\n\n  Execute multiple transactions, in order, atomically (if any fails, all revert).\n  This contract MUST be DELEGATECALLed.\n\n*/\n\npragma solidity 0.4.23;\n\n/**\n * @title WyvernAtomicizer\n * @author Project Wyvern Developers\n */\nlibrary WyvernAtomicizer {\n\n    function atomicize (address[] addrs, uint[] values, uint[] calldataLengths, bytes calldatas)\n        public\n    {\n        require(addrs.length == values.length && addrs.length == calldataLengths.length);\n\n        uint j = 0;\n        for (uint i = 0; i < addrs.length; i++) {\n            bytes memory calldata = new bytes(calldataLengths[i]);\n            for (uint k = 0; k < calldataLengths[i]; k++) {\n                calldata[k] = calldatas[j];\n                j++;\n            }\n            require(addrs[i].call.value(values[i])(calldata));\n        }\n    }\n\n}\n",
  "sourcePath": "/Users/joongyu.sun/workspace/blockchain/blocks/workspace.0315/wyvern-ethereum/contracts/WyvernAtomicizer.sol",
  "compiler": {
    "name": "solc",
    "version": "0.4.23+commit.124ca40d.Emscripten.clang"
  },
  "schemaVersion": "2.0.0",
  "updatedAt": "2023-08-21T15:44:02.870Z"
}