{
  "contractName": "WyvernExchange",
  "abi": [
    {
      "constant": true,
      "inputs": [],
      "name": "name",
      "outputs": [
        {
          "name": "",
          "type": "string"
        }
      ],
      "payable": false,
      "stateMutability": "view",
      "type": "function"
    },
    {
      "constant": true,
      "inputs": [],
      "name": "tokenTransferProxy",
      "outputs": [
        {
          "name": "",
          "type": "address"
        }
      ],
      "payable": false,
      "stateMutability": "view",
      "type": "function"
    },
    {
      "constant": true,
      "inputs": [
        {
          "name": "target",
          "type": "address"
        },
        {
          "name": "calldata",
          "type": "bytes"
        },
        {
          "name": "extradata",
          "type": "bytes"
        }
      ],
      "name": "staticCall",
      "outputs": [
        {
          "name": "result",
          "type": "bool"
        }
      ],
      "payable": false,
      "stateMutability": "view",
      "type": "function"
    },
    {
      "constant": false,
      "inputs": [
        {
          "name": "newMinimumMakerProtocolFee",
          "type": "uint256"
        }
      ],
      "name": "changeMinimumMakerProtocolFee",
      "outputs": [],
      "payable": false,
      "stateMutability": "nonpayable",
      "type": "function"
    },
    {
      "constant": false,
      "inputs": [
        {
          "name": "newMinimumTakerProtocolFee",
          "type": "uint256"
        }
      ],
      "name": "changeMinimumTakerProtocolFee",
      "outputs": [],
      "payable": false,
      "stateMutability": "nonpayable",
      "type": "function"
    },
    {
      "constant": true,
      "inputs": [
        {
          "name": "array",
          "type": "bytes"
        },
        {
          "name": "desired",
          "type": "bytes"
        },
        {
          "name": "mask",
          "type": "bytes"
        }
      ],
      "name": "guardedArrayReplace",
      "outputs": [
        {
          "name": "",
          "type": "bytes"
        }
      ],
      "payable": false,
      "stateMutability": "pure",
      "type": "function"
    },
    {
      "constant": true,
      "inputs": [],
      "name": "minimumTakerProtocolFee",
      "outputs": [
        {
          "name": "",
          "type": "uint256"
        }
      ],
      "payable": false,
      "stateMutability": "view",
      "type": "function"
    },
    {
      "constant": true,
      "inputs": [],
      "name": "codename",
      "outputs": [
        {
          "name": "",
          "type": "string"
        }
      ],
      "payable": false,
      "stateMutability": "view",
      "type": "function"
    },
    {
      "constant": true,
      "inputs": [
        {
          "name": "addr",
          "type": "address"
        }
      ],
      "name": "testCopyAddress",
      "outputs": [
        {
          "name": "",
          "type": "bytes"
        }
      ],
      "payable": false,
      "stateMutability": "pure",
      "type": "function"
    },
    {
      "constant": true,
      "inputs": [
        {
          "name": "arrToCopy",
          "type": "bytes"
        }
      ],
      "name": "testCopy",
      "outputs": [
        {
          "name": "",
          "type": "bytes"
        }
      ],
      "payable": false,
      "stateMutability": "pure",
      "type": "function"
    },
    {
      "constant": true,
      "inputs": [
        {
          "name": "addrs",
          "type": "address[7]"
        },
        {
          "name": "uints",
          "type": "uint256[9]"
        },
        {
          "name": "feeMethod",
          "type": "uint8"
        },
        {
          "name": "side",
          "type": "uint8"
        },
        {
          "name": "saleKind",
          "type": "uint8"
        },
        {
          "name": "howToCall",
          "type": "uint8"
        },
        {
          "name": "calldata",
          "type": "bytes"
        },
        {
          "name": "replacementPattern",
          "type": "bytes"
        },
        {
          "name": "staticExtradata",
          "type": "bytes"
        }
      ],
      "name": "calculateCurrentPrice_",
      "outputs": [
        {
          "name": "",
          "type": "uint256"
        }
      ],
      "payable": false,
      "stateMutability": "view",
      "type": "function"
    },
    {
      "constant": false,
      "inputs": [
        {
          "name": "newProtocolFeeRecipient",
          "type": "address"
        }
      ],
      "name": "changeProtocolFeeRecipient",
      "outputs": [],
      "payable": false,
      "stateMutability": "nonpayable",
      "type": "function"
    },
    {
      "constant": true,
      "inputs": [],
      "name": "version",
      "outputs": [
        {
          "name": "",
          "type": "string"
        }
      ],
      "payable": false,
      "stateMutability": "view",
      "type": "function"
    },
    {
      "constant": true,
      "inputs": [
        {
          "name": "buyCalldata",
          "type": "bytes"
        },
        {
          "name": "buyReplacementPattern",
          "type": "bytes"
        },
        {
          "name": "sellCalldata",
          "type": "bytes"
        },
        {
          "name": "sellReplacementPattern",
          "type": "bytes"
        }
      ],
      "name": "orderCalldataCanMatch",
      "outputs": [
        {
          "name": "",
          "type": "bool"
        }
      ],
      "payable": false,
      "stateMutability": "pure",
      "type": "function"
    },
    {
      "constant": true,
      "inputs": [
        {
          "name": "addrs",
          "type": "address[7]"
        },
        {
          "name": "uints",
          "type": "uint256[9]"
        },
        {
          "name": "feeMethod",
          "type": "uint8"
        },
        {
          "name": "side",
          "type": "uint8"
        },
        {
          "name": "saleKind",
          "type": "uint8"
        },
        {
          "name": "howToCall",
          "type": "uint8"
        },
        {
          "name": "calldata",
          "type": "bytes"
        },
        {
          "name": "replacementPattern",
          "type": "bytes"
        },
        {
          "name": "staticExtradata",
          "type": "bytes"
        },
        {
          "name": "v",
          "type": "uint8"
        },
        {
          "name": "r",
          "type": "bytes32"
        },
        {
          "name": "s",
          "type": "bytes32"
        }
      ],
      "name": "validateOrder_",
      "outputs": [
        {
          "name": "",
          "type": "bool"
        }
      ],
      "payable": false,
      "stateMutability": "view",
      "type": "function"
    },
    {
      "constant": true,
      "inputs": [
        {
          "name": "side",
          "type": "uint8"
        },
        {
          "name": "saleKind",
          "type": "uint8"
        },
        {
          "name": "basePrice",
          "type": "uint256"
        },
        {
          "name": "extra",
          "type": "uint256"
        },
        {
          "name": "listingTime",
          "type": "uint256"
        },
        {
          "name": "expirationTime",
          "type": "uint256"
        }
      ],
      "name": "calculateFinalPrice",
      "outputs": [
        {
          "name": "",
          "type": "uint256"
        }
      ],
      "payable": false,
      "stateMutability": "view",
      "type": "function"
    },
    {
      "constant": true,
      "inputs": [],
      "name": "protocolFeeRecipient",
      "outputs": [
        {
          "name": "",
          "type": "address"
        }
      ],
      "payable": false,
      "stateMutability": "view",
      "type": "function"
    },
    {
      "constant": true,
      "inputs": [
        {
          "name": "addrs",
          "type": "address[7]"
        },
        {
          "name": "uints",
          "type": "uint256[9]"
        },
        {
          "name": "feeMethod",
          "type": "uint8"
        },
        {
          "name": "side",
          "type": "uint8"
        },
        {
          "name": "saleKind",
          "type": "uint8"
        },
        {
          "name": "howToCall",
          "type": "uint8"
        },
        {
          "name": "calldata",
          "type": "bytes"
        },
        {
          "name": "replacementPattern",
          "type": "bytes"
        },
        {
          "name": "staticExtradata",
          "type": "bytes"
        }
      ],
      "name": "hashOrder_",
      "outputs": [
        {
          "name": "",
          "type": "bytes32"
        }
      ],
      "payable": false,
      "stateMutability": "pure",
      "type": "function"
    },
    {
      "constant": true,
      "inputs": [
        {
          "name": "addrs",
          "type": "address[14]"
        },
        {
          "name": "uints",
          "type": "uint256[18]"
        },
        {
          "name": "feeMethodsSidesKindsHowToCalls",
          "type": "uint8[8]"
        },
        {
          "name": "calldataBuy",
          "type": "bytes"
        },
        {
          "name": "calldataSell",
          "type": "bytes"
        },
        {
          "name": "replacementPatternBuy",
          "type": "bytes"
        },
        {
          "name": "replacementPatternSell",
          "type": "bytes"
        },
        {
          "name": "staticExtradataBuy",
          "type": "bytes"
        },
        {
          "name": "staticExtradataSell",
          "type": "bytes"
        }
      ],
      "name": "ordersCanMatch_",
      "outputs": [
        {
          "name": "",
          "type": "bool"
        }
      ],
      "payable": false,
      "stateMutability": "view",
      "type": "function"
    },
    {
      "constant": false,
      "inputs": [
        {
          "name": "addrs",
          "type": "address[7]"
        },
        {
          "name": "uints",
          "type": "uint256[9]"
        },
        {
          "name": "feeMethod",
          "type": "uint8"
        },
        {
          "name": "side",
          "type": "uint8"
        },
        {
          "name": "saleKind",
          "type": "uint8"
        },
        {
          "name": "howToCall",
          "type": "uint8"
        },
        {
          "name": "calldata",
          "type": "bytes"
        },
        {
          "name": "replacementPattern",
          "type": "bytes"
        },
        {
          "name": "staticExtradata",
          "type": "bytes"
        },
        {
          "name": "orderbookInclusionDesired",
          "type": "bool"
        }
      ],
      "name": "approveOrder_",
      "outputs": [],
      "payable": false,
      "stateMutability": "nonpayable",
      "type": "function"
    },
    {
      "constant": true,
      "inputs": [],
      "name": "registry",
      "outputs": [
        {
          "name": "",
          "type": "address"
        }
      ],
      "payable": false,
      "stateMutability": "view",
      "type": "function"
    },
    {
      "constant": true,
      "inputs": [],
      "name": "minimumMakerProtocolFee",
      "outputs": [
        {
          "name": "",
          "type": "uint256"
        }
      ],
      "payable": false,
      "stateMutability": "view",
      "type": "function"
    },
    {
      "constant": true,
      "inputs": [
        {
          "name": "addrs",
          "type": "address[7]"
        },
        {
          "name": "uints",
          "type": "uint256[9]"
        },
        {
          "name": "feeMethod",
          "type": "uint8"
        },
        {
          "name": "side",
          "type": "uint8"
        },
        {
          "name": "saleKind",
          "type": "uint8"
        },
        {
          "name": "howToCall",
          "type": "uint8"
        },
        {
          "name": "calldata",
          "type": "bytes"
        },
        {
          "name": "replacementPattern",
          "type": "bytes"
        },
        {
          "name": "staticExtradata",
          "type": "bytes"
        }
      ],
      "name": "hashToSign_",
      "outputs": [
        {
          "name": "",
          "type": "bytes32"
        }
      ],
      "payable": false,
      "stateMutability": "pure",
      "type": "function"
    },
    {
      "constant": true,
      "inputs": [
        {
          "name": "",
          "type": "bytes32"
        }
      ],
      "name": "cancelledOrFinalized",
      "outputs": [
        {
          "name": "",
          "type": "bool"
        }
      ],
      "payable": false,
      "stateMutability": "view",
      "type": "function"
    },
    {
      "constant": true,
      "inputs": [],
      "name": "owner",
      "outputs": [
        {
          "name": "",
          "type": "address"
        }
      ],
      "payable": false,
      "stateMutability": "view",
      "type": "function"
    },
    {
      "constant": true,
      "inputs": [],
      "name": "exchangeToken",
      "outputs": [
        {
          "name": "",
          "type": "address"
        }
      ],
      "payable": false,
      "stateMutability": "view",
      "type": "function"
    },
    {
      "constant": false,
      "inputs": [
        {
          "name": "addrs",
          "type": "address[7]"
        },
        {
          "name": "uints",
          "type": "uint256[9]"
        },
        {
          "name": "feeMethod",
          "type": "uint8"
        },
        {
          "name": "side",
          "type": "uint8"
        },
        {
          "name": "saleKind",
          "type": "uint8"
        },
        {
          "name": "howToCall",
          "type": "uint8"
        },
        {
          "name": "calldata",
          "type": "bytes"
        },
        {
          "name": "replacementPattern",
          "type": "bytes"
        },
        {
          "name": "staticExtradata",
          "type": "bytes"
        },
        {
          "name": "v",
          "type": "uint8"
        },
        {
          "name": "r",
          "type": "bytes32"
        },
        {
          "name": "s",
          "type": "bytes32"
        }
      ],
      "name": "cancelOrder_",
      "outputs": [],
      "payable": false,
      "stateMutability": "nonpayable",
      "type": "function"
    },
    {
      "constant": false,
      "inputs": [
        {
          "name": "addrs",
          "type": "address[14]"
        },
        {
          "name": "uints",
          "type": "uint256[18]"
        },
        {
          "name": "feeMethodsSidesKindsHowToCalls",
          "type": "uint8[8]"
        },
        {
          "name": "calldataBuy",
          "type": "bytes"
        },
        {
          "name": "calldataSell",
          "type": "bytes"
        },
        {
          "name": "replacementPatternBuy",
          "type": "bytes"
        },
        {
          "name": "replacementPatternSell",
          "type": "bytes"
        },
        {
          "name": "staticExtradataBuy",
          "type": "bytes"
        },
        {
          "name": "staticExtradataSell",
          "type": "bytes"
        },
        {
          "name": "vs",
          "type": "uint8[2]"
        },
        {
          "name": "rssMetadata",
          "type": "bytes32[5]"
        }
      ],
      "name": "atomicMatch_",
      "outputs": [],
      "payable": true,
      "stateMutability": "payable",
      "type": "function"
    },
    {
      "constant": true,
      "inputs": [
        {
          "name": "addrs",
          "type": "address[7]"
        },
        {
          "name": "uints",
          "type": "uint256[9]"
        },
        {
          "name": "feeMethod",
          "type": "uint8"
        },
        {
          "name": "side",
          "type": "uint8"
        },
        {
          "name": "saleKind",
          "type": "uint8"
        },
        {
          "name": "howToCall",
          "type": "uint8"
        },
        {
          "name": "calldata",
          "type": "bytes"
        },
        {
          "name": "replacementPattern",
          "type": "bytes"
        },
        {
          "name": "staticExtradata",
          "type": "bytes"
        }
      ],
      "name": "validateOrderParameters_",
      "outputs": [
        {
          "name": "",
          "type": "bool"
        }
      ],
      "payable": false,
      "stateMutability": "view",
      "type": "function"
    },
    {
      "constant": true,
      "inputs": [],
      "name": "INVERSE_BASIS_POINT",
      "outputs": [
        {
          "name": "",
          "type": "uint256"
        }
      ],
      "payable": false,
      "stateMutability": "view",
      "type": "function"
    },
    {
      "constant": true,
      "inputs": [
        {
          "name": "addrs",
          "type": "address[14]"
        },
        {
          "name": "uints",
          "type": "uint256[18]"
        },
        {
          "name": "feeMethodsSidesKindsHowToCalls",
          "type": "uint8[8]"
        },
        {
          "name": "calldataBuy",
          "type": "bytes"
        },
        {
          "name": "calldataSell",
          "type": "bytes"
        },
        {
          "name": "replacementPatternBuy",
          "type": "bytes"
        },
        {
          "name": "replacementPatternSell",
          "type": "bytes"
        },
        {
          "name": "staticExtradataBuy",
          "type": "bytes"
        },
        {
          "name": "staticExtradataSell",
          "type": "bytes"
        }
      ],
      "name": "calculateMatchPrice_",
      "outputs": [
        {
          "name": "",
          "type": "uint256"
        }
      ],
      "payable": false,
      "stateMutability": "view",
      "type": "function"
    },
    {
      "constant": true,
      "inputs": [
        {
          "name": "",
          "type": "bytes32"
        }
      ],
      "name": "approvedOrders",
      "outputs": [
        {
          "name": "",
          "type": "bool"
        }
      ],
      "payable": false,
      "stateMutability": "view",
      "type": "function"
    },
    {
      "constant": false,
      "inputs": [
        {
          "name": "newOwner",
          "type": "address"
        }
      ],
      "name": "transferOwnership",
      "outputs": [],
      "payable": false,
      "stateMutability": "nonpayable",
      "type": "function"
    },
    {
      "inputs": [
        {
          "name": "registryAddress",
          "type": "address"
        },
        {
          "name": "tokenTransferProxyAddress",
          "type": "address"
        },
        {
          "name": "tokenAddress",
          "type": "address"
        },
        {
          "name": "protocolFeeAddress",
          "type": "address"
        }
      ],
      "payable": false,
      "stateMutability": "nonpayable",
      "type": "constructor"
    },
    {
      "anonymous": false,
      "inputs": [
        {
          "indexed": true,
          "name": "hash",
          "type": "bytes32"
        },
        {
          "indexed": false,
          "name": "exchange",
          "type": "address"
        },
        {
          "indexed": true,
          "name": "maker",
          "type": "address"
        },
        {
          "indexed": false,
          "name": "taker",
          "type": "address"
        },
        {
          "indexed": false,
          "name": "makerRelayerFee",
          "type": "uint256"
        },
        {
          "indexed": false,
          "name": "takerRelayerFee",
          "type": "uint256"
        },
        {
          "indexed": false,
          "name": "makerProtocolFee",
          "type": "uint256"
        },
        {
          "indexed": false,
          "name": "takerProtocolFee",
          "type": "uint256"
        },
        {
          "indexed": true,
          "name": "feeRecipient",
          "type": "address"
        },
        {
          "indexed": false,
          "name": "feeMethod",
          "type": "uint8"
        },
        {
          "indexed": false,
          "name": "side",
          "type": "uint8"
        },
        {
          "indexed": false,
          "name": "saleKind",
          "type": "uint8"
        },
        {
          "indexed": false,
          "name": "target",
          "type": "address"
        }
      ],
      "name": "OrderApprovedPartOne",
      "type": "event"
    },
    {
      "anonymous": false,
      "inputs": [
        {
          "indexed": true,
          "name": "hash",
          "type": "bytes32"
        },
        {
          "indexed": false,
          "name": "howToCall",
          "type": "uint8"
        },
        {
          "indexed": false,
          "name": "calldata",
          "type": "bytes"
        },
        {
          "indexed": false,
          "name": "replacementPattern",
          "type": "bytes"
        },
        {
          "indexed": false,
          "name": "staticTarget",
          "type": "address"
        },
        {
          "indexed": false,
          "name": "staticExtradata",
          "type": "bytes"
        },
        {
          "indexed": false,
          "name": "paymentToken",
          "type": "address"
        },
        {
          "indexed": false,
          "name": "basePrice",
          "type": "uint256"
        },
        {
          "indexed": false,
          "name": "extra",
          "type": "uint256"
        },
        {
          "indexed": false,
          "name": "listingTime",
          "type": "uint256"
        },
        {
          "indexed": false,
          "name": "expirationTime",
          "type": "uint256"
        },
        {
          "indexed": false,
          "name": "salt",
          "type": "uint256"
        },
        {
          "indexed": false,
          "name": "orderbookInclusionDesired",
          "type": "bool"
        }
      ],
      "name": "OrderApprovedPartTwo",
      "type": "event"
    },
    {
      "anonymous": false,
      "inputs": [
        {
          "indexed": true,
          "name": "hash",
          "type": "bytes32"
        }
      ],
      "name": "OrderCancelled",
      "type": "event"
    },
    {
      "anonymous": false,
      "inputs": [
        {
          "indexed": false,
          "name": "buyHash",
          "type": "bytes32"
        },
        {
          "indexed": false,
          "name": "sellHash",
          "type": "bytes32"
        },
        {
          "indexed": true,
          "name": "maker",
          "type": "address"
        },
        {
          "indexed": true,
          "name": "taker",
          "type": "address"
        },
        {
          "indexed": false,
          "name": "price",
          "type": "uint256"
        },
        {
          "indexed": true,
          "name": "metadata",
          "type": "bytes32"
        }
      ],
      "name": "OrdersMatched",
      "type": "event"
    },
    {
      "anonymous": false,
      "inputs": [
        {
          "indexed": true,
          "name": "previousOwner",
          "type": "address"
        },
        {
          "indexed": true,
          "name": "newOwner",
          "type": "address"
        }
      ],
      "name": "OwnershipTransferred",
      "type": "event"
    }
  ],
  "bytecode": "0x60806040526000805460ff19168155600681905560075534801561002257600080fd5b50604051608080614f1083398101604090815281516020830151918301516060909301516000805460028054600160a060020a03958616600160a060020a0319918216179091556003805496861696821696909617909555600180549685169686169690961790955560088054928416929094169190911790925533166101000261010060a860020a031992831681179092169091179055614e47806100c96000396000f3006080604052600436106101a05763ffffffff7c010000000000000000000000000000000000000000000000000000000060003504166306fdde0381146101a55780630eefdbad1461022f57806310796a471461026057806314350c24146103195780631a6b13e214610333578063239e83df1461034b57806328a8ee681461042057806331e63199146104475780633464af6a1461045c5780633e1e292a1461047d5780633f67ee0d146104d6578063514f03301461061b57806354fd4d501461063c578063562b2ebc1461065157806360bef33a1461076457806363d36c0b146108b857806364df049e146108e557806371d02b38146108fa57806372593b4c14610a3f5780637966686814610c465780637b10399914610d8f5780637ccefc5214610da45780637d76698114610db95780638076f00514610efe5780638da5cb5b14610f16578063a25eb5d914610f2b578063a8a41c7014610f40578063ab834bab14611094578063ca595b9a146112d7578063cae6047f1461141c578063d537e13114611431578063e57d4adb14611638578063f2fde38b14611650575b600080fd5b3480156101b157600080fd5b506101ba611671565b6040805160208082528351818301528351919283929083019185019080838360005b838110156101f45781810151838201526020016101dc565b50505050905090810190601f1680156102215780820380516001836020036101000a031916815260200191505b509250505060405180910390f35b34801561023b57600080fd5b506102446116a8565b60408051600160a060020a039092168252519081900360200190f35b34801561026c57600080fd5b5060408051602060046024803582810135601f8101859004850286018501909652858552610305958335600160a060020a031695369560449491939091019190819084018382808284375050604080516020601f89358b018035918201839004830284018301909452808352979a9998810197919650918201945092508291508401838280828437509497506116b79650505050505050565b604080519115158252519081900360200190f35b34801561032557600080fd5b50610331600435611726565b005b34801561033f57600080fd5b5061033160043561174b565b34801561035757600080fd5b506040805160206004803580820135601f81018490048402850184019095528484526101ba94369492936024939284019190819084018382808284375050604080516020601f89358b018035918201839004830284018301909452808352979a99988101979196509182019450925082915084018382808284375050604080516020601f89358b018035918201839004830284018301909452808352979a9998810197919650918201945092508291508401838280828437509497506117709650505050505050565b34801561042c57600080fd5b50610435611785565b60408051918252519081900360200190f35b34801561045357600080fd5b506101ba61178b565b34801561046857600080fd5b506101ba600160a060020a03600435166117c2565b34801561048957600080fd5b506040805160206004803580820135601f81018490048402850184019095528484526101ba9436949293602493928401919081908401838280828437509497506118029650505050505050565b3480156104e257600080fd5b506040805160e081810190925261043591369160049160e49190839060079083908390808284375050604080516101208181019092529497969581810195945092506009915083908390808284375050604080516020601f60808901358a0180359182018390048302840183018552818452979a60ff8a3581169b848c013582169b9687013582169a6060880135909216995091975090955060a090940193820191819084018382808284375050604080516020601f89358b018035918201839004830284018301909452808352979a99988101979196509182019450925082915084018382808284375050604080516020601f89358b018035918201839004830284018301909452808352979a9998810197919650918201945092508291508401838280828437509497506118489650505050505050565b34801561062757600080fd5b50610331600160a060020a0360043516611996565b34801561064857600080fd5b506101ba6119f0565b34801561065d57600080fd5b506040805160206004803580820135601f810184900484028501840190955284845261030594369492936024939284019190819084018382808284375050604080516020601f89358b018035918201839004830284018301909452808352979a99988101979196509182019450925082915084018382808284375050604080516020601f89358b018035918201839004830284018301909452808352979a99988101979196509182019450925082915084018382808284375050604080516020601f89358b018035918201839004830284018301909452808352979a999881019791965091820194509250829150840183828082843750949750611a279650505050505050565b34801561077057600080fd5b506040805160e081810190925261030591369160049160e49190839060079083908390808284375050604080516101208181019092529497969581810195945092506009915083908390808284375050604080516020601f60808901358a0180359182018390048302840183018552818452979a60ff8a3581169b848c013582169b9687013582169a6060880135909216995091975090955060a090940193820191819084018382808284375050604080516020601f89358b018035918201839004830284018301909452808352979a99988101979196509182019450925082915084018382808284375050604080516020601f89358b018035918201839004830284018301909452808352979a9998810197919650918201945092508291508401838280828437509497505050833560ff1694505050602082013591604001359050611a67565b3480156108c457600080fd5b5061043560ff6004358116906024351660443560643560843560a435611c5f565b3480156108f157600080fd5b50610244611c7a565b34801561090657600080fd5b506040805160e081810190925261043591369160049160e49190839060079083908390808284375050604080516101208181019092529497969581810195945092506009915083908390808284375050604080516020601f60808901358a0180359182018390048302840183018552818452979a60ff8a3581169b848c013582169b9687013582169a6060880135909216995091975090955060a090940193820191819084018382808284375050604080516020601f89358b018035918201839004830284018301909452808352979a99988101979196509182019450925082915084018382808284375050604080516020601f89358b018035918201839004830284018301909452808352979a999881019791965091820194509250829150840183828082843750949750611c899650505050505050565b348015610a4b57600080fd5b50604080516101c08181019092526103059136916004916101c491908390600e9083908390808284375050604080516102408181019092529497969581810195945092506012915083908390808284375050604080516101008181019092529497969581810195945092506008915083908390808284375050604080516020601f88358a0180359182018390048302840183019094528083529699989781019691955091820193509150819084018382808284375050604080516020601f89358b018035918201839004830284018301909452808352979a99988101979196509182019450925082915084018382808284375050604080516020601f89358b018035918201839004830284018301909452808352979a99988101979196509182019450925082915084018382808284375050604080516020601f89358b018035918201839004830284018301909452808352979a99988101979196509182019450925082915084018382808284375050604080516020601f89358b018035918201839004830284018301909452808352979a99988101979196509182019450925082915084018382808284375050604080516020601f89358b018035918201839004830284018301909452808352979a999881019791965091820194509250829150840183828082843750949750611dc99650505050505050565b348015610c5257600080fd5b506040805160e081810190925261033191369160049160e49190839060079083908390808284375050604080516101208181019092529497969581810195945092506009915083908390808284375050604080516020601f60808901358a0180359182018390048302840183018552818452979a60ff8a3581169b848c013582169b9687013582169a6060880135909216995091975090955060a090940193820191819084018382808284375050604080516020601f89358b018035918201839004830284018301909452808352979a99988101979196509182019450925082915084018382808284375050604080516020601f89358b018035918201839004830284018301909452808352979a9998810197919650918201945092508291508401838280828437509497505050509135151592506121b5915050565b348015610d9b57600080fd5b5061024461230a565b348015610db057600080fd5b50610435612319565b348015610dc557600080fd5b506040805160e081810190925261043591369160049160e49190839060079083908390808284375050604080516101208181019092529497969581810195945092506009915083908390808284375050604080516020601f60808901358a0180359182018390048302840183018552818452979a60ff8a3581169b848c013582169b9687013582169a6060880135909216995091975090955060a090940193820191819084018382808284375050604080516020601f89358b018035918201839004830284018301909452808352979a99988101979196509182019450925082915084018382808284375050604080516020601f89358b018035918201839004830284018301909452808352979a99988101979196509182019450925082915084018382808284375094975061231f9650505050505050565b348015610f0a57600080fd5b5061030560043561245f565b348015610f2257600080fd5b50610244612474565b348015610f3757600080fd5b50610244612488565b348015610f4c57600080fd5b506040805160e081810190925261033191369160049160e49190839060079083908390808284375050604080516101208181019092529497969581810195945092506009915083908390808284375050604080516020601f60808901358a0180359182018390048302840183018552818452979a60ff8a3581169b848c013582169b9687013582169a6060880135909216995091975090955060a090940193820191819084018382808284375050604080516020601f89358b018035918201839004830284018301909452808352979a99988101979196509182019450925082915084018382808284375050604080516020601f89358b018035918201839004830284018301909452808352979a9998810197919650918201945092508291508401838280828437509497505050833560ff1694505050602082013591604001359050612497565b604080516101c08181019092526103319136916004916101c491908390600e9083908390808284375050604080516102408181019092529497969581810195945092506012915083908390808284375050604080516101008181019092529497969581810195945092506008915083908390808284375050604080516020601f88358a0180359182018390048302840183019094528083529699989781019691955091820193509150819084018382808284375050604080516020601f89358b018035918201839004830284018301909452808352979a99988101979196509182019450925082915084018382808284375050604080516020601f89358b018035918201839004830284018301909452808352979a99988101979196509182019450925082915084018382808284375050604080516020601f89358b018035918201839004830284018301909452808352979a99988101979196509182019450925082915084018382808284375050604080516020601f89358b018035918201839004830284018301909452808352979a99988101979196509182019450925082915084018382808284375050604080516020601f89358b018035918201839004830284018301909452808352979a999881019791965091820194509250829150840183828082843750506040805180820182529598979681810196955093506002925084915083908082843750506040805160a08181019092529497969581810195945092506005915083908390808284375093965061266d95505050505050565b3480156112e357600080fd5b506040805160e081810190925261030591369160049160e49190839060079083908390808284375050604080516101208181019092529497969581810195945092506009915083908390808284375050604080516020601f60808901358a0180359182018390048302840183018552818452979a60ff8a3581169b848c013582169b9687013582169a6060880135909216995091975090955060a090940193820191819084018382808284375050604080516020601f89358b018035918201839004830284018301909452808352979a99988101979196509182019450925082915084018382808284375050604080516020601f89358b018035918201839004830284018301909452808352979a999881019791965091820194509250829150840183828082843750949750612a839650505050505050565b34801561142857600080fd5b50610435612bdb565b34801561143d57600080fd5b50604080516101c08181019092526104359136916004916101c491908390600e9083908390808284375050604080516102408181019092529497969581810195945092506012915083908390808284375050604080516101008181019092529497969581810195945092506008915083908390808284375050604080516020601f88358a0180359182018390048302840183019094528083529699989781019691955091820193509150819084018382808284375050604080516020601f89358b018035918201839004830284018301909452808352979a99988101979196509182019450925082915084018382808284375050604080516020601f89358b018035918201839004830284018301909452808352979a99988101979196509182019450925082915084018382808284375050604080516020601f89358b018035918201839004830284018301909452808352979a99988101979196509182019450925082915084018382808284375050604080516020601f89358b018035918201839004830284018301909452808352979a99988101979196509182019450925082915084018382808284375050604080516020601f89358b018035918201839004830284018301909452808352979a999881019791965091820194509250829150840183828082843750949750612be19650505050505050565b34801561164457600080fd5b50610305600435612fbd565b34801561165c57600080fd5b50610331600160a060020a0360043516612fd2565b60408051808201909152601781527f50726f6a6563742057797665726e2045786368616e6765000000000000000000602082015281565b600354600160a060020a031681565b60006060600083518551016040519080825280601f01601f1916602001820160405280156116ef578160200160208202803883390190505b50915050602081016117018185613084565b905061170d8186613084565b506000604051835160208501895afa9695505050505050565b60005433600160a060020a03908116610100909204161461174657600080fd5b600655565b60005433600160a060020a03908116610100909204161461176b57600080fd5b600755565b606061177d8484846130c8565b509192915050565b60075481565b60408051808201909152600c81527f4c616d62746f6e20576f726d0000000000000000000000000000000000000000602082015281565b6040805160148082528183019092526060918291600091602082016102808038833901905050915050602081016117f981856132a9565b50909392505050565b606080600083516040519080825280601f01601f191660200182016040528015611836578160200160208202803883390190505b50915050602081016117f98185613084565b604080516102e0810182528a51600160a060020a0390811682526020808d01518216818401528c8401518216838501528b51606080850191909152908c01516080840152928b015160a08301528a83015160c0830152918b015190911660e08201526000906119889061010081018a60018111156118c257fe5b81526020018960018111156118d357fe5b81526020018860018111156118e457fe5b815260808d0151600160a060020a0316602082015260400187600181111561190857fe5b8152602081018790526040810186905260a0808e0151600160a060020a0316606083015260808201869052018c600660209081029190910151600160a060020a031682526080808e01519183019190915260a0808e0151604084015260c08e0151606084015260e08e0151918301919091526101008d01519101526132d5565b9a9950505050505050505050565b60005433600160a060020a0390811661010090920416146119b657600080fd5b600880547fffffffffffffffffffffffff000000000000000000000000000000000000000016600160a060020a0392909216919091179055565b60408051808201909152600381527f322e320000000000000000000000000000000000000000000000000000000000602082015281565b60008084511115611a3d57611a3d8584866130c8565b600082511115611a5257611a528386846130c8565b611a5c858461330b565b90505b949350505050565b6000611a71614d37565b604080516102e08101909152808f600060209081029190910151600160a060020a03168252018f600160209081029190910151600160a060020a03168252018f600260209081029190910151600160a060020a03168252018e6000602090810291909101518252018e6001602090810291909101518252018e6002602090810291909101518252018e6003602090810291909101518252018f60036020020151600160a060020a031681526020018d6001811115611b2b57fe5b81526020018c6001811115611b3c57fe5b81526020018b6001811115611b4d57fe5b81526020018f60046020020151600160a060020a031681526020018a6001811115611b7457fe5b8152602081018a9052604081018990526060018f60056020020151600160a060020a031681526020018781526020018f6006600781101515611bb257fe5b60209081029190910151600160a060020a03168252018e6004602090810291909101518252018e6005602090810291909101518252018e6006602090810291909101518252018e6007602090810291909101518252018e6008602002015190529050611c4d611c208261336f565b611c29836133ba565b6040805160608101825260ff8a168152602081018990529081018790528490613405565b9e9d5050505050505050505050505050565b6000611c6f87878787878761358f565b979650505050505050565b600854600160a060020a031681565b604080516102e0810182528a51600160a060020a0390811682526020808d01518216818401528c8401518216838501528b51606080850191909152908c01516080840152928b015160a08301528a83015160c0830152918b015190911660e08201526000906119889061010081018a6001811115611d0357fe5b8152602001896001811115611d1457fe5b8152602001886001811115611d2557fe5b815260808d0151600160a060020a03166020820152604001876001811115611d4957fe5b8152602081018790526040810186905260a0808e0151600160a060020a0316606083015260808201869052018c600660209081029190910151600160a060020a031682526080808e01519183019190915260a0808e0151604084015260c08e0151606084015260e08e0151918301919091526101008d0151910152613622565b6000611dd3614d37565b611ddb614d37565b604080516102e08101909152808d600060209081029190910151600160a060020a03168252018d600160209081029190910151600160a060020a03168252018d600260209081029190910151600160a060020a03168252018c6000602090810291909101518252018c6001602090810291909101518252018c6002602090810291909101518252018c6003602090810291909101518252018d600360209081029190910151600160a060020a03168252018b6000602002015160ff166001811115611ea257fe5b6001811115611ead57fe5b81526020018b6001602002015160ff166001811115611ec857fe5b6001811115611ed357fe5b81526020018b6002602002015160ff166001811115611eee57fe5b6001811115611ef957fe5b815260808e0151600160a060020a0316602082015260608c015160409091019060ff166001811115611f2757fe5b6001811115611f3257fe5b8152602081018b90526040810189905260a0808f0151600160a060020a0316606083015260808201889052018d600660209081029190910151600160a060020a03168252018c6004602090810291909101518252018c6005602090810291909101518252018c6006602090810291909101518252018c6007602090810291909101518252018c600860200201519052604080516102e08101909152909250808d600760209081029190910151600160a060020a03168252018d600860209081029190910151600160a060020a03168252018d600960209081029190910151600160a060020a03168252018c6009602090810291909101518252018c600a602090810291909101518252018c600b602090810291909101518252018c600c602090810291909101518252018d600a60209081029190910151600160a060020a03168252018b6004602002015160ff16600181111561208b57fe5b600181111561209657fe5b81526020018b6005602002015160ff1660018111156120b157fe5b60018111156120bc57fe5b81526020018b6006602002015160ff1660018111156120d757fe5b60018111156120e257fe5b81526101608e0151600160a060020a0316602082015260e08c015160409091019060ff16600181111561211157fe5b600181111561211c57fe5b8152602081018a9052604081018890526101808e0151600160a060020a031660608201526080810186905260a0018d600d60209081029190910151600160a060020a031682526101a08e0151908201526101c08d015160408201526101e08d015160608201526102008d015160808201526102208d015160a09091015290506121a58282613811565b9c9b505050505050505050505050565b6121bd614d37565b604080516102e0810182528c51600160a060020a0390811682526020808f01518216818401528e8401518216838501528d51606080850191909152908e01516080840152928d015160a08301528c83015160c0830152918d015190911660e082015261010081018a600181111561223057fe5b815260200189600181111561224157fe5b815260200188600181111561225257fe5b815260808d0151600160a060020a0316602082015260400187600181111561227657fe5b8152602081018790526040810186905260a0808e0151600160a060020a0316606083015260808201869052018c600660209081029190910151600160a060020a031682526080808e01519183019190915260a0808e0151604084015260c08e0151606084015260e08e0151918301919091526101008d015191015290506122fd81836139f2565b5050505050505050505050565b600254600160a060020a031681565b60065481565b604080516102e0810182528a51600160a060020a0390811682526020808d01518216818401528c8401518216838501528b51606080850191909152908c01516080840152928b015160a08301528a83015160c0830152918b015190911660e08201526000906119889061010081018a600181111561239957fe5b81526020018960018111156123aa57fe5b81526020018860018111156123bb57fe5b815260808d0151600160a060020a031660208201526040018760018111156123df57fe5b8152602081018790526040810186905260a0808e0151600160a060020a0316606083015260808201869052018c600660209081029190910151600160a060020a031682526080808e01519183019190915260a0808e0151604084015260c08e0151606084015260e08e0151918301919091526101008d015191015261336f565b60046020526000908152604090205460ff1681565b6000546101009004600160a060020a031681565b600154600160a060020a031681565b604080516102e0810190915261265f90808e600060209081029190910151600160a060020a03168252018e600160209081029190910151600160a060020a03168252018e600260209081029190910151600160a060020a03168252018d6000602090810291909101518252018d6001602090810291909101518252018d6002602090810291909101518252018d6003602090810291909101518252018e60036020020151600160a060020a031681526020018c600181111561255557fe5b81526020018b600181111561256657fe5b81526020018a600181111561257757fe5b815260808f0151600160a060020a0316602082015260400189600181111561259b57fe5b815260208101899052604081018890526060018e60056020020151600160a060020a031681526020018681526020018e60066007811015156125d957fe5b60209081029190910151600160a060020a03168252018d6004602090810291909101518252018d6005602090810291909101518252018d6006602090810291909101518252018d6007602090810291909101518252018d6008602090810291909101519091526040805160608101825260ff881681529182018690528101849052613dc0565b505050505050505050505050565b604080516102e0810182528c51600160a060020a0390811682526020808f01518216818401528e8401518216838501528d51606080850191909152908e01516080840152928d015160a08301528c83015160c0830152918d015190911660e082015289516122fd919061010082019060ff1660018111156126ea57fe5b60018111156126f557fe5b81526020018b6001602002015160ff16600181111561271057fe5b600181111561271b57fe5b81526020018b6002602002015160ff16600181111561273657fe5b600181111561274157fe5b815260808e0151600160a060020a0316602082015260608c015160409091019060ff16600181111561276f57fe5b600181111561277a57fe5b8152602081018b90526040810189905260a0808f0151600160a060020a0316606083015260808201889052018d600660209081029190910151600160a060020a03168252018c6004602090810291909101518252018c6005602090810291909101518252018c6006602090810291909101518252018c6007602090810291909101518252018c6008602002015190526040805160608101909152808560006020908102919091015160ff168252018460006020908102919091015182520184600160200201519052604080516102e08101909152808f600760209081029190910151600160a060020a03168252018f600860209081029190910151600160a060020a03168252018f600960209081029190910151600160a060020a03168252018e6009602090810291909101518252018e600a602090810291909101518252018e600b602090810291909101518252018e600c602090810291909101518252018f600a60209081029190910151600160a060020a03168252018d6004602002015160ff16600181111561290957fe5b600181111561291457fe5b81526020018d6005602002015160ff16600181111561292f57fe5b600181111561293a57fe5b81526020018d6006602002015160ff16600181111561295557fe5b600181111561296057fe5b81526020018f600b60209081029190910151600160a060020a03168252018d6007602002015160ff16600181111561299457fe5b600181111561299f57fe5b8152602081018c9052604081018a90526060018f600c6020020151600160a060020a031681526020018781526020018f600d600e811015156129dd57fe5b60209081029190910151600160a060020a03168252018e600d602090810291909101518252018e600e602090810291909101518252018e600f602090810291909101518252018e6010602090810291909101518252018e6011602002015190526040805160608101909152808760016020908102919091015160ff1682520186600260209081029190910151825201866003602002015190528560046020020151613e37565b6000612a8d614d37565b604080516102e0810182528c51600160a060020a0390811682526020808f01518216818401528e8401518216838501528d51606080850191909152908e01516080840152928d015160a08301528c83015160c0830152918d015190911660e082015261010081018a6001811115612b0057fe5b8152602001896001811115612b1157fe5b8152602001886001811115612b2257fe5b815260808d0151600160a060020a03166020820152604001876001811115612b4657fe5b8152602081018790526040810186905260a0808e0151600160a060020a0316606083015260808201869052018c600660209081029190910151600160a060020a031682526080808e01519183019190915260a0808e0151604084015260c08e0151606084015260e08e0151918301919091526101008d01519101529050612bcc81614449565b9b9a5050505050505050505050565b61271081565b6000612beb614d37565b612bf3614d37565b604080516102e08101909152808d600060209081029190910151600160a060020a03168252018d600160209081029190910151600160a060020a03168252018d600260209081029190910151600160a060020a03168252018c6000602090810291909101518252018c6001602090810291909101518252018c6002602090810291909101518252018c6003602090810291909101518252018d600360209081029190910151600160a060020a03168252018b6000602002015160ff166001811115612cba57fe5b6001811115612cc557fe5b81526020018b6001602002015160ff166001811115612ce057fe5b6001811115612ceb57fe5b81526020018b6002602002015160ff166001811115612d0657fe5b6001811115612d1157fe5b815260808e0151600160a060020a0316602082015260608c015160409091019060ff166001811115612d3f57fe5b6001811115612d4a57fe5b8152602081018b90526040810189905260a0808f0151600160a060020a0316606083015260808201889052018d600660209081029190910151600160a060020a03168252018c6004602090810291909101518252018c6005602090810291909101518252018c6006602090810291909101518252018c6007602090810291909101518252018c600860200201519052604080516102e08101909152909250808d600760209081029190910151600160a060020a03168252018d600860209081029190910151600160a060020a03168252018d600960209081029190910151600160a060020a03168252018c6009602090810291909101518252018c600a602090810291909101518252018c600b602090810291909101518252018c600c602090810291909101518252018d600a60209081029190910151600160a060020a03168252018b6004602002015160ff166001811115612ea357fe5b6001811115612eae57fe5b81526020018b6005602002015160ff166001811115612ec957fe5b6001811115612ed457fe5b81526020018b6006602002015160ff166001811115612eef57fe5b6001811115612efa57fe5b81526101608e0151600160a060020a0316602082015260e08c015160409091019060ff166001811115612f2957fe5b6001811115612f3457fe5b8152602081018a9052604081018890526101808e0151600160a060020a031660608201526080810186905260a0018d600d60209081029190910151600160a060020a031682526101a08e0151908201526101c08d015160408201526101e08d015160608201526102008d015160808201526102208d015160a09091015290506121a582826144dd565b60056020526000908152604090205460ff1681565b60005433600160a060020a039081166101009092041614612ff257600080fd5b600160a060020a038116151561300757600080fd5b60008054604051600160a060020a038085169361010090930416917f8be0079c531659141344cd1fd0a4f28419497f9722a3daafe3b4186f6b6457e091a360008054600160a060020a03909216610100027fffffffffffffffffffffff0000000000000000000000000000000000000000ff909216919091179055565b600080825111156130c157815180602001830160208401855b600183831014156130b857815181526020918201910161309d565b50505092909201915b5090919050565b6000806000845186511415156130dd57600080fd5b83518651146130eb57600080fd5b855160209004925060208084029250839083041461310557fe5b5060005b828110156131355760010160208102848101518682015191880180519282169119909216179052613109565b600083111561316557829050806001016020028085015181870151811682890151821916178289015250506132a1565b50805b85518110156132a157848181518110151561317f57fe5b906020010151600080516020614dfc8339815191529004600080516020614dfc8339815191520284828151811015156131b457fe5b906020010151600080516020614dfc8339815191529004600080516020614dfc833981519152021686828151811015156131ea57fe5b906020010151600080516020614dfc8339815191529004600080516020614dfc83398151915202858381518110151561321f57fe5b906020010151600080516020614dfc8339815191529004600080516020614dfc8339815191520260ff600080516020614dfc83398151915202181617868281518110151561326957fe5b9060200101907effffffffffffffffffffffffffffffffffffffffffffffffffffffffffffff1916908160001a905350600101613168565b505050505050565b6c01000000000000000000000000600160a060020a0382160280835260149092019182905b5092915050565b6000613303826101200151836101400151846102400151856102600151866102800151876102a0015161358f565b90505b919050565b8151815160009160019181148083146133275760009250613365565b600160208701838101602088015b6002848385100114156133605780518351146133545760009650600093505b60209283019201613335565b505050505b5090949350505050565b600061337a82613622565b604080517f19457468657265756d205369676e6564204d6573736167653a0a3332000000008152601c8101929092525190819003603c0190209050919050565b60006133c582613622565b604080517f194b6c6179746e205369676e6564204d6573736167653a0a33320000000000008152601a8101929092525190819003603a0190209050919050565b600061341083614449565b151561341e57506000611a5f565b60008581526004602052604090205460ff161561343d57506000611a5f565b60008581526005602052604090205460ff161561345c57506001611a5f565b602080840151835184830151604080870151815160008082528188018085528d905260ff909516818401526060810193909352608083015251600160a060020a039093169360019360a0808401949293601f19830193908390039091019190865af11580156134cf573d6000803e3d6000fd5b50505060206040510351600160a060020a031614156134f057506001611a5f565b602080840151835184830151604080870151815160008082528188018085528c905260ff909516818401526060810193909352608083015251600160a060020a039093169360019360a0808401949293601f19830193908390039091019190865af1158015613563573d6000803e3d6000fd5b50505060206040510351600160a060020a0316141561358457506001611a5f565b506000949350505050565b6000808087600181111561359f57fe5b14156135ad57859150613617565b60018760018111156135bb57fe5b1415613617576135e66135d7866135d24288614570565b614582565b6135e18587614570565b6145ad565b905060018860018111156135f657fe5b141561360d576136068682614570565b9150613617565b61360686826145c4565b509695505050505050565b60008060606000613632856145d3565b9250826040519080825280601f01601f191660200182016040528015613662578160200160208202803883390190505b5091506020820190506136798186600001516132a9565b90506136898186602001516132a9565b90506136998186604001516132a9565b90506136a98186606001516145f3565b90506136b98186608001516145f3565b90506136c9818660a001516145f3565b90506136d9818660c001516145f3565b90506136e9818660e001516132a9565b905061370581866101000151600181111561370057fe5b6145fb565b905061371c81866101200151600181111561370057fe5b905061373381866101400151600181111561370057fe5b9050613744818661016001516132a9565b905061375b81866101800151600181111561370057fe5b905061376c81866101a00151613084565b905061377d81866101c00151613084565b905061378e81866101e001516132a9565b905061379f81866102000151613084565b90506137b0818661022001516132a9565b90506137c1818661024001516145f3565b90506137d2818661026001516145f3565b90506137e3818661028001516145f3565b90506137f481866102a001516145f3565b905061380581866102c001516145f3565b50506020012092915050565b600080836101200151600181111561382557fe5b14801561384257506001826101200151600181111561384057fe5b145b801561386d5750816101000151600181111561385a57fe5b836101000151600181111561386b57fe5b145b80156138945750816102200151600160a060020a0316836102200151600160a060020a0316145b80156138ce57506040820151600160a060020a031615806138ce57508260200151600160a060020a03168260400151600160a060020a0316145b801561390857506040830151600160a060020a0316158061390857508160200151600160a060020a03168360400151600160a060020a0316145b8015613963575060e0820151600160a060020a0316158015613936575060e0830151600160a060020a031615155b80613963575060e0820151600160a060020a031615801590613963575060e0830151600160a060020a0316155b801561398a5750816101600151600160a060020a0316836101600151600160a060020a0316145b80156139b5575081610180015160018111156139a257fe5b83610180015160018111156139b357fe5b145b80156139d057506139d0836102800151846102a00151614608565b80156139eb57506139eb826102800151836102a00151614608565b9392505050565b60008260200151600160a060020a031633600160a060020a0316141515613a1857600080fd5b613a218361336f565b60008181526005602052604090205490915060ff1615613a4057600080fd5b600160056000836000191660001916815260200190815260200160002060006101000a81548160ff0219169083151502179055508260e00151600160a060020a03168360200151600160a060020a031682600019167f90c7f9f5b58c15f0f635bfb99f55d3d78fdbef3559e7d8abf5c81052a527662286600001518760400151886060015189608001518a60a001518b60c001518c61010001518d61012001518e61014001518f6101600151604051808b600160a060020a0316600160a060020a031681526020018a600160a060020a0316600160a060020a03168152602001898152602001888152602001878152602001868152602001856001811115613b4457fe5b60ff168152602001846001811115613b5857fe5b60ff168152602001836001811115613b6c57fe5b60ff168152600160a060020a039092166020830152506040805191829003019950975050505050505050a480600019167fe55393c778364e440d958b39ac1debd99dcfae3775a8a04d1e79124adf6a2d08846101800151856101a00151866101c00151876101e001518861020001518961022001518a61024001518b61026001518c61028001518d6102a001518e6102c001518e604051808d6001811115613c1057fe5b60ff16815260200180602001806020018c600160a060020a0316600160a060020a03168152602001806020018b600160a060020a0316600160a060020a031681526020018a81526020018981526020018881526020018781526020018681526020018515151515815260200184810384528f818151815260200191508051906020019080838360005b83811015613cb1578181015183820152602001613c99565b50505050905090810190601f168015613cde5780820380516001836020036101000a031916815260200191505b5084810383528e818151815260200191508051906020019080838360005b83811015613d14578181015183820152602001613cfc565b50505050905090810190601f168015613d415780820380516001836020036101000a031916815260200191505b5084810382528c5181528c516020918201918e019080838360005b83811015613d74578181015183820152602001613d5c565b50505050905090810190601f168015613da15780820380516001836020036101000a031916815260200191505b509f5050505050505050505050505050505060405180910390a2505050565b6000613dcc8383614624565b90508260200151600160a060020a031633600160a060020a0316141515613df257600080fd5b600081815260046020526040808220805460ff191660011790555182917f5152abf959f6564662358c2e52b702259b78bac5ee7842a0f01937e670efcc7d91a2505050565b6000805481908190819081908190819060ff1615613e5457600080fd5b6000805460ff1916600117905560208c0151600160a060020a0390811633919091161415613e9557613e858c614449565b1515613e9057600080fd5b613ea2565b613e9f8c8c614624565b96505b33600160a060020a03168a60200151600160a060020a03161415613ed957613ec98a614449565b1515613ed457600080fd5b613ee6565b613ee38a8a614624565b95505b613ef08c8b613811565b1515613efb57600080fd5b6101608a0151803b9550935060008511613f1457600080fd5b60008c6101c00151511115613f3d57613f3d8c6101a001518b6101a001518e6101c001516130c8565b60008a6101c00151511115613f6657613f668a6101a001518d6101a001518c6101c001516130c8565b613f7a8c6101a001518b6101a0015161330b565b1515613f8557600080fd5b6002546020808c0151604080517fc4552791000000000000000000000000000000000000000000000000000000008152600160a060020a0392831660048201529051919093169263c45527919260248083019391928290030181600087803b158015613ff057600080fd5b505af1158015614004573d6000803e3d6000fd5b505050506040513d602081101561401a57600080fd5b50519250600160a060020a038316151561403357600080fd5b600260009054906101000a9004600160a060020a0316600160a060020a03166397204d8e6040518163ffffffff167c0100000000000000000000000000000000000000000000000000000000028152600401602060405180830381600087803b15801561409f57600080fd5b505af11580156140b3573d6000803e3d6000fd5b505050506040513d60208110156140c957600080fd5b5051604080517f5c60da1b0000000000000000000000000000000000000000000000000000000081529051600160a060020a0392831692861691635c60da1b9160048083019260209291908290030181600087803b15801561412a57600080fd5b505af115801561413e573d6000803e3d6000fd5b505050506040513d602081101561415457600080fd5b5051600160a060020a03161461416957600080fd5b8291508b60200151600160a060020a031633600160a060020a03161415156141a5576000878152600460205260409020805460ff191660011790555b8960200151600160a060020a031633600160a060020a03161415156141de576000868152600460205260409020805460ff191660011790555b6141e88c8b614656565b905081600160a060020a0316631b0f7ba98b61016001518c61018001518d6101a001516040518463ffffffff167c01000000000000000000000000000000000000000000000000000000000281526004018084600160a060020a0316600160a060020a0316815260200183600181111561425e57fe5b60ff16815260200180602001828103825283818151815260200191508051906020019080838360005b8381101561429f578181015183820152602001614287565b50505050905090810190601f1680156142cc5780820380516001836020036101000a031916815260200191505b50945050505050602060405180830381600087803b1580156142ed57600080fd5b505af1158015614301573d6000803e3d6000fd5b505050506040513d602081101561431757600080fd5b5051151561432457600080fd5b6101e08c0151600160a060020a03161561435d576143528c6101e001518b6101a001518e61020001516116b7565b151561435d57600080fd5b6101e08a0151600160a060020a0316156143965761438b8a6101e001518b6101a001518c61020001516116b7565b151561439657600080fd5b60e08a01518890600160a060020a031615156143b6578a602001516143bc565b8c602001515b60e08c0151600160a060020a03918216911615156143de578d602001516143e4565b8b602001515b604080518b8152602081018b90528082018690529051600160a060020a0392909216917fc4109843e0b7d514e4c093114b863f8e7d8d9a458c372cd51bfe526b588006c99181900360600190a450506000805460ff1916905550505050505050505050565b600030600160a060020a03168260000151600160a060020a031614151561447257506000613306565b614486826101400151836102a00151614c36565b151561449457506000613306565b600182610100015160018111156144a757fe5b1480156144c857506006548260a0015110806144c857506007548260c00151105b156144d557506000613306565b506001919050565b600080600061450e846101200151856101400151866102400151876102600151886102800151896102a0015161358f565b915061453c8561012001518661014001518761024001518861026001518961028001518a6102a0015161358f565b90508181101561454b57600080fd5b60e0840151600160a060020a031615156145655780614567565b815b95945050505050565b60008282111561457c57fe5b50900390565b60008083151561459557600091506132ce565b508282028284828115156145a557fe5b04146139eb57fe5b60008082848115156145bb57fe5b04949350505050565b6000828201838110156139eb57fe5b610200810151516101c0820151516101a08301515101016101b001919050565b815260200190565b6000818353505060010190565b600042831080156139eb57508115806139eb5750504210919050565b60008060006146328561336f565b915061463d856133ba565b905061464b82828787613405565b151561456557600080fd5b600080600080600080600080600080600160a060020a03168a6102200151600160a060020a031614151561468f57341561468f57600080fd5b6146998b8b6144dd565b97506000881180156146b857506102208a0151600160a060020a031615155b156146d6576146d68a61022001518c602001518c602001518b614c55565b60e08a0151889750879650600160a060020a0316156149f2576080808c0151908b0151111561470457600080fd5b60018a6101000151600181111561471757fe5b14156149bf5760c0808c0151908b0151111561473257600080fd5b60008a6060015111156147d6576147586147508b606001518a614582565b6127106145ad565b6102208b0151909550600160a060020a031615156147bd5761477a8786614570565b60e08b0151604051919850600160a060020a03169086156108fc029087906000818181858888f193505050501580156147b7573d6000803e3d6000fd5b506147d6565b6147d68a61022001518b602001518c60e0015188614c55565b60008a608001511115614872576147f46147508b608001518a614582565b6102208b0151909450600160a060020a031615156148595761481686856145c4565b60e08b0151604051919750600160a060020a03169085156108fc029086906000818181858888f19350505050158015614853573d6000803e3d6000fd5b50614872565b6148728a61022001518c602001518c60e0015187614c55565b60008a60a001511115614916576148906147508b60a001518a614582565b6102208b0151909350600160a060020a031615156148f3576148b28784614570565b600854604051919850600160a060020a03169084156108fc029085906000818181858888f193505050501580156148ed573d6000803e3d6000fd5b50614916565b6102208a015160208b0151600854614916929190600160a060020a031686614c55565b60008a60c0015111156149ba576149346147508b60c001518a614582565b6102208b0151909250600160a060020a031615156149975761495686836145c4565b600854604051919750600160a060020a03169083156108fc029084906000818181858888f19350505050158015614991573d6000803e3d6000fd5b506149ba565b6102208a015160208c01516008546149ba929190600160a060020a031685614c55565b6149ed565b6149d68a602001518b60e001518c60600151614d1a565b6149ed8b602001518b60e001518c60800151614d1a565b614b73565b6080808b0151908c01511115614a0757600080fd5b60018a61010001516001811115614a1a57fe5b1415614b45576102208a0151600160a060020a03161515614a3a57600080fd5b60c0808b0151908c01511115614a4f57600080fd5b60008b606001511115614a8857614a6d6147508c606001518a614582565b9450614a888a61022001518c602001518d60e0015188614c55565b60008b608001511115614ac157614aa66147508c608001518a614582565b9350614ac18a61022001518b602001518d60e0015187614c55565b60008b60a001511115614b0357614adf6147508c60a001518a614582565b6102208b015160208d0151600854929550614b0392600160a060020a031686614c55565b60008b60c0015111156149ed57614b216147508c60c001518a614582565b6102208b015160208c01516008549294506149ed92600160a060020a031685614c55565b614b5c8b602001518c60e001518d60600151614d1a565b614b738a602001518c60e001518d60800151614d1a565b6102208a0151600160a060020a03161515614c275734861115614b9557600080fd5b8960200151600160a060020a03166108fc889081150290604051600060405180830381858888f19350505050158015614bd2573d6000803e3d6000fd5b50614bdd3487614570565b90506000811115614c27578a60200151600160a060020a03166108fc829081150290604051600060405180830381858888f19350505050158015614c25573d6000803e3d6000fd5b505b50959998505050505050505050565b600080836001811115614c4557fe5b14806139eb575050600010919050565b6000811115614d1457600354604080517f15dacbea000000000000000000000000000000000000000000000000000000008152600160a060020a0387811660048301528681166024830152858116604483015260648201859052915191909216916315dacbea9160848083019260209291908290030181600087803b158015614cdd57600080fd5b505af1158015614cf1573d6000803e3d6000fd5b505050506040513d6020811015614d0757600080fd5b50511515614d1457600080fd5b50505050565b600154614d3290600160a060020a0316848484614c55565b505050565b604080516102e081018252600080825260208201819052918101829052606081018290526080810182905260a0810182905260c0810182905260e081018290529061010082019081526020016000815260200160008152600060208201819052604090910190815260200160608152602001606081526020016000600160a060020a03168152602001606081526020016000600160a060020a031681526020016000815260200160008152602001600081526020016000815260200160008152509056000100000000000000000000000000000000000000000000000000000000000000a165627a7a72305820885981222563655942128de198ded88a6999f906a8bbb8597680899576ec0c940029",
  "source": "/*\n\n  << Project Wyvern Exchange >>\n\n*/\n\npragma solidity 0.4.23;\n\nimport \"./exchange/Exchange.sol\";\n\n/**\n * @title WyvernExchange\n * @author Project Wyvern Developers\n */\ncontract WyvernExchange is Exchange {\n\n    string public constant name = \"Project Wyvern Exchange\";\n\n    string public constant version = \"2.2\";\n\n    string public constant codename = \"Lambton Worm\";\n\n    /**\n     * @dev Initialize a WyvernExchange instance\n     * @param registryAddress Address of the registry instance which this Exchange instance will use\n     * @param tokenAddress Address of the token used for protocol fees\n     */\n    constructor (ProxyRegistry registryAddress, TokenTransferProxy tokenTransferProxyAddress, ERC20 tokenAddress, address protocolFeeAddress) public {\n        registry = registryAddress;\n        tokenTransferProxy = tokenTransferProxyAddress;\n        exchangeToken = tokenAddress;\n        protocolFeeRecipient = protocolFeeAddress;\n        owner = msg.sender;\n    }\n\n}\n",
  "sourcePath": "/Users/joongyu.sun/workspace/blockchain/blocks/workspace.0315/wyvern-ethereum/contracts/WyvernExchange.sol",
  "compiler": {
    "name": "solc",
    "version": "0.4.23+commit.124ca40d.Emscripten.clang"
  },
  "schemaVersion": "3.1.0",
  "updatedAt": "2023-08-21T16:15:40.374Z",
  "networkType": "ethereum"
}